{
  "_format": "hh-sol-artifact-1",
  "contractName": "ContractStore",
  "sourceName": "contracts/ContractStore.sol",
  "abi": [
    {
      "inputs": [],
      "stateMutability": "nonpayable",
      "type": "constructor"
    },
    {
      "inputs": [],
      "name": "civicPassVerifyingContractAddressOnFantom",
      "outputs": [
        {
          "internalType": "address",
          "name": "",
          "type": "address"
        }
      ],
      "stateMutability": "view",
      "type": "function"
    },
    {
      "inputs": [],
      "name": "gaslessContract",
      "outputs": [
        {
          "internalType": "contract GaslessContract",
          "name": "",
          "type": "address"
        }
      ],
      "stateMutability": "view",
      "type": "function"
    },
    {
      "inputs": [],
      "name": "gaslessContractAddress",
      "outputs": [
        {
          "internalType": "address",
          "name": "",
          "type": "address"
        }
      ],
      "stateMutability": "view",
      "type": "function"
    },
    {
      "inputs": [],
      "name": "msgExampleBasic",
      "outputs": [
        {
          "internalType": "contract IMsgExampleBasic",
          "name": "",
          "type": "address"
        }
      ],
      "stateMutability": "view",
      "type": "function"
    },
    {
      "inputs": [],
      "name": "msgExampleBasicAddress",
      "outputs": [
        {
          "internalType": "address",
          "name": "",
          "type": "address"
        }
      ],
      "stateMutability": "view",
      "type": "function"
    },
    {
      "inputs": [],
      "name": "owner",
      "outputs": [
        {
          "internalType": "address",
          "name": "",
          "type": "address"
        }
      ],
      "stateMutability": "view",
      "type": "function"
    },
    {
      "inputs": [],
      "name": "priceOracle",
      "outputs": [
        {
          "internalType": "contract PriceOracle",
          "name": "",
          "type": "address"
        }
      ],
      "stateMutability": "view",
      "type": "function"
    },
    {
      "inputs": [],
      "name": "priceOracleAddress",
      "outputs": [
        {
          "internalType": "address",
          "name": "",
          "type": "address"
        }
      ],
      "stateMutability": "view",
      "type": "function"
    },
    {
      "inputs": [],
      "name": "profileContract",
      "outputs": [
        {
          "internalType": "contract Profile",
          "name": "",
          "type": "address"
        }
      ],
      "stateMutability": "view",
      "type": "function"
    },
    {
      "inputs": [],
      "name": "profileContractAddress",
      "outputs": [
        {
          "internalType": "address",
          "name": "",
          "type": "address"
        }
      ],
      "stateMutability": "view",
      "type": "function"
    },
    {
      "inputs": [],
      "name": "roleAccessControlAddress",
      "outputs": [
        {
          "internalType": "address",
          "name": "",
          "type": "address"
        }
      ],
      "stateMutability": "view",
      "type": "function"
    },
    {
      "inputs": [],
      "name": "rolesAccessControl",
      "outputs": [
        {
          "internalType": "contract RolesAccessControl",
          "name": "",
          "type": "address"
        }
      ],
      "stateMutability": "view",
      "type": "function"
    },
    {
      "inputs": [
        {
          "internalType": "address",
          "name": "_civicPassVerifyingContractAddressOnFantom",
          "type": "address"
        }
      ],
      "name": "setFantomCivicPassVerifyingContractAddress",
      "outputs": [],
      "stateMutability": "nonpayable",
      "type": "function"
    },
    {
      "inputs": [
        {
          "internalType": "address",
          "name": "_gaslessContractAddress",
          "type": "address"
        }
      ],
      "name": "setGaslessContractAddress",
      "outputs": [],
      "stateMutability": "nonpayable",
      "type": "function"
    },
    {
      "inputs": [
        {
          "internalType": "address",
          "name": "_msgExampleBasicAddress",
          "type": "address"
        }
      ],
      "name": "setMsgExampleBasicAddress",
      "outputs": [],
      "stateMutability": "nonpayable",
      "type": "function"
    },
    {
      "inputs": [
        {
          "internalType": "address",
          "name": "_priceOracleAddress",
          "type": "address"
        }
      ],
      "name": "setPriceOracleAddress",
      "outputs": [],
      "stateMutability": "nonpayable",
      "type": "function"
    },
    {
      "inputs": [
        {
          "internalType": "address",
          "name": "_profileContractAddress",
          "type": "address"
        }
      ],
      "name": "setProfileContractAddress",
      "outputs": [],
      "stateMutability": "nonpayable",
      "type": "function"
    },
    {
      "inputs": [
        {
          "internalType": "address",
          "name": "_roleAccessControlAddress",
          "type": "address"
        }
      ],
      "name": "setRoleAccessControlAddress",
      "outputs": [],
      "stateMutability": "nonpayable",
      "type": "function"
    },
    {
      "inputs": [
        {
          "internalType": "address",
          "name": "_surveyBackendContractAddress",
          "type": "address"
        }
      ],
      "name": "setSurveyBackendContractAddress",
      "outputs": [],
      "stateMutability": "nonpayable",
      "type": "function"
    },
    {
      "inputs": [
        {
          "internalType": "address",
          "name": "_surveyContractAddress",
          "type": "address"
        }
      ],
      "name": "setSurveyContractAddress",
      "outputs": [],
      "stateMutability": "nonpayable",
      "type": "function"
    },
    {
      "inputs": [
        {
          "internalType": "address",
          "name": "_vaultContractAddress",
          "type": "address"
        }
      ],
      "name": "setVaultContractAddress",
      "outputs": [],
      "stateMutability": "nonpayable",
      "type": "function"
    },
    {
      "inputs": [],
      "name": "surveyBackendContract",
      "outputs": [
        {
          "internalType": "contract SurveyBackendContract",
          "name": "",
          "type": "address"
        }
      ],
      "stateMutability": "view",
      "type": "function"
    },
    {
      "inputs": [],
      "name": "surveyBackendContractAddress",
      "outputs": [
        {
          "internalType": "address",
          "name": "",
          "type": "address"
        }
      ],
      "stateMutability": "view",
      "type": "function"
    },
    {
      "inputs": [],
      "name": "surveyContract",
      "outputs": [
        {
          "internalType": "contract SurveyContract",
          "name": "",
          "type": "address"
        }
      ],
      "stateMutability": "view",
      "type": "function"
    },
    {
      "inputs": [],
      "name": "surveyContractAddress",
      "outputs": [
        {
          "internalType": "address",
          "name": "",
          "type": "address"
        }
      ],
      "stateMutability": "view",
      "type": "function"
    },
    {
      "inputs": [],
      "name": "vaultContract",
      "outputs": [
        {
          "internalType": "contract Vault",
          "name": "",
          "type": "address"
        }
      ],
      "stateMutability": "view",
      "type": "function"
    },
    {
      "inputs": [],
      "name": "vaultContractAddress",
      "outputs": [
        {
          "internalType": "address",
          "name": "",
          "type": "address"
        }
      ],
      "stateMutability": "view",
      "type": "function"
    }
  ],
  "bytecode": "0x608060405234620000265762000014620000b5565b6040516108f86200014782396108f890f35b600080fd5b620000419062000044906001600160a01b031682565b90565b6001600160a01b031690565b62000041906200002b565b620000419062000050565b906200007a6200004162000096926200005b565b82546001600160a01b0319166001600160a01b03919091161790565b9055565b6200004462000041620000419290565b62000041906200009a565b620000c233600c62000066565b620001446000620000d381620000aa565b90620000e0828262000066565b620000ed82600262000066565b620000fa82600462000066565b6200010782600662000066565b6200011482600862000066565b6200012182600a62000066565b6200012e82600d62000066565b6200013b82600f62000066565b50601162000066565b56fe6080604052600436101561001257600080fd5b60003560e01c80630c23863b146101c257806315e600fc146101bd57806321628a24146101b85780632274346b146101b357806323e5e212146101ae5780632630c12f146101a95780632bc51c6d146101a45780632f03372c1461019f57806334594ed01461019a578063387218f61461019557806357c8b289146101905780635e70f3061461018b578063685cc9cd146101865780636e1d4f84146101815780637a4ab8441461017c5780637f0c50ca14610177578063871105cc146101725780638da5cb5b1461016d5780639991667614610168578063a3974b2114610163578063a92ea0e01461015e578063c81e2c3714610159578063ccfe468114610154578063e22b45f11461014f578063ee41a9a71461014a578063f3d866bc146101455763fbcb54ef036101c757610624565b6105fd565b6105d9565b6105be565b61059a565b610582565b610567565b610540565b610519565b6104f2565b6104ce565b6104b3565b61048f565b610477565b61045c565b610435565b61040e565b6103e8565b6103c4565b6103a9565b610376565b610336565b610312565b6102f7565b6102ce565b610282565b61024b565b600080fd5b60009103126101c757565b6101ec916008021c5b6001600160a01b031690565b90565b906101ec91546101d7565b6101ec600060076101ef565b6101ec906101e0906001600160a01b031682565b6101ec90610206565b6101ec9061021a565b61023590610223565b9052565b602081019291610249919061022c565b565b346101c75761025b3660046101cc565b6102726102666101fa565b60405191829182610239565b0390f35b6101ec600060106101ef565b346101c7576102923660046101cc565b610272610266610276565b6102a6816101e0565b036101c757565b905035906102498261029d565b906020828203126101c7576101ec916102ad565b346101c7576102e66102e13660046102ba565b6106dd565b604051005b6101ec6000600b6101ef565b346101c7576103073660046101cc565b6102726102666102eb565b346101c7576102e66103253660046102ba565b610729565b6101ec600060036101ef565b346101c7576103463660046101cc565b61027261026661032a565b6101ec600060026101ef565b610235906101e0565b602081019291610249919061035d565b346101c7576103863660046101cc565b610272610391610351565b60405191829182610366565b6101ec6000600d6101ef565b346101c7576103b93660046101cc565b61027261039161039d565b346101c7576102e66103d73660046102ba565b610795565b6101ec6000600f6101ef565b346101c7576103f83660046101cc565b6102726103916103dc565b6101ec6000806101ef565b346101c75761041e3660046101cc565b610272610391610403565b6101ec600060056101ef565b346101c7576104453660046101cc565b610272610266610429565b6101ec600060086101ef565b346101c75761046c3660046101cc565b610272610391610450565b346101c7576102e661048a3660046102ba565b6107cb565b346101c7576102e66104a23660046102ba565b610837565b6101ec6000600e6101ef565b346101c7576104c33660046101cc565b6102726102666104a7565b346101c7576102e66104e13660046102ba565b610801565b6101ec6000600c6101ef565b346101c7576105023660046101cc565b6102726103916104e6565b6101ec600060046101ef565b346101c7576105293660046101cc565b61027261039161050d565b6101ec600060096101ef565b346101c7576105503660046101cc565b610272610266610534565b6101ec6000600a6101ef565b346101c7576105773660046101cc565b61027261039161055b565b346101c7576102e66105953660046102ba565b61086d565b346101c7576102e66105ad3660046102ba565b6108a3565b6101ec600060016101ef565b346101c7576105ce3660046101cc565b6102726102666105b2565b346101c7576102e66105ec3660046102ba565b61075f565b6101ec600060116101ef565b346101c75761060d3660046101cc565b6102726103916105f1565b6101ec600060066101ef565b346101c7576106343660046101cc565b610272610391610618565b6101ec906101e0565b6101ec905461063f565b6020808252601e908201527f4f6e6c79206f776e65722063616e207365742074686520616464726573730000604082015260600190565b1561069057565b60405162461bcd60e51b8152806106a960048201610652565b0390fd5b906106bd6101ec6106d992610223565b82546001600160a01b0319166001600160a01b03919091161790565b9055565b61070d90610706336107006106fa6106f5600c610648565b6101e0565b916101e0565b14610689565b60006106ad565b61024961072261071d6000610648565b610223565b60016106ad565b61074890610741336107006106fa6106f5600c610648565b60026106ad565b61024961075861071d6002610648565b60036106ad565b61077e90610777336107006106fa6106f5600c610648565b60046106ad565b61024961078e61071d6004610648565b60056106ad565b6107b4906107ad336107006106fa6106f5600c610648565b60066106ad565b6102496107c461071d6006610648565b60076106ad565b6107ea906107e3336107006106fa6106f5600c610648565b60086106ad565b6102496107fa61071d6008610648565b60096106ad565b61082090610819336107006106fa6106f5600c610648565b600a6106ad565b61024961083061071d600a610648565b600b6106ad565b6108569061084f336107006106fa6106f5600c610648565b600d6106ad565b61024961086661071d600d610648565b600e6106ad565b61088c90610885336107006106fa6106f5600c610648565b600f6106ad565b61024961089c61071d600f610648565b60106106ad565b610249906108bb336107006106fa6106f5600c610648565b60116106ad56fea26469706673582212202c1fdcd0b2da297ea82d03b33ff33b34131a1adb096db1bfaf15ed25a5d150fb64736f6c63430008150033",
  "linkReferences": {},
  "deployedLinkReferences": {}
}