{
  "_format": "hh-sol-artifact-1",
  "contractName": "GaslessContract",
  "sourceName": "contracts/GaslessContract.sol",
  "abi": [
    {
      "inputs": [
        {
          "internalType": "address",
          "name": "_contract_store",
          "type": "address"
        }
      ],
      "stateMutability": "payable",
      "type": "constructor"
    },
    {
      "inputs": [],
      "name": "AuthenticationFailed",
      "type": "error"
    },
    {
      "inputs": [],
      "name": "DER_Split_Error",
      "type": "error"
    },
    {
      "inputs": [],
      "name": "Unauthorized",
      "type": "error"
    },
    {
      "inputs": [],
      "name": "expmod_Error",
      "type": "error"
    },
    {
      "inputs": [],
      "name": "k256Decompress_Invalid_Length_Error",
      "type": "error"
    },
    {
      "inputs": [],
      "name": "k256DeriveY_Invalid_Prefix_Error",
      "type": "error"
    },
    {
      "inputs": [],
      "name": "recoverV_Error",
      "type": "error"
    },
    {
      "anonymous": false,
      "inputs": [
        {
          "indexed": false,
          "internalType": "address",
          "name": "addr",
          "type": "address"
        }
      ],
      "name": "KeypairCreated",
      "type": "event"
    },
    {
      "inputs": [],
      "name": "EIP712_DOMAIN_TYPEHASH",
      "outputs": [
        {
          "internalType": "bytes32",
          "name": "",
          "type": "bytes32"
        }
      ],
      "stateMutability": "view",
      "type": "function"
    },
    {
      "inputs": [],
      "name": "SIGNIN_TYPE",
      "outputs": [
        {
          "internalType": "string",
          "name": "",
          "type": "string"
        }
      ],
      "stateMutability": "view",
      "type": "function"
    },
    {
      "inputs": [],
      "name": "SIGNIN_TYPEHASH",
      "outputs": [
        {
          "internalType": "bytes32",
          "name": "",
          "type": "bytes32"
        }
      ],
      "stateMutability": "view",
      "type": "function"
    },
    {
      "inputs": [
        {
          "internalType": "bytes",
          "name": "_data",
          "type": "bytes"
        },
        {
          "internalType": "bytes32",
          "name": "_nonce",
          "type": "bytes32"
        }
      ],
      "name": "SapphireEncrypt",
      "outputs": [
        {
          "internalType": "bytes",
          "name": "",
          "type": "bytes"
        }
      ],
      "stateMutability": "view",
      "type": "function"
    },
    {
      "inputs": [],
      "name": "addAdminKeypair",
      "outputs": [],
      "stateMutability": "payable",
      "type": "function"
    },
    {
      "inputs": [],
      "name": "checkCivicPass",
      "outputs": [
        {
          "internalType": "bool",
          "name": "",
          "type": "bool"
        }
      ],
      "stateMutability": "view",
      "type": "function"
    },
    {
      "inputs": [
        {
          "internalType": "uint256",
          "name": "surveyId",
          "type": "uint256"
        }
      ],
      "name": "checkSurveyAccountBalance",
      "outputs": [
        {
          "internalType": "uint256",
          "name": "",
          "type": "uint256"
        }
      ],
      "stateMutability": "view",
      "type": "function"
    },
    {
      "inputs": [],
      "name": "contractStore",
      "outputs": [
        {
          "internalType": "contract ContractStore",
          "name": "",
          "type": "address"
        }
      ],
      "stateMutability": "view",
      "type": "function"
    },
    {
      "inputs": [
        {
          "internalType": "uint256",
          "name": "organisationId",
          "type": "uint256"
        }
      ],
      "name": "create_KeyPair_for_Organisation",
      "outputs": [],
      "stateMutability": "nonpayable",
      "type": "function"
    },
    {
      "inputs": [
        {
          "internalType": "bytes",
          "name": "_cipherText",
          "type": "bytes"
        },
        {
          "internalType": "bytes32",
          "name": "_nonce",
          "type": "bytes32"
        }
      ],
      "name": "decode",
      "outputs": [
        {
          "internalType": "string",
          "name": "",
          "type": "string"
        }
      ],
      "stateMutability": "view",
      "type": "function"
    },
    {
      "inputs": [
        {
          "internalType": "uint256",
          "name": "orgId",
          "type": "uint256"
        },
        {
          "internalType": "bytes",
          "name": "_cypherText",
          "type": "bytes"
        },
        {
          "components": [
            {
              "internalType": "address",
              "name": "user",
              "type": "address"
            },
            {
              "internalType": "uint256",
              "name": "time",
              "type": "uint256"
            },
            {
              "components": [
                {
                  "internalType": "bytes32",
                  "name": "r",
                  "type": "bytes32"
                },
                {
                  "internalType": "bytes32",
                  "name": "s",
                  "type": "bytes32"
                },
                {
                  "internalType": "uint256",
                  "name": "v",
                  "type": "uint256"
                }
              ],
              "internalType": "struct SignatureRSV",
              "name": "rsv",
              "type": "tuple"
            }
          ],
          "internalType": "struct SignIn",
          "name": "auth",
          "type": "tuple"
        }
      ],
      "name": "decodeTextAnswerForOrganisation",
      "outputs": [
        {
          "internalType": "string",
          "name": "",
          "type": "string"
        }
      ],
      "stateMutability": "view",
      "type": "function"
    },
    {
      "inputs": [
        {
          "internalType": "bytes",
          "name": "_cypherText",
          "type": "bytes"
        },
        {
          "components": [
            {
              "internalType": "address",
              "name": "user",
              "type": "address"
            },
            {
              "internalType": "uint256",
              "name": "time",
              "type": "uint256"
            },
            {
              "components": [
                {
                  "internalType": "bytes32",
                  "name": "r",
                  "type": "bytes32"
                },
                {
                  "internalType": "bytes32",
                  "name": "s",
                  "type": "bytes32"
                },
                {
                  "internalType": "uint256",
                  "name": "v",
                  "type": "uint256"
                }
              ],
              "internalType": "struct SignatureRSV",
              "name": "rsv",
              "type": "tuple"
            }
          ],
          "internalType": "struct SignIn",
          "name": "auth",
          "type": "tuple"
        }
      ],
      "name": "decodeTextAnswerForUser",
      "outputs": [
        {
          "internalType": "string",
          "name": "",
          "type": "string"
        }
      ],
      "stateMutability": "view",
      "type": "function"
    },
    {
      "inputs": [
        {
          "components": [
            {
              "internalType": "address",
              "name": "user",
              "type": "address"
            },
            {
              "internalType": "uint256",
              "name": "time",
              "type": "uint256"
            },
            {
              "components": [
                {
                  "internalType": "bytes32",
                  "name": "r",
                  "type": "bytes32"
                },
                {
                  "internalType": "bytes32",
                  "name": "s",
                  "type": "bytes32"
                },
                {
                  "internalType": "uint256",
                  "name": "v",
                  "type": "uint256"
                }
              ],
              "internalType": "struct SignatureRSV",
              "name": "rsv",
              "type": "tuple"
            }
          ],
          "internalType": "struct SignIn",
          "name": "auth",
          "type": "tuple"
        },
        {
          "internalType": "string",
          "name": "_data",
          "type": "string"
        }
      ],
      "name": "encode",
      "outputs": [
        {
          "internalType": "bytes",
          "name": "cipher",
          "type": "bytes"
        },
        {
          "internalType": "bytes32",
          "name": "nonce",
          "type": "bytes32"
        }
      ],
      "stateMutability": "view",
      "type": "function"
    },
    {
      "inputs": [
        {
          "internalType": "uint256",
          "name": "surveyId",
          "type": "uint256"
        },
        {
          "internalType": "string",
          "name": "answerText",
          "type": "string"
        },
        {
          "components": [
            {
              "internalType": "address",
              "name": "user",
              "type": "address"
            },
            {
              "internalType": "uint256",
              "name": "time",
              "type": "uint256"
            },
            {
              "components": [
                {
                  "internalType": "bytes32",
                  "name": "r",
                  "type": "bytes32"
                },
                {
                  "internalType": "bytes32",
                  "name": "s",
                  "type": "bytes32"
                },
                {
                  "internalType": "uint256",
                  "name": "v",
                  "type": "uint256"
                }
              ],
              "internalType": "struct SignatureRSV",
              "name": "rsv",
              "type": "tuple"
            }
          ],
          "internalType": "struct SignIn",
          "name": "auth",
          "type": "tuple"
        }
      ],
      "name": "encodeTextAnswer",
      "outputs": [
        {
          "internalType": "bytes",
          "name": "cypherForOrganisation",
          "type": "bytes"
        },
        {
          "internalType": "bytes",
          "name": "cypherForUser",
          "type": "bytes"
        }
      ],
      "stateMutability": "view",
      "type": "function"
    },
    {
      "inputs": [
        {
          "internalType": "uint256",
          "name": "organisationId",
          "type": "uint256"
        }
      ],
      "name": "getAddressOfOrganisation",
      "outputs": [
        {
          "internalType": "address",
          "name": "",
          "type": "address"
        }
      ],
      "stateMutability": "view",
      "type": "function"
    },
    {
      "inputs": [
        {
          "internalType": "uint256",
          "name": "organisationId",
          "type": "uint256"
        },
        {
          "components": [
            {
              "internalType": "address",
              "name": "user",
              "type": "address"
            },
            {
              "internalType": "uint256",
              "name": "time",
              "type": "uint256"
            },
            {
              "components": [
                {
                  "internalType": "bytes32",
                  "name": "r",
                  "type": "bytes32"
                },
                {
                  "internalType": "bytes32",
                  "name": "s",
                  "type": "bytes32"
                },
                {
                  "internalType": "uint256",
                  "name": "v",
                  "type": "uint256"
                }
              ],
              "internalType": "struct SignatureRSV",
              "name": "rsv",
              "type": "tuple"
            }
          ],
          "internalType": "struct SignIn",
          "name": "auth",
          "type": "tuple"
        }
      ],
      "name": "getAddressesOfOrganisation",
      "outputs": [
        {
          "internalType": "address",
          "name": "orgAddress",
          "type": "address"
        },
        {
          "components": [
            {
              "internalType": "uint256",
              "name": "surveyId",
              "type": "uint256"
            },
            {
              "internalType": "address",
              "name": "surveyAccount",
              "type": "address"
            }
          ],
          "internalType": "struct SurveyAccount[]",
          "name": "surveyAccounts",
          "type": "tuple[]"
        }
      ],
      "stateMutability": "view",
      "type": "function"
    },
    {
      "inputs": [
        {
          "components": [
            {
              "internalType": "address",
              "name": "user",
              "type": "address"
            },
            {
              "internalType": "uint256",
              "name": "time",
              "type": "uint256"
            },
            {
              "components": [
                {
                  "internalType": "bytes32",
                  "name": "r",
                  "type": "bytes32"
                },
                {
                  "internalType": "bytes32",
                  "name": "s",
                  "type": "bytes32"
                },
                {
                  "internalType": "uint256",
                  "name": "v",
                  "type": "uint256"
                }
              ],
              "internalType": "struct SignatureRSV",
              "name": "rsv",
              "type": "tuple"
            }
          ],
          "internalType": "struct SignIn",
          "name": "auth",
          "type": "tuple"
        }
      ],
      "name": "getAllAdminAddresses",
      "outputs": [
        {
          "internalType": "address[]",
          "name": "",
          "type": "address[]"
        }
      ],
      "stateMutability": "view",
      "type": "function"
    },
    {
      "inputs": [
        {
          "internalType": "uint256",
          "name": "surveyId",
          "type": "uint256"
        },
        {
          "internalType": "address",
          "name": "respondant",
          "type": "address"
        }
      ],
      "name": "getAmountPaid",
      "outputs": [
        {
          "internalType": "uint256",
          "name": "",
          "type": "uint256"
        }
      ],
      "stateMutability": "view",
      "type": "function"
    },
    {
      "inputs": [],
      "name": "getChainId",
      "outputs": [
        {
          "internalType": "uint256",
          "name": "",
          "type": "uint256"
        }
      ],
      "stateMutability": "view",
      "type": "function"
    },
    {
      "inputs": [
        {
          "internalType": "string",
          "name": "function_name",
          "type": "string"
        }
      ],
      "name": "getCostOfFunction",
      "outputs": [
        {
          "internalType": "uint64",
          "name": "",
          "type": "uint64"
        }
      ],
      "stateMutability": "view",
      "type": "function"
    },
    {
      "inputs": [
        {
          "internalType": "address",
          "name": "addr",
          "type": "address"
        }
      ],
      "name": "getNonceOfKeyPairAddress",
      "outputs": [
        {
          "internalType": "uint64",
          "name": "",
          "type": "uint64"
        }
      ],
      "stateMutability": "view",
      "type": "function"
    },
    {
      "inputs": [
        {
          "internalType": "uint256",
          "name": "organisationId",
          "type": "uint256"
        }
      ],
      "name": "getOrganisationAccountPublicKey",
      "outputs": [
        {
          "internalType": "address",
          "name": "",
          "type": "address"
        }
      ],
      "stateMutability": "view",
      "type": "function"
    },
    {
      "inputs": [
        {
          "internalType": "uint256",
          "name": "oid",
          "type": "uint256"
        }
      ],
      "name": "getorganisationSurveyIds",
      "outputs": [
        {
          "internalType": "uint256[]",
          "name": "",
          "type": "uint256[]"
        }
      ],
      "stateMutability": "view",
      "type": "function"
    },
    {
      "inputs": [
        {
          "internalType": "uint256",
          "name": "surveyId",
          "type": "uint256"
        }
      ],
      "name": "getsurveyOnChainAccount",
      "outputs": [
        {
          "internalType": "address",
          "name": "",
          "type": "address"
        }
      ],
      "stateMutability": "view",
      "type": "function"
    },
    {
      "inputs": [
        {
          "components": [
            {
              "internalType": "address",
              "name": "user",
              "type": "address"
            },
            {
              "internalType": "uint256",
              "name": "time",
              "type": "uint256"
            },
            {
              "components": [
                {
                  "internalType": "bytes32",
                  "name": "r",
                  "type": "bytes32"
                },
                {
                  "internalType": "bytes32",
                  "name": "s",
                  "type": "bytes32"
                },
                {
                  "internalType": "uint256",
                  "name": "v",
                  "type": "uint256"
                }
              ],
              "internalType": "struct SignatureRSV",
              "name": "rsv",
              "type": "tuple"
            }
          ],
          "internalType": "struct SignIn",
          "name": "auth",
          "type": "tuple"
        },
        {
          "internalType": "address",
          "name": "profile_address",
          "type": "address"
        }
      ],
      "name": "isAuthenticated",
      "outputs": [
        {
          "internalType": "bool",
          "name": "",
          "type": "bool"
        }
      ],
      "stateMutability": "view",
      "type": "function"
    },
    {
      "inputs": [
        {
          "internalType": "uint256",
          "name": "surveyId",
          "type": "uint256"
        },
        {
          "internalType": "uint256[]",
          "name": "questionIndex",
          "type": "uint256[]"
        },
        {
          "internalType": "bytes32[]",
          "name": "answerHashIPFSDigest",
          "type": "bytes32[]"
        },
        {
          "internalType": "uint8[]",
          "name": "answerHashIPFSHashFunction",
          "type": "uint8[]"
        },
        {
          "internalType": "uint8[]",
          "name": "answerHashIPFSHashSize",
          "type": "uint8[]"
        },
        {
          "internalType": "uint256[][]",
          "name": "optionIndexes",
          "type": "uint256[][]"
        },
        {
          "internalType": "enum AnswerType[]",
          "name": "ansType",
          "type": "uint8[]"
        },
        {
          "components": [
            {
              "internalType": "address",
              "name": "user",
              "type": "address"
            },
            {
              "internalType": "uint256",
              "name": "time",
              "type": "uint256"
            },
            {
              "components": [
                {
                  "internalType": "bytes32",
                  "name": "r",
                  "type": "bytes32"
                },
                {
                  "internalType": "bytes32",
                  "name": "s",
                  "type": "bytes32"
                },
                {
                  "internalType": "uint256",
                  "name": "v",
                  "type": "uint256"
                }
              ],
              "internalType": "struct SignatureRSV",
              "name": "rsv",
              "type": "tuple"
            }
          ],
          "internalType": "struct SignIn",
          "name": "auth",
          "type": "tuple"
        }
      ],
      "name": "makeAnswerSurveyTransaction",
      "outputs": [
        {
          "internalType": "bytes",
          "name": "output",
          "type": "bytes"
        }
      ],
      "stateMutability": "view",
      "type": "function"
    },
    {
      "inputs": [
        {
          "components": [
            {
              "internalType": "address",
              "name": "user",
              "type": "address"
            },
            {
              "internalType": "bytes32",
              "name": "firstName",
              "type": "bytes32"
            },
            {
              "internalType": "bytes32",
              "name": "lastName",
              "type": "bytes32"
            },
            {
              "internalType": "bytes32",
              "name": "bio",
              "type": "bytes32"
            },
            {
              "internalType": "bytes32",
              "name": "digest",
              "type": "bytes32"
            },
            {
              "internalType": "uint8",
              "name": "hashFunction",
              "type": "uint8"
            },
            {
              "internalType": "uint8",
              "name": "size",
              "type": "uint8"
            },
            {
              "internalType": "uint8",
              "name": "profileAvatar",
              "type": "uint8"
            },
            {
              "internalType": "bytes32",
              "name": "twitter_handle",
              "type": "bytes32"
            },
            {
              "internalType": "bytes32",
              "name": "facebook_handle",
              "type": "bytes32"
            },
            {
              "internalType": "bytes32",
              "name": "instagram_handle",
              "type": "bytes32"
            },
            {
              "internalType": "bytes32",
              "name": "external_link",
              "type": "bytes32"
            },
            {
              "internalType": "bytes32",
              "name": "password",
              "type": "bytes32"
            }
          ],
          "internalType": "struct userSignupRequest",
          "name": "request",
          "type": "tuple"
        },
        {
          "components": [
            {
              "internalType": "address",
              "name": "user",
              "type": "address"
            },
            {
              "internalType": "uint256",
              "name": "time",
              "type": "uint256"
            },
            {
              "components": [
                {
                  "internalType": "bytes32",
                  "name": "r",
                  "type": "bytes32"
                },
                {
                  "internalType": "bytes32",
                  "name": "s",
                  "type": "bytes32"
                },
                {
                  "internalType": "uint256",
                  "name": "v",
                  "type": "uint256"
                }
              ],
              "internalType": "struct SignatureRSV",
              "name": "rsv",
              "type": "tuple"
            }
          ],
          "internalType": "struct SignIn",
          "name": "auth",
          "type": "tuple"
        }
      ],
      "name": "makeUserSignupTransaction",
      "outputs": [
        {
          "internalType": "bytes",
          "name": "output",
          "type": "bytes"
        }
      ],
      "stateMutability": "view",
      "type": "function"
    },
    {
      "inputs": [
        {
          "internalType": "address",
          "name": "addr",
          "type": "address"
        },
        {
          "internalType": "uint64",
          "name": "nonce",
          "type": "uint64"
        }
      ],
      "name": "manually_adjust_nonce",
      "outputs": [],
      "stateMutability": "nonpayable",
      "type": "function"
    },
    {
      "inputs": [
        {
          "internalType": "uint256",
          "name": "organisationId",
          "type": "uint256"
        },
        {
          "internalType": "uint64",
          "name": "nonce",
          "type": "uint64"
        }
      ],
      "name": "manually_adjust_nonce_for_organisationAccount",
      "outputs": [],
      "stateMutability": "nonpayable",
      "type": "function"
    },
    {
      "inputs": [
        {
          "internalType": "uint256",
          "name": "surveyId",
          "type": "uint256"
        },
        {
          "internalType": "uint256",
          "name": "organisationId",
          "type": "uint256"
        },
        {
          "internalType": "uint64",
          "name": "nonce",
          "type": "uint64"
        }
      ],
      "name": "manually_adjust_nonce_for_surveyAccount",
      "outputs": [],
      "stateMutability": "nonpayable",
      "type": "function"
    },
    {
      "inputs": [
        {
          "internalType": "uint256",
          "name": "surveyId",
          "type": "uint256"
        },
        {
          "internalType": "uint256",
          "name": "createdBy",
          "type": "uint256"
        }
      ],
      "name": "newSurveyCreated",
      "outputs": [
        {
          "internalType": "address",
          "name": "",
          "type": "address"
        }
      ],
      "stateMutability": "nonpayable",
      "type": "function"
    },
    {
      "inputs": [
        {
          "internalType": "uint256",
          "name": "surveyId",
          "type": "uint256"
        },
        {
          "internalType": "address",
          "name": "respondant",
          "type": "address"
        },
        {
          "internalType": "uint256",
          "name": "amount",
          "type": "uint256"
        }
      ],
      "name": "payRespondant",
      "outputs": [
        {
          "internalType": "bytes",
          "name": "output",
          "type": "bytes"
        }
      ],
      "stateMutability": "view",
      "type": "function"
    },
    {
      "inputs": [
        {
          "internalType": "bytes32",
          "name": "ciphertextNonce",
          "type": "bytes32"
        },
        {
          "internalType": "bytes",
          "name": "data",
          "type": "bytes"
        }
      ],
      "name": "proxy",
      "outputs": [],
      "stateMutability": "payable",
      "type": "function"
    },
    {
      "inputs": [
        {
          "internalType": "bytes32",
          "name": "ciphertextNonce",
          "type": "bytes32"
        },
        {
          "internalType": "bytes",
          "name": "ciphertext",
          "type": "bytes"
        }
      ],
      "name": "proxySendValue",
      "outputs": [],
      "stateMutability": "payable",
      "type": "function"
    },
    {
      "inputs": [
        {
          "internalType": "string",
          "name": "function_name",
          "type": "string"
        },
        {
          "internalType": "uint64",
          "name": "cost",
          "type": "uint64"
        }
      ],
      "name": "setCostOfFunction",
      "outputs": [],
      "stateMutability": "nonpayable",
      "type": "function"
    },
    {
      "inputs": [
        {
          "internalType": "uint64",
          "name": "newgasprice",
          "type": "uint64"
        }
      ],
      "name": "setGasPrice",
      "outputs": [],
      "stateMutability": "nonpayable",
      "type": "function"
    },
    {
      "inputs": [
        {
          "internalType": "uint256",
          "name": "newMinimumMaintainBalance",
          "type": "uint256"
        }
      ],
      "name": "setMinimumMaintainBalance",
      "outputs": [],
      "stateMutability": "nonpayable",
      "type": "function"
    },
    {
      "inputs": [
        {
          "internalType": "address",
          "name": "to",
          "type": "address"
        },
        {
          "internalType": "uint256",
          "name": "orgId",
          "type": "uint256"
        },
        {
          "internalType": "uint256",
          "name": "amount",
          "type": "uint256"
        },
        {
          "components": [
            {
              "internalType": "address",
              "name": "user",
              "type": "address"
            },
            {
              "internalType": "uint256",
              "name": "time",
              "type": "uint256"
            },
            {
              "components": [
                {
                  "internalType": "bytes32",
                  "name": "r",
                  "type": "bytes32"
                },
                {
                  "internalType": "bytes32",
                  "name": "s",
                  "type": "bytes32"
                },
                {
                  "internalType": "uint256",
                  "name": "v",
                  "type": "uint256"
                }
              ],
              "internalType": "struct SignatureRSV",
              "name": "rsv",
              "type": "tuple"
            }
          ],
          "internalType": "struct SignIn",
          "name": "auth",
          "type": "tuple"
        }
      ],
      "name": "walletTransactFromOrganisation",
      "outputs": [
        {
          "internalType": "bytes",
          "name": "output",
          "type": "bytes"
        }
      ],
      "stateMutability": "view",
      "type": "function"
    },
    {
      "inputs": [
        {
          "internalType": "address",
          "name": "to",
          "type": "address"
        },
        {
          "internalType": "uint256",
          "name": "surveyId",
          "type": "uint256"
        },
        {
          "internalType": "uint256",
          "name": "amount",
          "type": "uint256"
        },
        {
          "components": [
            {
              "internalType": "address",
              "name": "user",
              "type": "address"
            },
            {
              "internalType": "uint256",
              "name": "time",
              "type": "uint256"
            },
            {
              "components": [
                {
                  "internalType": "bytes32",
                  "name": "r",
                  "type": "bytes32"
                },
                {
                  "internalType": "bytes32",
                  "name": "s",
                  "type": "bytes32"
                },
                {
                  "internalType": "uint256",
                  "name": "v",
                  "type": "uint256"
                }
              ],
              "internalType": "struct SignatureRSV",
              "name": "rsv",
              "type": "tuple"
            }
          ],
          "internalType": "struct SignIn",
          "name": "auth",
          "type": "tuple"
        }
      ],
      "name": "walletTransactFromSurvey",
      "outputs": [
        {
          "internalType": "bytes",
          "name": "output",
          "type": "bytes"
        }
      ],
      "stateMutability": "view",
      "type": "function"
    }
  ],
  "bytecode": "0x60c0604052620000186200001262000133565b620003f3565b60405161587862000fcf823960805181818161288901528181613f1b015281816140640152818161460e0152818161487301528181614a8401528181614f8501528181614feb015281816150f90152818161531201526154e1015260a0518181816152b4015281816154a90152615561015261587890f35b634e487b7160e01b600052604160045260246000fd5b90601f01601f191681019081106001600160401b03821117620000c857604052565b62000090565b90620000e5620000dd60405190565b9283620000a6565b565b6001600160a01b031690565b90565b6001600160a01b038116036200010857565b600080fd5b90505190620000e582620000f6565b906020828203126200010857620000f3916200010d565b620000f362006847803803806200014a81620000ce565b9283398101906200011c565b906001600160401b03905b9181191691161790565b6200017b620000f3620000f39290565b6001600160401b031690565b906200019b620000f3620001a3926200016b565b825462000156565b9055565b906fffffffffffffffff00000000000000009060401b62000161565b90620001d7620000f3620001a3926200016b565b8254620001a7565b906000199062000161565b620000f3620000f3620000f39290565b906200020e620000f3620001a392620001ea565b8254620001df565b620000f390620000e7906001600160a01b031682565b620000f39062000216565b620000f3906200022c565b906001600160a01b039062000161565b9062000266620000f3620001a39262000237565b825462000242565b6001600160401b038111620000c857602090601f01601f19160190565b0190565b90620002a56200029f836200026e565b620000ce565b918252565b620000f360006200028f565b620000f3620002aa565b620002dc620002d8620002d1835190565b9260200190565b5190565b9060208110620002ea575090565b620002fd90600019906020036008021b90565b1690565b634e487b7160e01b600052603260045260246000fd5b80548210156200033c5762000333600191600052602060002090565b91020190600090565b62000301565b916001600160a01b0360089290920291821b911b62000161565b919062000371620000f3620001a39362000237565b90835462000342565b9081549168010000000000000000831015620000c85782620003a6916001620000e59501815562000317565b906200035c565b6040513d6000823e3d90fd5b905b600052602052604060002090565b620000f3906200017b906001600160401b031682565b906200019b620000f3620001a392620003c9565b620004436200044b91620004066200069e565b62000416620dbba0600362000187565b6200042864174876e8006003620001c3565b6200043d67016345785d8a00006004620001fa565b62000237565b600562000252565b602062000493620004796200046083620001ea565b6200047f6200047962000472620002b6565b8362000798565b620002c0565b6080526200048c620002b6565b9062000798565b60a052620004a06200092b565b620004ad81600a6200037a565b34600091620004bc83620001ea565b82116200063b575b505050620000e590620005456207a12062000591620004e3826200016b565b600b926200054b8262000545620004f960405190565b62000529818b81016200051c81690757365725369676e75760b41b8152600a0190565b90810382520382620000a6565b6200053d62000536825190565b9160200190565b2087620003b9565b620003df565b50620005456200055a60405190565b6200057c818881016200051c81683832b920b739bbb2b960b91b815260090190565b6200058962000536825190565b2084620003b9565b620005d7620005a3620c35006200016b565b62000545620005b160405190565b6200057c818881016200051c816c616e737765724261736546656560981b8152600d0190565b620005e5620249f06200016b565b9262000626620005f460405190565b809281016200051c817f7472616e73666572546f6b656e5472616e73616374696f6e0000000000000000815260180190565b6200063362000536825190565b2090620003b9565b828092620006506200043d8484955062000237565b8282156200066f575bf1156200066957388080620004c4565b620003ad565b506108fc62000659565b9060ff9062000161565b9062000696620000f3620001a392151590565b825462000679565b620000e560008062000683565b9052565b60005b838110620006c35750506000910152565b8181015183820152602001620006b2565b620006f9620007036020936200028b93620006ed815190565b80835293849260200190565b95869101620006af565b601f01601f191690565b908152620000f39160408201915b6020818403910152620006d4565b3d1562000746576200073b3d6200028f565b903d6000602084013e565b606090565b156200075357565b60405162461bcd60e51b815260206004820152601360248201527f72616e646f6d42797465733a206661696c6564000000000000000000000000006044820152606490fd5b6000918291620007d4620007e173010000000000000000000000000000000000000193620007c560405190565b9283916020830195866200070d565b84810382520382620000a6565b51915afa620000f3620007f362000729565b916200074b565b634e487b7160e01b600052601160045260246000fd5b919082018092116200081e57565b620007fa565b90620003bb9062000237565b620000f36060620000ce565b80548210156200033c5762000333600391600052602060002090565b634e487b7160e01b600052600060045260246000fd5b906200020e620000f3620001a39290565b620000e59190620008d990604090600290620008ae81620008a787516001600160a01b031690565b9062000252565b620008c960018201620008c2602088015190565b906200086e565b019201516001600160401b031690565b90620003df565b9190620008f257620000e5916200087f565b62000858565b9081549168010000000000000000831015620000c8578262000924916001620000e5950181556200083c565b90620008e0565b620000f362000939620009c3565b81929150620009796001620000f36200096662000954835490565b6200095f84620001ea565b9062000810565b6200097387600262000824565b620001fa565b620009bd620009ad6000620009a76200099162000830565b6001600160a01b03891683820152956020870152565b6200016b565b6001600160401b03166040840152565b620008f8565b620009dd620009d36020620001ea565b6200048c620002b6565b62000a00620009f9620009f083620002c0565b92600462000f50565b5062000a03565b91565b62000a1c620000f39162000a15600090565b5062000a63565b9062000d7f565b9062000a2d825190565b8110156200033c570160200190565b62000a4f620000f3620000f39260ff1690565b60ff1690565b620000f39060f81c62000a3c565b90815160219062000a7c62000a7883620001ea565b9190565b0362000ae1578262000adb62000ad5620000f39362000aaf960151958387945062000aa86000620001ea565b9062000a23565b517fff000000000000000000000000000000000000000000000000000000000000001690565b62000a55565b62000b71565b604051636446a2c560e11b8152600490fd5b62000a4f620000f3620000f39290565b620000f36401000003d019620001ea565b634e487b7160e01b600052601260045260246000fd5b620000f363400000f4600160fe1b03620001ea565b620000f3620000f3620000f39260ff1690565b811562000b5d570690565b62000b14565b919082039182116200081e57565b919060029062000b818262000af3565b60ff851614158062000c48575b62000c365762000b9d62000b03565b90811562000b5d5781818009821562000b5d578291096007821562000b5d57828062000c0f9362000bd262000be594620001ea565b900862000bde62000b2a565b9062000c99565b9262000c0862000c0162000bfa869862000b3f565b8662000810565b91620001ea565b9062000b52565b62000c1f62000a786000620001ea565b0362000c29575050565b620000f392935062000b63565b60405163ab4be04160e01b8152600490fd5b5062000c55600362000af3565b60ff8516141562000b8e565b620000e7620000f3620000f39290565b620000f39062000c61565b620000f3600562000c71565b01918252565b620000f390620001ea565b6000928392909162000d0162000cae62000c7c565b93620007d460209162000cc183620001ea565b9562000ccc60405190565b95869485019780808a6200028b9462000c886020809998959662000c8882809962000c88828962000c88829b62000c889d9052565b51915afa62000d1862000d1362000729565b911590565b62000d3357620000f39062000d2d90620002c0565b62000c8e565b60405163102875ed60e01b8152600490fd5b620000f39062000d5d62000a78620000f39460ff1690565b901b90565b620000f39062000d7a62000a78620000f39460ff1690565b901c90565b62000df762000dd66200051c62000dc2620000f39562000dfd9562000da2600090565b5060405193849260208401928360208162000c886200028b938396959052565b62000dcf62000536825190565b2062000c8e565b606062000def62000de78262000af3565b809362000d45565b905062000d62565b62000c61565b6200022c565b634e487b7160e01b600052602160045260246000fd5b6009111562000e2457565b62000e03565b90620000e58262000e19565b620000f39062000e2a565b620006ab9062000e36565b91620000f3926200071b6040820193600083019062000e41565b1562000e6e57565b60405162461bcd60e51b815260206004820152601b60248201527f67656e207369676e696e67206b6579706169723a206661696c656400000000006044820152606490fd5b9092919262000ec66200029f826200026e565b938185526020850190828401116200010857620000e592620006af565b9080601f8301121562000108578151620000f39260200162000eb3565b919091604081840312620001085780516001600160401b03811162000108578362000f2d91830162000ee3565b60208201519093906001600160401b0381116200010857620000f3920162000ee3565b600062000fca92819262000f62606090565b50620007d462000f9a7301000000000000000000000000000000000000059362000f8b60405190565b92839160208301958662000e4c565b51915afa62000fb362000fac62000729565b9162000e66565b602062000fbe825190565b81830101910162000f00565b909156fe6080604052600436101561001257600080fd5b60003560e01c80630f40185f1461027e57806310c324de1461027957806313061fff14610274578063178f5310146101c557806317cfac6c1461026f578063273ca94c1461026a5780632a9eba29146102655780632f548912146102605780633408e4701461025b5780633704f60a1461025657806352cf979e146102515780635654bed31461024c5780635b7a167b146102475780636bc984e8146102425780636bdd72421461023d5780637038cb8714610238578063703a12a314610233578063760547911461022e57806379fa93ef146102295780637f145dde1461022457806383fac1be1461021f57806384f2501f1461021a57806386ea431b146102155780638e81853a14610210578063b8a30e991461020b578063be8f0cce14610206578063bf3a1e4314610201578063c09c1b23146101fc578063c439373c146101f7578063c7977be7146101f2578063c7d480fb146101ed578063d192bf78146101e8578063dc00e613146101e3578063dff840ef146101de578063f01593a9146101d9578063f90d333c146101d4578063fa178014146101cf578063fcf09b1b146101ca5763ff3a778903610283575b61061d565b6110a3565b61105a565b611012565b610fc3565b610f68565b610ee5565b610ec9565b610e94565b610df4565b610dd8565b610dc4565b610d73565b610d01565b610c56565b610c0a565b610b8b565b610b56565b610b23565b610b07565b610ab9565b610a62565b6109e7565b610999565b610967565b61092c565b6108aa565b610892565b610877565b610858565b610802565b6107d6565b610795565b610727565b610682565b6105db565b61055e565b6103fe565b600080fd5b634e487b7160e01b600052604160045260246000fd5b90601f01601f191681019081106001600160401b038211176102bf57604052565b610288565b906102d86102d160405190565b928361029e565b565b6001600160401b0381116102bf57602090601f01601f19160190565b0190565b90826000939282370152565b9092919261031b610316826102da565b6102c4565b93818552602085019082840111610283576102d8926102fa565b9080601f830112156102835781602061035093359101610306565b90565b908160a09103126102835790565b919060c083820312610283578235906001600160401b0382116102835761038d81610350938601610335565b93602001610353565b60005b8381106103a95750506000910152565b8181015183820152602001610399565b6103da6103e36020936102f6936103ce815190565b80835293849260200190565b95869101610396565b601f01601f191690565b6020808252610350929101906103b9565b346102835761042661041a610414366004610361565b90615509565b604051918291826103ed565b0390f35b805b0361028357565b905035906102d88261042a565b909182601f83011215610283578135916001600160401b03831161028357602001926020830284011161028357565b919061018083820312610283576104868184610433565b9260208101356001600160401b03811161028357826104a6918301610440565b92909360408301356001600160401b03811161028357826104c8918501610440565b92909360608101356001600160401b03811161028357826104ea918301610440565b92909360808301356001600160401b038111610283578261050c918501610440565b92909360a08101356001600160401b038111610283578261052e918301610440565b92909360c08301356001600160401b0381116102835761055383610350928601610440565b93909460e001610353565b346102835761042661041a61057436600461046f565b9c9b909b9a919a999299989398979497969596613dd1565b6001600160a01b031690565b6001600160a01b03811661042c565b905035906102d882610598565b919060c08382031261028357610350906105ce8185610353565b9360a0016105a7565b9052565b34610283576104266105f76105f13660046105b4565b906111e3565b60405191829182901515815260200190565b906020828203126102835761035091610433565b3461028357610426610638610633366004610609565b6114e9565b604051918291826001600160a01b03909116815260200190565b600091031261028357565b610350916008021c5b60ff1690565b90610350915461065d565b61035060008061066c565b3461028357610692366004610652565b6104266105f7610677565b909182601f83011215610283578135916001600160401b03831161028357602001926001830284011161028357565b91909160c081840312610283576106e38382610353565b9260a08201356001600160401b03811161028357610701920161069d565b9091565b929160206107226102d893604087019087820360008901526103b9565b940152565b346102835761074061073a3660046106cc565b91614f15565b9061042661074d60405190565b92839283610705565b6001600160401b03811661042c565b905035906102d882610756565b9190604083820312610283576103509061078c81856105a7565b93602001610765565b34610283576107ae6107a8366004610772565b90614b03565b604051005b919060408382031261028357610350906107cd8185610433565b936020016105a7565b34610283576104266107f26107ec3660046107b3565b90614a1d565b6040519182918290815260200190565b3461028357610812366004610652565b610426466107f2565b610100818303126102835761083082826105a7565b926103506108418460208501610433565b9361084f8160408601610433565b93606001610353565b346102835761042661041a61086e36600461081b565b929190916142e4565b346102835761042661063861088d366004610609565b615813565b34610283576107ae6108a5366004610609565b611439565b34610283576107ae6108bd366004610609565b611f35565b610350916008021c6001600160a01b031690565b9061035091546108c2565b610350600060056108d6565b6103509061058c906001600160a01b031682565b610350906108ed565b61035090610901565b6105d79061090a565b6020810192916102d89190610913565b346102835761093c366004610652565b6104266109476108e1565b6040519182918261091c565b906020828203126102835761035091610765565b34610283576107ae61097a366004610953565b6121ae565b9190604083820312610283576103509061078c8185610433565b34610283576107ae6109ac36600461097f565b90614c16565b919091604081840312610283576109c98382610433565b9260208201356001600160401b03811161028357610701920161069d565b6107ae6109f53660046109b2565b91614846565b90610a1b610a14610a0a845190565b8084529260200190565b9260200190565b9060005b818110610a2c5750505090565b909192610a49610a426001928651815260200190565b9460200190565b929101610a1f565b6020808252610350929101906109fb565b3461028357610426610a7d610a78366004610609565b6157fc565b60405191829182610a51565b909160608284031261028357610350610aa28484610433565b93610ab08160208601610433565b93604001610765565b34610283576107ae610acc366004610a89565b91614d62565b9190604083820312610283578235906001600160401b03821161028357610afe81610350938601610335565b93602001610433565b346102835761042661041a610b1d366004610ad2565b9061509a565b346102835761042661041a610b3936600461081b565b9291909161440e565b9060208282031261028357610350916105a7565b3461028357610426610b71610b6c366004610b42565b614aec565b604051918291826001600160401b03909116815260200190565b610b96366004610652565b6107ae6122a6565b9060a0828203126102835761035091610353565b90610bc1610a14610a0a845190565b9060005b818110610bd25750505090565b909192610bf1610a4260019286516001600160a01b0316815260200190565b929101610bc5565b602080825261035092910190610bb2565b3461028357610426610c25610c20366004610b9e565b61205a565b60405191829182610bf9565b906020828203126102835781356001600160401b038111610283576103509201610335565b3461028357610426610b71610c6c366004610c31565b611d6e565b919060c083820312610283576103509061038d8185610433565b90610c9a610a14610a0a845190565b9060005b818110610cab5750505090565b909192610cd6610a426001928651805182526020908101516001600160a01b03169082015260400190565b929101610c9e565b6001600160a01b0390911681526103509160408201916020818403910152610c8b565b3461028357610d1a610d14366004610c71565b90615665565b90610426610d2760405190565b92839283610cde565b909160e08284031261028357610d468383610433565b926020830135906001600160401b03821161028357610d6a81610350938601610335565b93604001610353565b346102835761042661041a610d89366004610d30565b916153e6565b91909160408184031261028357610da68382610433565b9260208201356001600160401b038111610283576103509201610335565b6107ae610dd2366004610d8f565b90614a63565b346102835761042661041a610dee366004610ad2565b90614fe1565b3461028357610e04366004610652565b6104267f8b73c3c69bb8fe3d512ecc4cf759cc79239f7b179b0ffacaa9a75d522b39400f6107f2565b90610e3a610316836102da565b918252565b610e496021610e2d565b7f5369676e496e286164647265737320757365722c75696e743235362074696d656020820152602960f81b604082015290565b610350610e3f565b610350610e7c565b610350610e84565b3461028357610ea4366004610652565b61042661041a610e8c565b91906040838203126102835761035090610afe8185610433565b3461028357610426610638610edf366004610eaf565b90612401565b34610283576104266107f2610efb366004610609565b6157e1565b9060e08282031261028357610f158183610433565b9260208301356001600160401b03811161028357610f388361035092860161069d565b939094604001610353565b6040808252610350939192610f5a918401906103b9565b9160208184039101526103b9565b3461028357610f84610f7b366004610f00565b929190916151d9565b90610426610f9160405190565b92839283610f43565b610fa5610350610e84565b610fb7610fb0825190565b9160200190565b2090565b610350610f9a565b3461028357610fd3366004610652565b6104266107f2610fbb565b90816101a09103126102835790565b91906102408382031261028357610350906110088185610fde565b936101a001610353565b346102835761042661041a611028366004610fed565b90612796565b9190604083820312610283578235906001600160401b0382116102835761078c81610350938601610335565b34610283576107ae61106d36600461102e565b90611e1c565b90916060828403126102835761035061108c8484610433565b9361109a81602086016105a7565b93604001610433565b346102835761042661041a6110b9366004611073565b91614237565b909594926102d8946110f16110f8926110ea6080966110e360a088019c6000890152565b6020870152565b6040850152565b6060830152565b01906001600160a01b03169052565b356103508161042a565b6103506103506103509290565b634e487b7160e01b600052601160045260246000fd5b9190820391821161114157565b61111e565b3561035081610598565b9081526001600160a01b0390911660208201526060810192916102d89160400152565b0152565b6020809392611194610e3a6102f69461190160f01b815260020190565b01918252565b6106666103506103509290565b6111736102d8946111d06060949897956111c6608086019a6000870152565b60ff166020850152565b6040830152565b6040513d6000823e3d90fd5b906112737f8b73c3c69bb8fe3d512ecc4cf759cc79239f7b179b0ffacaa9a75d522b39400f7f1a7269e4dc8453fd670842087ab5e2c2fc4976430b8d8d6dcb3d1f00df9e8ab9906112677fc89efdaa54c0f20c7adf612882df0950f5a951637e0307cdcb4c672f298b8bc6944661125960405190565b9687956020870195866110bf565b9081038252038261029e565b61127e610fb0825190565b2090602081019161128e83611107565b6112ae6112aa610350426112a462015180611111565b90611134565b9190565b106113ae57602091604061126761131f6000946112c9610f9a565b6112fc878701996112e26112dc8c611146565b91611107565b926112676112ef60405190565b9485938d85019384611150565b611307610fb0825190565b209061131260405190565b9384928984019283611177565b61132a610fb0825190565b2091019061136f61134561134060408501611107565b61119a565b9261135c86611355878401611107565b9201611107565b9061136660405190565b948594856111a7565b838052039060015afa156113a9576113a561139861058c61139260005160001b90565b93611146565b916001600160a01b031690565b1490565b6111d7565b505050600090565b6103509061058c565b61035090546113b6565b905051906102d882610598565b9060208282031261028357610350916113c9565b1561028357565b906113fb90611111565b600052602052604060002090565b906001600160a01b03905b9181191691161790565b9061142e6103506114359261090a565b8254611409565b9055565b339061146a602061145261144d60056113bf565b61090a565b63685cc9cd9061146160405190565b93849260e01b90565b825260049082905afa9283156113a95761149d6113986102d8956114a3946000916114bb575b506001600160a01b031690565b146113ea565b6114b66114ae611693565b9160066113f1565b61141e565b6114dc915060203d81116114e2575b6114d4818361029e565b8101906113d6565b38611490565b503d6114ca565b611500610350916114f8600090565b5060066113f1565b6113bf565b9190820180921161114157565b906113fb9061090a565b9060001990611414565b9061153661035061143592611111565b825461151c565b61035060606102c4565b6115546103506103509290565b6001600160401b031690565b634e487b7160e01b600052603260045260246000fd5b805482101561159957611590600391600052602060002090565b91020190600090565b611560565b634e487b7160e01b600052600060045260246000fd5b906115366103506114359290565b906001600160401b0390611414565b611554610350610350926001600160401b031690565b906115f7610350611435926115d1565b82546115c2565b6102d89190611650906040906002906116288161162287516001600160a01b031690565b9061141e565b6116406001820161163a602088015190565b906115b4565b019201516001600160401b031690565b906115e7565b9190611665576102d8916115fe565b61159e565b90815491600160401b8310156102bf578261168d9160016102d895018155611576565b90611656565b61035061169e61175b565b6116d360019392936103506116c36116b4835490565b6116bd84611111565b90611505565b6116ce876002611512565b611526565b61170f6116ff60006116fa6116e661153d565b6001600160a01b03891683820152956110e3565b611547565b6001600160401b03166040840152565b61166a565b6103506000610e2d565b610350611714565b611738611734610a14835190565b5190565b9060208110611745575090565b61175790600019906020036008021b90565b1690565b6117766117686020611111565b61177061171e565b90611b5b565b61179361178d61178583611726565b926004611cca565b50611796565b91565b6117ab610350916117a5600090565b506117e4565b90611a90565b906117ba825190565b811015611599570160200190565b6106666103506103509260ff1690565b6103509060f81c6117c8565b9081516021906117f66112aa83611111565b03611837578261183261182d6103509361181f9601519586936118196000611111565b906117b1565b516001600160f81b03191690565b6117d8565b6118a4565b604051636446a2c560e11b8152600490fd5b0390fd5b6103506401000003d019611111565b634e487b7160e01b600052601260045260246000fd5b61035063400000f4600160fe1b03611111565b6103506103506103509260ff1690565b811561189f570690565b61185c565b91906002906118b28261119a565b60ff851614158061195e575b61194c576118ca61184d565b90811561189f5781818009821561189f578291096007821561189f57828061192b936118f861190894611111565b9008611902611872565b906119bc565b9261192561191f6119198698611885565b86611505565b91611111565b90611895565b6119386112aa6000611111565b03611941575050565b610350929350611134565b60405163ab4be04160e01b8152600490fd5b50611969600361119a565b60ff851614156118be565b61058c6103506103509290565b61035090611974565b6103506005611981565b3d156119ae576119a33d610e2d565b903d6000602084013e565b606090565b61035090611111565b60009283929091611a236119ce61198a565b93611a176020916119de83611111565b956119e860405190565b95869485019780808a6102f694611194602080999895966111948280996111948289611194829b6111949d9052565b8481038252038261029e565b51915afa611a37611a32611994565b911590565b611a4c57611a4761035091611726565b6119b3565b60405163102875ed60e01b8152600490fd5b61035090611a726112aa6103509460ff1690565b901b90565b61035090611a8b6112aa6103509460ff1690565b901c90565b611af5611adc611267611acb61035095611afa95611aac600090565b506040515b9384926020840192836020816111946102f6938396959052565b611ad6610fb0825190565b206119b3565b611af0611ae9606061119a565b8092611a5e565b611a77565b611974565b610901565b9081526103509160408201915b60208184039101526103b9565b15611b2057565b60405162461bcd60e51b81526020600482015260136024820152721c985b991bdb509e5d195cce8819985a5b1959606a1b6044820152606490fd5b6000918291611a17611b866001600160981b0193611b7860405190565b928391602083019586611aff565b51915afa610350611b95611994565b91611b19565b634e487b7160e01b600052602160045260246000fd5b60091115611bbb57565b611b9b565b906102d882611bb1565b61035090611bc0565b6105d790611bca565b9161035092611b0c60408201936000830190611bd3565b15611bfa57565b60405162461bcd60e51b815260206004820152601b60248201527f67656e207369676e696e67206b6579706169723a206661696c656400000000006044820152606490fd5b90929192611c4f610316826102da565b93818552602085019082840111610283576102d892610396565b9080601f8301121561028357815161035092602001611c3f565b9190916040818403126102835780516001600160401b0381116102835783611cac918301611c69565b9260208201516001600160401b038111610283576103509201611c69565b6000610701928192611cda606090565b50611a17611d016005600160981b0193611cf360405190565b928391602083019586611bdc565b51915afa611d16611d10611994565b91611bf3565b6020611d20825190565b818301019101611c83565b6102f6611d4392602092611d3d815190565b94859290565b93849101610396565b61035091611d2b565b906113fb565b61035090611554565b6103509054611d5b565b611daf61035091611d7d600090565b50600b90611d9d611d8d60405190565b8092611267602083019182611d4c565b611da8610fb0825190565b2090611d55565b611d64565b61042c816113b6565b905051906102d882611db4565b906020828203126102835761035091611dbd565b80151561042c565b905051906102d882611dde565b906020828203126102835761035091611de6565b9081526040810192916102d8916020906110f8565b90611e3e6020611e2f61144d60056113bf565b63e22b45f19061146160405190565b825260049082905afa80156113a957611e5f91600091611f07575b5061090a565b9160206391d148549360008051602061582383398151915290611e963396611ea1611e8960405190565b9889958694859460e01b90565b845260048401611e07565b03915afa9081156113a957611ec5611ed4926102d895600091611ed9575b506113ea565b600b90611d9d611d8d60405190565b6115e7565b611efa915060203d8111611f00575b611ef2818361029e565b810190611df3565b38611ebf565b503d611ee8565b611f28915060203d8111611f2e575b611f20818361029e565b810190611dca565b38611e59565b503d611f16565b611f476020611e2f61144d60056113bf565b825260049082905afa80156113a957611f6791600091611f07575061090a565b9060206391d148549260008051602061582383398151915290611e963395611f9e611f9160405190565b9788958694859460e01b90565b03915afa9182156113a9576102d892611fbe91600091611ed957506113ea565b6004611526565b90611fe0611fd4610a0a845490565b92600052602060002090565b9060005b818110611ff15750505090565b90919261201e612017600192612006876113bf565b6001600160a01b0316815260200190565b9460010190565b929101611fe4565b9061035091611fc5565b906102d861204a9261204160405190565b93848092612026565b038361029e565b61035090612030565b61206c602061145261144d60056113bf565b825260049082905afa9081156113a957612097916120939160009161215e575b50836111e3565b1590565b61214c576120ad6020611e2f61144d60056113bf565b825260049082905afa9081156113a9576020916120d191600091612135575061090a565b916391d1485492611e966120f660006000805160206158238339815191529401611146565b9461211061210360405190565b9687958694859460e01b90565b03915afa80156113a95761212b91600091611ed957506113ea565b610350600a612051565b611f289150833d8111611f2e57611f20818361029e565b604051635e3c632560e01b8152600490fd5b612176915060203d81116114e2576114d4818361029e565b3861208c565b906fffffffffffffffff00000000000000009060401b611414565b906121a7610350611435926115d1565b825461217c565b6121c06020611e2f61144d60056113bf565b825260049082905afa80156113a9576121e091600091611f07575061090a565b9060206391d148549260008051602061582383398151915290611e96339561220a611f9160405190565b03915afa9182156113a9576102d89261222a91600091611ed957506113ea565b6003612197565b805482101561159957611590600191600052602060002090565b916001600160a01b0360089290920291821b911b611414565b91906122756103506114359361090a565b90835461224b565b90815491600160401b8310156102bf57826122a09160016102d895018155612231565b90612264565b6122b86020611e2f61144d60056113bf565b825260049082905afa80156113a9576122d891600091611f07575061090a565b60206391d148549160008051602061582383398151915290611e96339461230161210360405190565b03915afa80156113a95761231c91600091611ed957506113ea565b612324611693565b61232f81600a61227d565b7f486311bbaec8c22afaf10c0398245071a2790d613d99d80cb5d6eb7f3712a26b61235960405190565b6001600160a01b0383168152602090a16000903461237683611111565b811161238157505050565b8280929161239261144d839461090a565b8282156123a2575bf1156113a957565b506108fc61239a565b9160001960089290920291821b911b611414565b91906123d061035061143593611111565b9083546123ab565b90815491600160401b8310156102bf57826123fb9160016102d895018155612231565b906123bf565b3390600061242661241461058c83611981565b6001600160a01b0385165b14156113ea565b612447602061243861144d60056113bf565b63fbcb54ef9061146160405190565b825260049082905afa80156113a95761246d9183916114bb57506001600160a01b031690565b6001600160a01b038416149283156124b8575b505061248e610350926113ea565b6124b361035061249c611693565b946124ac866114b68660076113f1565b60086113f1565b6123d8565b6124e591935060206124cd61144d60056113bf565b632f03372c906124dc60405190565b94859260e01b90565b825260049082905afa9182156113a95761139861248e936125169261035097916114bb57506001600160a01b031690565b1492612480565b600a815260209081015b690757365725369676e75760b41b81520190565b6020808252610350910161251d565b6105d7906001600160a01b031660601b90565b01809261254a565b61257e6125786103509263ffffffff1690565b60e01b90565b6001600160e01b03191690565b506103509060208101906105a7565b50610350906020810190610433565b60ff811661042c565b905035906102d8826125a9565b506103509060208101906125b2565b9061018061270d6102d8936125f66125e9600083018361258b565b6001600160a01b03168552565b61260d612606602083018361259a565b6020860152565b61262461261d604083018361259a565b6040860152565b61263b612634606083018361259a565b6060860152565b61265261264b608083018361259a565b6080860152565b61266c61266260a08301836125bf565b60ff1660a0860152565b61268661267c60c08301836125bf565b60ff1660c0860152565b6126a061269660e08301836125bf565b60ff1660e0860152565b6126b96126b161010083018361259a565b610100860152565b6126d26126ca61012083018361259a565b610120860152565b6126eb6126e361014083018361259a565b610140860152565b6127046126fc61016083018361259a565b610160860152565b8281019061259a565b910152565b6101a0810192916102d891906125ce565b6001600160a01b039091168152610350916040820191611b0c565b6103509081565b610350905461273e565b6103509060401c611554565b610350905461274f565b600a90612527565b61035090612765565b61035060e06102c4565b610350610350610350926001600160401b031690565b906127a461144d60056113bf565b63685cc9cd9060206127b560405190565b80926127c18560e01b90565b825260049082905afa9081156113a9576127e89161209391600091612b21575b50846111e3565b61214c576127f961144d60056113bf565b9263a3974b2193602061280b60405190565b80926128178860e01b90565b825260049082905afa80156113a95761283d60209161284c93600091612135575061090a565b63484e08b29061146160405190565b8252818061285c6004820161253b565b03915afa80156113a95761287791600091611ed957506113ea565b6128fc60206112676128da6128af60007f00000000000000000000000000000000000000000000000000000000000000009801611146565b42906128ba60405190565b938492868401928b8460209392611194858361255d6014956102f6979052565b6128e5610fb0825190565b20956128f461144d60056113bf565b604051611461565b825260049082905afa9283156113a95761295660049360209361296b96612b06575b5061294861292f63bb46e7ff612565565b9161293960405190565b96879387850190815201612712565b84820181038252038461029e565b61296361144d60056113bf565b6040516124dc565b825260049082905afa80156113a9578492600091612ae8575b50604051918291602083019161299a9183612723565b9081038252036129aa908261029e565b6129b261171e565b916129bc93613912565b906129ca63c09c1b23612565565b906129d460405190565b92839260208401908152600401916129eb92611aff565b6020820181038252036129fe908261029e565b612a06613a91565b90612a10826113bf565b91612a1d60018201612745565b90600201612a2a90611d64565b91612a35600361275b565b90600b612a4160405190565b8060208101612a4f8161276d565b908103825203612a5f908261029e565b80519060200120612a6f91611d55565b612a7890611d64565b612a813061090a565b6000914694612a8e612776565b6001600160401b0390981684890152612aa690612780565b60208801526001600160401b031660408701526001600160a01b03166060860152612ad090611111565b608085015260a084015260c083015261035092612b52565b612b00915060203d81116114e2576114d4818361029e565b38612984565b612b1c90853d8111611f2e57611f20818361029e565b61291e565b612b39915060203d81116114e2576114d4818361029e565b386127e1565b8181029291811591840414171561114157565b6103509291612b619183612e31565b90612bac604083016105d7612ba2612b84612b7a845190565b6112a4601b611111565b6116bd612b9260c088015190565b612b9c6002611111565b90612b3f565b6116bd6023611111565b612c2f565b6001600160401b0381116102bf5760208091020190565b90610e3a61031683612bb1565b60005b828110612be457505050565b606082820152602001612bd8565b906102d8612c08612c0284612bc8565b93612bb1565b601f190160208401612bd5565b90612c1e825190565b811015611599576020809102010190565b612e07612d9d612df8612c9b611a47602061035097612df2612dec612dd7612c9b611a47612dd09c612c5f606090565b50612c72612c6d6009611111565b612bf2565b9d8e612da3612d9d612d8860a0612ca0612c9b612c9689516001600160401b031690565b612780565b61345d565b96600097612cb6612cb08a611111565b88612c15565b52612cc9612cc389611111565b87612c15565b5150612cfa8f612cdf612c9b612cc39285015190565b600190612cf4612cee83611111565b8b612c15565b52611111565b50612d2a612cc3612d1b612c9b612c9660408601516001600160401b031690565b600290612cf4612cee83611111565b50612d5c612cc3612d4d612d4860608501516001600160a01b031690565b613438565b600390612cf4612cee83611111565b50612d80612cc3612d71612c9b608085015190565b600490612cf4612cee83611111565b500151613380565b600590612cf4612d9783611111565b86612c15565b82612c15565b50612dca612db5612c9b60408c015190565b600690612cf4612dc483611111565b85612c15565b90612c15565b5086015190565b600790612cf4612de683611111565b8d612c15565b89612c15565b50015190565b600890612cf4612d9783611111565b506133ff565b612e1561153d565b600080825260208201819052604082015290565b610350612e0d565b91612e7461035093612e41612e29565b5060c081015190612bac600092612e6d612e5961153d565b94612606612e6682611111565b8092880152565b6040840152565b612e80611d8d60405190565b612e8b610fb0825190565b20919291612f02612efd6102d893612ea1612e29565b50600490612ec7612eb160405190565b80926112676020830191826102f6816020939052565b60405190612eef8260208101612ee389826102f6816020939052565b9081038252038361029e565b612ef761171e565b926139d3565b612f3b565b908194613279565b612f1d612f176103509290565b60f81b90565b6001600160f81b03191690565b61035090611a8b6112aa6103509490565b612f43612e29565b918291612f4e815190565b90600891612f5e6112aa84611111565b1061326757600094612f7b61181f612f7588611111565b846117b1565b612f96612f886030612f0a565b916001600160f81b03191690565b03613267576002612fb261181f612fac83611111565b856117b1565b612fbe612f8883612f0a565b0361326757600196612fe6612fe161182d61181f612fdb8c611111565b886117b1565b611885565b94613003612fe161182d61181f612ffd6003611111565b896117b1565b94602161300f81611111565b8711613267578a6130399561304a612fe161182d61181f612fdb61304461303e8f60049e8f611111565b611505565b97611111565b87611505565b9961305484611111565b8b1161325a5761306761181f84876117b1565b613073612f8884612f0a565b0361325a5761308e6130858c8c611505565b6116bd8a611111565b81900361325a576130b06112aa6103506130a6885190565b936116bd86611111565b0361324d57906116bd6130c292611111565b9a8b956130ce81611111565b926130d881611111565b8a14613205575b6130e890611111565b8a14613196575b50506102d898999a50613100600090565b506020018101519360200101519560209561311a87611111565b8110613171575b5061312b86611111565b811061313b575b50508201520152565b956131626131689261315d61191f61117397969a6131588b611111565b611134565b612b3f565b90612f2a565b94909138613132565b9361316261318661318f93966131588a611111565b61315d85611111565b9238613121565b90919895506131a861181f8d856117b1565b6131b4612f8887612f0a565b036131e657506102d898999a6131d66131cf6131dc93611111565b8092611505565b95611134565b968a9998386130ef565b611849906131f360405190565b6386cd05c560e01b8152918291820190565b989261321461181f82876117b1565b613220612f8889612f0a565b03613240576132386130e8916131d66131cf86611111565b9990506130df565b611849826131f360405190565b611849876131f360405190565b611849886131f360405190565b6040516386cd05c560e01b8152600490fd5b9190613285601b611111565b9161329260408201938452565b61329d611340845190565b916020600083826132ac825190565b9101956132c76132ba885190565b60405193849388856111a7565b838052039060015afa156113a9576000516132ea6001600160a01b038716611398565b036132f7575b5050505050565b61332760009361135c61332261331d611340602099611734613319601c611111565b8252565b955190565b915190565b838052039060015afa156113a9576000519061334b906001600160a01b0316611398565b0361335a5738808080806132f0565b604051634532600d60e01b8152600490fd5b61337a906103509392611d2b565b90611d2b565b805161338f6112aa6001611111565b14806133d1575b1561339e5790565b610350816133c06133b0611267945190565b6133ba6080611111565b906134ea565b60405193849260208401928361336c565b506133e561182d61181f612f756000611111565b6133f96133f2608061119a565b9160ff1690565b10613396565b61035061341761126792613411606090565b50613714565b6133c0613422825190565b6133ba60c0611111565b6102f68160149361254a565b6103509061345861344860405190565b809261126760208301918261342c565b613380565b6134586103509161346c606090565b5061365f565b811561189f570490565b60001981146111415760010190565b369037565b906102d86134a66134a084610e2d565b936102da565b601f19016020840161348b565b6134bf9060ff166133f2565b019060ff821161114157565b612f1d612f176103509260ff1690565b601f8111611141576101000a90565b906134f56038611111565b821015613549576135456135366135316135176135126001611111565b613490565b9361352b613525869761119a565b9161119a565b906134b3565b6134cb565b91611819600093841a93611111565b5390565b906000906001908161355a81611111565b905b61361d575b5061357761351261357184611111565b85611505565b9061359961353161358f849761352b6135258961119a565b61352b603761119a565b93600094851a6135ab612fac87611111565b53836135b681611111565b905b6135c6575b50505050505090565b81811161361857806136006135316113406135f56135ef6135ea6136129789611134565b6134db565b88613472565b611925610100611111565b871a61360c82876117b1565b5361347c565b846135b8565b6135bd565b926136288483613472565b6136356112aa6000611111565b1461365957613653613647849261347c565b94612b9c610100611111565b9061355c565b92613561565b61366b612eb160405190565b60009161367783611111565b6136816020611111565b81101561370c5761369561181f82856117b1565b6136a1612f8886612f0a565b036136b4576136af9061347c565b613677565b9190915b6136c9613512826131586020611111565b916136d385611111565b6136de610350855190565b811015613704576136ff9061360061181f6136f88661347c565b95856117b1565b6136d3565b509193505050565b9190916136b8565b8051906000916137266112aa84611111565b146137eb576000928361373884611111565b945b613745610350855190565b8610156137715761376561376b916116bd6137608988612c15565b515190565b9561347c565b9461373a565b61377e9194929550613490565b92602084019461378d83611111565b955b61379a610350865190565b8710156137e2576137d66137dc916137c96137b58a89612c15565b516137c260208201915190565b908361380b565b6116bd6137608a89612c15565b9661347c565b9561378f565b50945050505090565b5061351261035091611111565b906138066112aa6103509390565b900a90565b9091905b602061381a81611111565b831061384f57613848916138376131cf61383d9387518452611111565b94611505565b916112a46020611111565b909161380f565b50919061387f61388e91613861600090565b5061387a61191f610100926138766020611111565b0390565b6137f8565b6138896001611111565b900390565b905182518216911916179052565b92906138c6916138b961035096946110e360808801946000890152565b84820360408601526103b9565b9160608184039101526103b9565b156138db57565b60405162461bcd60e51b815260206004820152600f60248201526e195b98dc9e5c1d0e8819985a5b1959608a1b6044820152606490fd5b60009391926139498594613924606090565b50611a176003600160981b015b9561393b60405190565b94859360208501978861389c565b51915afa610350613958611994565b916138d4565b9261398a6138c692610350969461397d60808801926000890190611bd3565b86820360208801526103b9565b9084820360408601526103b9565b1561399f57565b60405162461bcd60e51b815260206004820152600c60248201526b1cda59db8e8819985a5b195960a21b6044820152606490fd5b6000939192613a0985946139e5606090565b50611a176006600160981b01956139fb60405190565b94859360208501978861395e565b51915afa610350613a18611994565b91613998565b613a3a613a2c610a14835190565b516001600160f01b03191690565b9060028110613a47575090565b6117579061ffff60f01b906002036008021b90565b613a6d6103506103509261ffff1690565b61ffff1690565b6103509060f01c613a5c565b6103506103506103509261ffff1690565b610350613adf613ad9613ab7613ab2613aad6117686002611111565b613a1e565b613a74565b613ad3600a91613ace613ac8845490565b91613a80565b611895565b90612231565b906108d6565b613b20613af8613af3610350936002611512565b612745565b613b0b613b056000611111565b8261241f565b613b1a6001916112a483611111565b90611576565b5090565b9037565b8183529091602001916001600160fb1b03811161028357829160206102f69202938491613b24565b818352602090920191906000825b828210613b6c575050505090565b90919293613b95613b8e600192613b8388866125bf565b60ff16815260200190565b9560200190565b93920190613b5e565b906103509291613b28565b9035601e1936839003018112156102835701602081359101916001600160401b03821161028357602082023603831361028357565b818352916020019081613bf46020830284019490565b92836000925b848410613c0a5750505050505090565b9091929394956020613c37613c308385600195038852613c2a8b88613ba9565b90613b9e565b9860200190565b940194019294939190613bfa565b60031115611bbb57565b906102d882613c45565b61035090613c4f565b6105d790613c59565b906102f681602093613c62565b6003111561028357565b905035906102d882613c78565b50610350906020810190613c82565b818352602090920191906000825b828210613cba575050505090565b90919293613cd6613b8e600192613cd18886613c8f565b613c6b565b93920190613cac565b9e9d9b98918f9396613d5f986102d89f9a93613d519760e09f99613d6d9f9b89613d2791613d4398613d1a613d359760006101008601950152565b8c830360208e0152613b28565b9189830360408b0152613b28565b918683036060880152613b50565b926080818503910152613b50565b918b830360a08d0152613bde565b9188830360c08a0152613c9e565b9401906001600160a01b03169052565b613d98906001600160401b03165b916001600160401b031690565b02906001600160401b03821691820361114157565b613dbf906001600160401b0316613d8b565b01906001600160401b03821161114157565b999298919a9395969c97909b949c613de7606090565b50613dfa602061145261144d60056113bf565b825260049082905afa9081156113a957613e219161209391600091614208575b508b6111e3565b61214c57613e50976020613e3861144d60056113bf565b63a3974b2190613e4760405190565b9b8c9260e01b90565b825260049082905afa80156113a957613e76602091613e859b600091612135575061090a565b63484e08b290613e4760405190565b825260206004830152601060248301526f3ab9b2b929bab93b32bca0b739bbb2b960811b604483015260649082905afa9889156113a957613f8699613ed191600091611ed957506113ea565b613ef7613edd8d6157e1565b613ef16112aa670de0b6b3a7640000611111565b116113ea565b611267613f52613f068c611146565b4290613f1160405190565b93849260208401927f00000000000000000000000000000000000000000000000000000000000000008460209392611194858361255d6014956102f6979052565b613f5d610fb0825190565b209e6020613f6e61144d60056113bf565b630c23863b90613f7d60405190565b9c8d9260e01b90565b825260049082905afa9889156113a9578f9c8f9a9b8f9c6141ec575b50613fb06357d69a10612565565b9c613fba90611146565b9a613fc460405190565b9e8f9e8f6020019081526004019d613fdb9e613cdf565b602082018103825203613fee908261029e565b613ff860056113bf565b6140019061090a565b9063fbcb54ef9161401160405190565b60e09390931b8352826004815a93602094fa80156113a95786926000916141ce575b5060405191829160208301916140499183612723565b908103825203614059908261029e565b61406161171e565b907f00000000000000000000000000000000000000000000000000000000000000009261408d93613912565b9361409b63c09c1b23612565565b906140a560405190565b95869260208401908152600401916140bc92611aff565b6020820181038252036140cf908561029e565b6140d890614226565b906140e2826113bf565b936140ef60018401612745565b926002016140fc90611d64565b93614107600361275b565b92600b9161411460405190565b806020810161413281683832b920b739bbb2b960b91b815260090190565b908103825203614142908261029e565b805190602001206141539084611d55565b61415c90611d64565b916141679150611547565b61417091613d7d565b9061417a60405190565b806020810161419c816c616e737765724261736546656560981b8152600d0190565b9081038252036141ac908261029e565b805190602001206141bc91611d55565b6141c590611d64565b612a7891613dad565b6141e6915060203d81116114e2576114d4818361029e565b38614033565b6142039060203d8111611f2e57611f20818361029e565b613fa2565b614220915060203d81116114e2576114d4818361029e565b38613e1a565b613adf6115006103509260076113f1565b6142669291903390602061424e61144d60056113bf565b63fbcb54ef9061425d60405190565b97889260e01b90565b825260049082905afa9081156113a95761429f6142be9361149d611398611500956103509a6000916114bb57506001600160a01b031690565b60076142b96142b161150084846113f1565b879031613ef1565b6113f1565b906001926145f5565b6001600160a01b0390911681526040810192916102d89160200152565b90926142f8602061145261144d60056113bf565b825260049082905afa9081156113a95761431e916120939160009161215e5750836111e3565b61214c5761434490602061433561144d60056113bf565b63a3974b21906124dc60405190565b825260049082905afa9081156113a95761436960209287946000916143d6575061090a565b61438a61437d600063560693329401611146565b9261439561210360405190565b8452600484016142c7565b03915afa80156113a957610350946143bb611500926143c294600091611ed957506113ea565b60066113f1565b906143ce838331613ef1565b6000926145f5565b611f289150843d8111611f2e57611f20818361029e565b905051906102d88261042a565b9060208282031261028357610350916143ed565b9092614422602061145261144d60056113bf565b825260049082905afa9081156113a957614448916120939160009161215e5750836111e3565b61214c5761446e90602061445f61144d60056113bf565b630c23863b906124dc60405190565b825260049082905afa80156113a9576144946020916144a394600091612135575061090a565b63648aa5eb906124dc60405190565b82526004820188905260249082905afa9182156113a957600092614548575b506144d690602061433561144d60056113bf565b825260049082905afa9182156113a9576020926144fa916000916143d6575061090a565b61438a61450e600063560693329401611146565b9261451b61210360405190565b03915afa80156113a95761035094614541611500926143c294600091611ed957506113ea565b60076113f1565b6144d691925061456e9060203d8111614575575b614566818361029e565b8101906143fa565b91906144c2565b503d61455c565b6105d79061119a565b6001600160a01b0390911681526040810192916102d8916020019061457c565b906102d86116ff60026145b661153d565b946145d06145c3826113bf565b6001600160a01b03168752565b6145e66145df60018301612745565b6020880152565b01611d64565b610350906145a5565b91906146e26146dd600493614608606090565b50613adf7f00000000000000000000000000000000000000000000000000000000000000006146ce6146a761126761466b428a61464460405190565b9384928a60208501938a859261119460146102f69461255d60208861255d829b9a86999052565b614676610fb0825190565b209260019861469861468760405190565b80926112678d602084019283614585565b846146a161171e565b92613912565b6146b463703a12a3612565565b926146be60405190565b998a946020860190815201611aff565b6020820181038252038661029e565b6145ec565b93156147e45761470f9061470961470360408701516001600160401b031690565b91611547565b90613dad565b915b83516001600160a01b03166020909401519161472d600361275b565b91600b61473960405190565b806020810161476b817f7472616e73666572546f6b656e5472616e73616374696f6e0000000000000000815260180190565b90810382520361477b908261029e565b8051906020012061478b91611d55565b61479490611d64565b61479d3061090a565b9046946147a8612776565b6001600160401b0390981688526147be90612780565b60208801526001600160401b031660408701526001600160a01b03166060860152612ad0565b5060408301516001600160401b031691614711565b610350913691610306565b9190604083820312610283576103509061481e81856113c9565b936020016143ed565b6001600160a01b0390911681526040810192916102d8916020906110f8565b6102d8926116ce61491892611267611d9d6148bc611e596148a75a99339661489861487089613adf565b9a7f0000000000000000000000000000000000000000000000000000000000000000936147f9565b906148a161171e565b92614964565b60206148b1825190565b818301019101614804565b6148fe6148cb61144d8361090a565b96600080808034809c82821561491d575bf15061165060026148ed6001611547565b9201916148f983611d64565b613dad565b60099361490a60405190565b938492602084019283614827565b61499c565b506108fc6148dc565b1561492d57565b60405162461bcd60e51b815260206004820152600f60248201526e191958dc9e5c1d0e8819985a5b1959608a1b6044820152606490fd5b60009391926149878594614976606090565b50611a176004600160981b01613931565b51915afa610350614996611994565b91614926565b6149a53061090a565b316000916149b283611111565b82116149bd57505050565b6149e26149db6149d06149e9935a611134565b6116bd614e20611111565b3a90612b3f565b4890611505565b81811115614a1657505b6149fc82611111565b8111614a06575050565b8180809261239261144d3361090a565b90506149f3565b613af390611267611d9d61035094614a33600090565b50614a4461150060099560076113f1565b60405161490a565b91909160408184031261028357611cac83826113c9565b6149186102d892600080614ac8614ac1614aac5a97614a8133613adf565b967f0000000000000000000000000000000000000000000000000000000000000000916148a161171e565b6020614ab6825190565b818301019101614a4c565b919061090a565b9034602082019151925af150614adc611994565b5061165060026148ed6001611547565b60026145e661035092614afd600090565b50613adf565b90614b166020611e2f61144d60056113bf565b825260049082905afa80156113a957614b3691600091611f07575061090a565b60206391d148549160008051602061582383398151915290611e963394614b5f61210360405190565b03915afa80156113a9576102d893613adf614b8492600294600091611ed957506113ea565b016115e7565b90929192614b9a61031682612bb1565b938185526020808601920283019281841161028357915b838310614bbe5750505050565b60208091614bcc84866143ed565b815201920191614bb1565b9080601f8301121561028357815161035092602001614b8a565b906020828203126102835781516001600160401b038111610283576103509201614bd7565b90614c42916020614c2a61144d60056113bf565b63a3974b2190614c3960405190565b95869260e01b90565b825260049082905afa80156113a957614c67600091614c9f958391611f07575061090a565b636c7d65e890614c883392614c7b60405190565b9788948593849360e01b90565b83526001600160a01b031660048301526024820190565b03915afa9283156113a957600093614d29575b50600092614cbf84611111565b614cca610350835190565b811015614d0f57614cde6117348284612c15565b8314614cf257614ced9061347c565b614cbf565b50506102d89250614b84613adf6115006002936143bb60016113ea565b5050614b84613adf6115006002936143bb6102d8976113ea565b614d4591933d8091833e614d3d818361029e565b810190614bf1565b9138614cb2565b610350916008021c81565b906103509154614d4c565b90916000918293614d7284611111565b6008614d88610350614d8485846113f1565b5490565b821015614ed757614da582614da085614dab946113f1565b612231565b90614d57565b8314614dbf57614dba9061347c565b614d72565b509091929350614dcf60016113ea565b614df06020614de161144d60056113bf565b63a3974b219061146160405190565b825260049082905afa80156113a957614e148691614e35938391611f07575061090a565b636c7d65e890614c883392614e2860405190565b9586948593849360e01b90565b03915afa9081156113a9578591614ebd575b50614e5185611111565b614e5c610350835190565b811015614ea257614e706117348284612c15565b8314614e8457614e7f9061347c565b614e51565b5050506102d89250614b84613adf61150060029361454160016113ea565b505050614b84613adf6115006002936145416102d8976113ea565b614ed191503d8087833e614d3d818361029e565b38614e47565b505090919293614dcf906113ea565b91906103e381614efd816102f69560209181520190565b80956102fa565b602080825261035093910191614ee6565b91929190614f2b602061145261144d60056113bf565b825260049082905afa9081156113a957614f519161209391600091612b215750846111e3565b61214c57611267614698614f6a60006112aa9501611146565b614f7661344860405190565b614f81610fb0825190565b20957f000000000000000000000000000000000000000000000000000000000000000093614fae60405190565b938492602084019283614f04565b906020828203126102835781516001600160401b038111610283576103509201611c69565b61035091615013917f0000000000000000000000000000000000000000000000000000000000000000916148a161171e565b602061501d825190565b818301019101614fbc565b1561502f57565b60405162461bcd60e51b815260206004820152603d60248201527f4f6e6c7920537572766579206f7220537572766579204261636b656e6420636f60448201527f6e74726163742063616e2063616c6c20746869732066756e6374696f6e0000006064820152608490fd5b6150bd919060206150ae61144d60056113bf565b63fbcb54ef90614c3960405190565b825260049082905afa9283156113a9576000936151a6575b5033926150e184611398565b14928315615121575b506150f761035093615028565b7f0000000000000000000000000000000000000000000000000000000000000000916146a161171e565b9250615144602061513561144d60056113bf565b632f03372c9061146160405190565b825260049082905afa80156113a957610350946150f79260009261517e575b50615176906001600160a01b0316611398565b1493506150ea565b61517691925061519e6113989160203d81116114e2576114d4818361029e565b929150615163565b6151bf91935060203d81116114e2576114d4818361029e565b91386150d5565b6014816111946102f6936020969561254a565b92939291906151f0602061145261144d60056113bf565b825260049082905afa9081156113a95761521791612093916000916153c8575b50876111e3565b61214c5761524692602061522e61144d60056113bf565b630c23863b9061523d60405190565b96879260e01b90565b825260049082905afa9081156113a95761526d60209261528c966000916143d6575061090a565b61527e63648aa5eb614c7b60405190565b835260048301526024820190565b03915afa9081156113a957610350936000926153a2575b5061539a612ee392936112676153767f0000000000000000000000000000000000000000000000000000000000000000966152fb6152e060405190565b602080820193845290928391611267908c6102f68285611194565b615306610fb0825190565b2096615364600061535d7f00000000000000000000000000000000000000000000000000000000000000009a61533b60405190565b61534e81602081016112678c8f83614f04565b61535661171e565b918d613912565b9c01611146565b6040515b9384926020840192836151c6565b615381610fb0825190565b209261538c60405190565b948592602084019283614f04565b6146a161171e565b612ee392506153c161539a9160203d811161457557614566818361029e565b92506152a3565b6153e0915060203d81116114e2576114d4818361029e565b38615210565b91906153fa602061145261144d60056113bf565b825260049082905afa9081156113a9576154209161209391600091612b215750846111e3565b61214c57615437916020614c2a61144d60056113bf565b825260049082905afa9081156113a95761545c60209286956000916143d6575061090a565b61438a615470600063560693329401611146565b9261547d611e8960405190565b03915afa9283156113a9576154d2615013936154a76103509661126794600091611ed957506113ea565b7f000000000000000000000000000000000000000000000000000000000000000090611ab160405190565b6154dd610fb0825190565b20907f0000000000000000000000000000000000000000000000000000000000000000916148a161171e565b9061551c602061145261144d60056113bf565b825260049082905afa9081156113a957615542916120939160009161215e5750836111e3565b61214c57610350916112676154d261555f60006150139501611146565b7f00000000000000000000000000000000000000000000000000000000000000009061536860405190565b90615599611fd4610a0a845490565b9060005b8181106155aa5750505090565b9091926155c76120176001926155bf87612745565b815260200190565b92910161559d565b906103509161558a565b906102d861204a926155ea60405190565b938480926155cf565b610350906155d9565b61035060406102c4565b61560e6155fc565b906000825260006020830152565b610350615606565b60005b82811061563357505050565b60209061563e61561c565b8184015201615627565b906102d8615658612c0284612bc8565b601f190160208401615624565b90615678602061145261144d60056113bf565b825260049082905afa9081156113a95761569e916120939160009161215e5750836111e3565b61214c576156b590602061433561144d60056113bf565b825260049082905afa9081156113a9576156da60209285946000916143d6575061090a565b61438a6156ee600063560693329401611146565b926156fb61210360405190565b03915afa80156113a95761571691600091611ed957506113ea565b61573761573261572a6115008460066113f1565b9260086113f1565b6155f3565b91615748615743845190565b615648565b9260009161575583611111565b615760610350845190565b8110156157d857806157786117346157d39386612c15565b6157b86157966115006007615790611734878b612c15565b906113f1565b6157a86157a16155fc565b9389850152565b6001600160a01b03166020830152565b6157c28289612c15565b526157cd8188612c15565b5061347c565b615755565b50929150509190565b6115006157f8916157f0600090565b5060076113f1565b3190565b6157326103509161580b606090565b5060086113f1565b611500610350916157f060009056fea49807205ce4d355092ef5a8a18f56e8913cf4a201fbe287825b095693c21775a2646970667358221220ae76ad8bcc9c161743ef04994dc04cc2a66c8151681712f11ebed30186ec070664736f6c63430008150033",
  "linkReferences": {},
  "deployedLinkReferences": {}
}