{
  "_format": "hh-sol-artifact-1",
  "contractName": "PriceOracle",
  "sourceName": "contracts/PriceOracle.sol",
  "abi": [
    {
      "inputs": [
        {
          "internalType": "contract IStdReference",
          "name": "_ref",
          "type": "address"
        },
        {
          "internalType": "uint64[6]",
          "name": "_rewardForSecrecyPoints",
          "type": "uint64[6]"
        },
        {
          "internalType": "uint64[3]",
          "name": "_rewardForResponseType",
          "type": "uint64[3]"
        },
        {
          "internalType": "address",
          "name": "_contract_store",
          "type": "address"
        }
      ],
      "stateMutability": "nonpayable",
      "type": "constructor"
    },
    {
      "inputs": [],
      "name": "contractStore",
      "outputs": [
        {
          "internalType": "contract ContractStore",
          "name": "",
          "type": "address"
        }
      ],
      "stateMutability": "view",
      "type": "function"
    },
    {
      "inputs": [
        {
          "internalType": "string",
          "name": "action",
          "type": "string"
        }
      ],
      "name": "getGasPrice",
      "outputs": [
        {
          "internalType": "uint256",
          "name": "",
          "type": "uint256"
        }
      ],
      "stateMutability": "pure",
      "type": "function"
    },
    {
      "inputs": [
        {
          "internalType": "string",
          "name": "a",
          "type": "string"
        },
        {
          "internalType": "string",
          "name": "b",
          "type": "string"
        }
      ],
      "name": "getPrice",
      "outputs": [
        {
          "internalType": "uint256",
          "name": "",
          "type": "uint256"
        }
      ],
      "stateMutability": "view",
      "type": "function"
    },
    {
      "inputs": [],
      "name": "getPriceForAnswerType",
      "outputs": [
        {
          "components": [
            {
              "internalType": "enum AnswerType",
              "name": "ansType",
              "type": "uint8"
            },
            {
              "internalType": "uint64",
              "name": "price",
              "type": "uint64"
            }
          ],
          "internalType": "struct PriceOracle.PriceObject[]",
          "name": "",
          "type": "tuple[]"
        }
      ],
      "stateMutability": "view",
      "type": "function"
    },
    {
      "inputs": [
        {
          "internalType": "enum AnswerType",
          "name": "ansType",
          "type": "uint8"
        }
      ],
      "name": "getPriceForResponseType",
      "outputs": [
        {
          "internalType": "uint64",
          "name": "",
          "type": "uint64"
        }
      ],
      "stateMutability": "view",
      "type": "function"
    },
    {
      "inputs": [],
      "name": "getPrivacyPoints",
      "outputs": [
        {
          "components": [
            {
              "internalType": "uint64",
              "name": "privacyLevel",
              "type": "uint64"
            },
            {
              "internalType": "uint64",
              "name": "privacyPoints",
              "type": "uint64"
            }
          ],
          "internalType": "struct PriceOracle.PrivacyObject[]",
          "name": "",
          "type": "tuple[]"
        }
      ],
      "stateMutability": "view",
      "type": "function"
    },
    {
      "inputs": [
        {
          "internalType": "uint256",
          "name": "privacyLevel",
          "type": "uint256"
        }
      ],
      "name": "getPrivacyPointsForPrivacyLevel",
      "outputs": [
        {
          "internalType": "uint64",
          "name": "",
          "type": "uint64"
        }
      ],
      "stateMutability": "view",
      "type": "function"
    },
    {
      "inputs": [
        {
          "internalType": "enum AnswerType",
          "name": "ansType",
          "type": "uint8"
        },
        {
          "internalType": "uint64",
          "name": "privacyLevel",
          "type": "uint64"
        }
      ],
      "name": "getRewardsToAnswerForATypeOfQuestionAndPrivacy",
      "outputs": [
        {
          "internalType": "uint256",
          "name": "",
          "type": "uint256"
        }
      ],
      "stateMutability": "view",
      "type": "function"
    },
    {
      "inputs": [
        {
          "components": [
            {
              "internalType": "enum AnswerType",
              "name": "qType",
              "type": "uint8"
            },
            {
              "internalType": "uint64",
              "name": "privacyLevel",
              "type": "uint64"
            }
          ],
          "internalType": "struct PriceOracle.QuestionObjectForRewardCalculation[]",
          "name": "questions",
          "type": "tuple[]"
        }
      ],
      "name": "getRewardsToAnswerSurvey",
      "outputs": [
        {
          "internalType": "uint256",
          "name": "",
          "type": "uint256"
        }
      ],
      "stateMutability": "view",
      "type": "function"
    },
    {
      "inputs": [],
      "name": "price",
      "outputs": [
        {
          "internalType": "uint256",
          "name": "",
          "type": "uint256"
        }
      ],
      "stateMutability": "view",
      "type": "function"
    },
    {
      "inputs": [
        {
          "internalType": "uint256",
          "name": "",
          "type": "uint256"
        }
      ],
      "name": "rewardForResponseType",
      "outputs": [
        {
          "internalType": "uint64",
          "name": "",
          "type": "uint64"
        }
      ],
      "stateMutability": "view",
      "type": "function"
    },
    {
      "inputs": [
        {
          "internalType": "uint256",
          "name": "",
          "type": "uint256"
        }
      ],
      "name": "rewardForSecrecyPoints",
      "outputs": [
        {
          "internalType": "uint64",
          "name": "",
          "type": "uint64"
        }
      ],
      "stateMutability": "view",
      "type": "function"
    },
    {
      "inputs": [
        {
          "internalType": "uint64[3]",
          "name": "_rewardForResponseType",
          "type": "uint64[3]"
        }
      ],
      "name": "setRewardForResponseType",
      "outputs": [],
      "stateMutability": "nonpayable",
      "type": "function"
    },
    {
      "inputs": [
        {
          "internalType": "uint64[6]",
          "name": "_rewardForSecrecyPoints",
          "type": "uint64[6]"
        }
      ],
      "name": "setRewardForSecrecyPoints",
      "outputs": [],
      "stateMutability": "nonpayable",
      "type": "function"
    }
  ],
  "bytecode": "0x6080604052346200003457620000226200001862000237565b92919091620005d3565b60405161178a62000612823961178a90f35b600080fd5b634e487b7160e01b600052604160045260246000fd5b90601f01601f191681019081106001600160401b038211176200007157604052565b62000039565b906200008e6200008660405190565b92836200004f565b565b6001600160a01b031690565b90565b6001600160a01b0381165b036200003457565b905051906200008e826200009f565b6001600160401b038111620000715760200290565b6001600160401b038116620000aa565b905051906200008e82620000d6565b909291926200010e6200010882620000c1565b62000077565b9360208592028301928184116200003457915b8383106200012f5750505050565b602080916200013f8486620000e6565b81520192019162000121565b9080601f8301121562000034576200009c91600690620000f5565b90929192620001796200010882620000c1565b9360208592028301928184116200003457915b8383106200019a5750505050565b60208091620001aa8486620000e6565b8152019201916200018c565b9080601f8301121562000034576200009c9160039062000166565b6001600160a01b038116620000aa565b905051906200008e82620001d1565b610160818303126200003457620002088282620000b2565b926200009c6200021c84602085016200014b565b936200022c8160e08601620001b6565b9361014001620001e1565b6200025a62001d9c803803806200024e8162000077565b928339810190620001f0565b90919293565b906001600160a01b03905b9181191691161790565b6200009c9062000090906001600160a01b031682565b6200009c9062000275565b6200009c906200028b565b90620002b56200009c620002bd9262000296565b825462000260565b9055565b9160001960089290920291821b911b6200026b565b6200009c6200009c6200009c9290565b9190620002fb6200009c620002bd93620002d6565b908354620002c1565b6200008e91600091620002e6565b8181106200031e575050565b806200032e600060019362000304565b0162000312565b906200034990600019906020036008021c90565b8154169055565b9190918282106200036057505050565b6200008e9260089060049060030181900460046003860104840193019306026000811162000390575b5062000312565b6200039f906001830362000335565b3862000389565b9068010000000000000000811162000071576200008e9160065b9062000350565b916001600160401b0360089290920291821b911b6200026b565b90600690620003fa620003fe916200009c8486620003a6565b9290565b600482049160005b8381106200047b57506004830290036000811162000425575b50505050565b92600093845b81811062000442575050500155388080806200041f565b909194602062000470600192620004646200009c8a516001600160401b031690565b908560080290620003c7565b96019291016200042b565b6000805b600481106200049657508382015560010162000406565b95906020620004c3600192620004b76200009c86516001600160401b031690565b908a60080290620003c7565b920196016200047f565b906200008e91620003e1565b9068010000000000000000811162000071576200008e916003620003c0565b90600390620003fa62000511916200009c8486620004d9565b600482049160005b83811062000581575060048302900360008111620005375750505050565b92600093845b81811062000554575050500155388080806200041f565b909194602062000576600192620004646200009c8a516001600160401b031690565b96019291016200053d565b6000805b600481106200059c57508382015560010162000519565b95906020620005bd600192620004b76200009c86516001600160401b031690565b9201960162000585565b906200008e91620004f8565b6200060992620005fb6200008e9593620005f362000603946000620002a1565b6003620004cd565b6005620005c7565b62000296565b6001620002a156fe6080604052600436101561001257600080fd5b60003560e01c806304a78934146100f25780630b5e30a5146100ed57806322d2119b146100e85780633d0f34da146100e3578063404f4cc1146100de5780634dd4b678146100d957806361cce4e9146100d45780636bc984e8146100cf57806387abacba146100ca578063a035b1fe146100c5578063b2a1a022146100c0578063d7164bc8146100bb578063e447b060146100b65763f6c8f639036100f7576108e5565b610899565b6107ca565b6106ce565b61068e565b610651565b610616565b610590565b6104f7565b610466565b6103c2565b610292565b6101be565b61012f565b600080fd5b805b036100f757565b90503590610112826100fc565b565b906020828203126100f75761012891610105565b90565b9052565b346100f75761016461014a610145366004610114565b61090d565b604051918291826001600160401b03909116815260200190565b0390f35b600311156100f757565b9050359061011282610168565b6001600160401b0381166100fe565b905035906101128261017f565b91906040838203126100f757610128906101b58185610172565b9360200161018e565b346100f7576101646101da6101d436600461019b565b90610f95565b6040519182918290815260200190565b60009103126100f757565b80516001600160401b03168252610112919060209081905b01516001600160401b0316910152565b9061022a816040936101f5565b0190565b9061024e61024761023d845190565b8084529260200190565b9260200190565b9060005b81811061025f5750505090565b909192610279610272600192865161021d565b9460200190565b929101610252565b60208082526101289291019061022e565b346100f7576102a23660046101ea565b6101646102ad610a90565b60405191829182610281565b634e487b7160e01b600052604160045260246000fd5b90601f01601f191681019081106001600160401b038211176102f057604052565b6102b9565b9061011261030260405190565b92836102cf565b6001600160401b0381116102f057602090601f01601f19160190565b90826000939282370152565b9092919261034661034182610309565b6102f5565b938185526020850190828401116100f75761011292610325565b9080601f830112156100f75781602061012893359101610331565b9190916040818403126100f75780356001600160401b0381116100f757836103a4918301610360565b9260208201356001600160401b0381116100f7576101289201610360565b346100f7576101646101da6103d836600461037b565b90610eaf565b6001600160401b0381116102f05760200290565b90929192610402610341826103de565b9360208592028301928184116100f757915b8383106104215750505050565b6020809161042f848661018e565b815201920191610414565b9080601f830112156100f757610128916003906103f2565b906060828203126100f7576101289161043a565b346100f75761047e610479366004610452565b6114ca565b604051005b90929192610493610341826103de565b9360208592028301928184116100f757915b8383106104b25750505050565b602080916104c0848661018e565b8152019201916104a5565b9080601f830112156100f75761012891600690610483565b9060c0828203126100f757610128916104cb565b346100f75761047e61050a3660046104e3565b6112c9565b634e487b7160e01b600052603260045260246000fd5b90919060065b83101561054757600461053d60089290565b8185040193060290565b61050f565b610128916008021c5b6001600160401b031690565b90610128915461054c565b60036000600683101561058d57506101289161058791610525565b90610561565b80fd5b346100f75761016461014a6105a6366004610114565b61056c565b610128916008021c5b6001600160a01b031690565b9061012891546105ab565b610128600060016105c0565b610128906105b4906001600160a01b031682565b610128906105d7565b610128906105eb565b61012b906105f4565b60208101929161011291906105fd565b346100f7576106263660046101ea565b6101646106316105cb565b60405191829182610606565b906020828203126100f75761012891610172565b346100f75761016461014a61066736600461063d565b610c25565b610128916008021c81565b90610128915461066c565b61012860006002610677565b346100f75761069e3660046101ea565b6101646101da610682565b906020828203126100f75781356001600160401b0381116100f7576101289201610360565b346100f7576101646101da6106e43660046106a9565b611589565b6001600160401b0381116102f05760208091020190565b9190916040818403126100f75761073561071a60406102f5565b9360006107278285610172565b90860152602080930161018e565b90830152565b9092919261074b610341826106e9565b9381855260406020860192028301928184116100f757915b8383106107705750505050565b602060409161077f8486610700565b815201920191610763565b9080601f830112156100f7578160206101289335910161073b565b906020828203126100f75781356001600160401b0381116100f757610128920161078a565b346100f7576101646101da6107e03660046107a5565b610ff4565b634e487b7160e01b600052602160045260246000fd5b6003111561080557565b6107e5565b90610112826107fb565b6101289061080a565b61012b90610814565b906020806101129361020d6000820151600086019061081d565b9061022a81604093610826565b9061085c61024761023d845190565b9060005b81811061086d5750505090565b9091926108806102726001928651610840565b929101610860565b60208082526101289291019061084d565b346100f7576108a93660046101ea565b6101646108b4610cfa565b60405191829182610888565b909190600361052b565b60056000600383101561058d575061012891610587916108c0565b346100f75761016461014a6108fb366004610114565b6108ca565b6101286101286101289290565b60009061091982610900565b810361092e5750610587610128916003610525565b6001915061093b82610900565b81036109505750610587610128916003610525565b6002915061095d82610900565b81036109725750610587610128916003610525565b6003915061097f82610900565b81036109945750610128906105879080610525565b906004916109a183610900565b81036109b557506101289161058791610525565b600592506109c96109c584610900565b9190565b036109db576101289161058791610525565b6101289161058791610525565b906109f5610341836106e9565b918252565b61012860406102f5565b610a0c6109fa565b906000825260006020830152565b610128610a04565b60005b828110610a3157505050565b602090610a3c610a1a565b8184015201610a25565b90610112610a5c610a56846109e8565b936106e9565b601f190160208401610a22565b6105556101286101289290565b90610a7f825190565b811015610547576020809102010190565b610aa2610a9d6006610900565b610a46565b610c21610c1b60036000610ab96105878284610525565b610af0610ac46109fa565b91610ae0610ad185610a69565b6001600160401b031684860152565b6001600160401b03166020830152565b610b02610afc83610900565b87610a76565b52610b15610b0f82610900565b86610a76565b50610b6a610b0f6001610b2b6105878287610525565b610b52610b366109fa565b91610ae0610b4385610a69565b6001600160401b031684890152565b610b64610b5e83610900565b8a610a76565b52610900565b50610b80610b0f6002610b2b6105878287610525565b50610b8e6105878380610525565b610ba6610b996109fa565b91610ae0610ad186610a69565b610bb2610afc84610900565b52610bbf610b0f83610900565b50610bd5610b0f6004610b2b6105878287610525565b5150610c0f610beb610587600585819650610525565b610ae0610bf66109fa565b93610c0086610a69565b6001600160401b031690850152565b610b64610b0f83610900565b82610a76565b5090565b600090610c318261080a565b610c3a8261080a565b03610c4e57506105876101289160056108c0565b60019150610c5b8261080a565b610c648261080a565b03610c7857506105876101289160056108c0565b60029150610c8e610c888361080a565b9161080a565b03610ca1576105876101289160056108c0565b6105876101289160056108c0565b60005b828110610cbe57505050565b602090610cc9610a1a565b8184015201610cb2565b90610112610ce3610a56846109e8565b601f190160208401610caf565b9061012b9061080a565b610d0c610d076003610900565b610cd3565b610c21610c1b60056000610d2361058782846108c0565b610d3b610d2e6109fa565b91610ae084808501610cf0565b610d47610afc83610900565b52610d54610b0f82610900565b50610d82610b0f6001610d6a61058782876108c0565b610b52610d756109fa565b91610ae084888501610cf0565b5150610c0f610d986105876002858196506108c0565b610ae084610da46109fa565b948501610cf0565b610128906105b4565b6101289054610dac565b90505190610112826100fc565b9190916060818403126100f757610735610de660606102f5565b936000610df38285610dbf565b908601526020610e0582828601610dbf565b908601526040809301610dbf565b906060828203126100f75761012891610dcc565b60005b838110610e3a5750506000910152565b8181015183820152602001610e2a565b610e6b610e7460209361022a93610e5f815190565b80835293849260200190565b95869101610e27565b601f01601f191690565b6040808252610128939192610e9591840190610e4a565b916020818403910152610e4a565b6040513d6000823e3d90fd5b606090610ec4610ebf6000610db5565b6105f4565b610ee56365555bcc610ef0610ed860405190565b9687958694859460e01b90565b845260048401610e7e565b03915afa908115610f3d57610128916000918291610f0f575b50015190565b610f30915060603d8111610f36575b610f2881836102cf565b810190610e13565b38610f09565b503d610f1e565b610ea3565b610128610128610128926001600160401b031690565b634e487b7160e01b600052601160045260246000fd5b6001600160401b03908116911602906001600160401b038216918203610f9057565b610f58565b61012891610fba610145610fb4610fc094610fae600090565b50610c25565b92610f42565b90610f6e565b610f42565b6000198114610f905760010190565b610128905161080a565b9190610fe9565b9290565b8201809211610f9057565b60009061100082610900565b91825b61100e610128845190565b8410156110645761105861105e916110526110348561102d8989610a76565b5101610fd4565b6101d460206110438a8a610a76565b5101516001600160401b031690565b90610fde565b93610fc5565b92611003565b9250505090565b6100fe81610dac565b905051906101128261106b565b906020828203126100f75761012891611074565b8015156100fe565b9050519061011282611095565b906020828203126100f7576101289161109d565b61012b906105b4565b90815260408101929161011291602001906110be565b156100f757565b9160001960089290920291821b911b6110fd565b921b90565b9181191691161790565b919061111861012861112093610900565b9083546110e4565b9055565b61011291600091611107565b81811061113b575050565b806111496000600193611124565b01611130565b9061116290600019906020036008021c90565b8154169055565b91909182821061117857505050565b610112926008906004906003018190046004600386010484019301930602600081116111a5575b50611130565b6111b2906001830361114f565b3861119f565b90600160401b81116102f0576101129160065b90611169565b919060086110fd9102916110f86001600160401b03841b90565b90600690610fe56112009161012884866111b8565b600482049160005b838110611274575060048302900360008111611225575b50505050565b92600093845b8181106112405750505001553880808061121f565b909194602061126a60019261125f6101288a516001600160401b031690565b9085600802906111d1565b960192910161122b565b6000805b6004811061128d575083820155600101611208565b959060206112b66001926112ab61012886516001600160401b031690565b908a600802906111d1565b92019601611278565b90610112916111eb565b6112f360206112db610ebf6001610db5565b63e22b45f1906112ea60405190565b93849260e01b90565b825260049082905afa8015610f3d57611314916000916113be575b506105f4565b9060206391d14854927fa49807205ce4d355092ef5a8a18f56e8913cf4a201fbe287825b095693c217759061135d339561136861135060405190565b9788958694859460e01b90565b8452600484016110c7565b03915afa918215610f3d576101129261138991600091611390575b506110dd565b60036112bf565b6113b1915060203d81116113b7575b6113a981836102cf565b8101906110aa565b38611383565b503d61139f565b6113df915060203d81116113e5575b6113d781836102cf565b810190611081565b3861130e565b503d6113cd565b90600160401b81116102f0576101129160036111cb565b90600390610fe56114189161012884866113ec565b600482049160005b83811061148057506004830290036000811161143c5750505050565b92600093845b8181106114575750505001553880808061121f565b909194602061147660019261125f6101288a516001600160401b031690565b9601929101611442565b6000805b60048110611499575083820155600101611420565b959060206114b76001926112ab61012886516001600160401b031690565b92019601611484565b9061011291611403565b6114dc60206112db610ebf6001610db5565b825260049082905afa8015610f3d576114fc916000916113be57506105f4565b9060206391d14854927fa49807205ce4d355092ef5a8a18f56e8913cf4a201fbe287825b095693c217759061135d339561153861135060405190565b03915afa918215610f3d57610112926115589160009161139057506110dd565b60056114c0565b61022a61157792602092611571815190565b94859290565b93849101610e27565b6101289161155f565b6040516115aa816020810161159e8582611580565b908103825203826102cf565b6115bc6115b5825190565b9160200190565b206116016109c56115cc60405190565b6115f2816020810161159e816d31b932b0ba32a8bab2b9ba34b7b760911b8152600e0190565b6115fd6115b5825190565b2090565b0361161157506101286064610900565b604051611626816020810161159e8582611580565b6116316115b5825190565b206116676109c561164160405190565b6115f2816020810161159e816d30b739bbb2b928bab2b9ba34b7b760911b8152600e0190565b03611677575061012860c8610900565b60405161168c816020810161159e8582611580565b6116976115b5825190565b206116cb6109c56116a760405190565b6115f2816020810161159e816b31b430b733b2a0b739bbb2b960a11b8152600c0190565b036116dc575061012861012c610900565b6116f86116e860405190565b809261159e602083019182611580565b6117036115b5825190565b206117396109c561171360405190565b6115f2816020810161159e816d3232b632ba32a8bab2b9ba34b7b760911b8152600e0190565b0361174957610128610190610900565b6101286101f461090056fea26469706673582212204da01408e1ddf308fca3b5762572c0162a0fb65d5a5fdafc10a16b2dddf696a564736f6c63430008150033",
  "linkReferences": {},
  "deployedLinkReferences": {}
}