{
  "_format": "hh-sol-artifact-1",
  "contractName": "Profile",
  "sourceName": "contracts/Profile.sol",
  "abi": [
    {
      "inputs": [
        {
          "internalType": "address",
          "name": "_contractStoreAddress",
          "type": "address"
        }
      ],
      "stateMutability": "nonpayable",
      "type": "constructor"
    },
    {
      "inputs": [],
      "name": "GaslessActionNotAllowed",
      "type": "error"
    },
    {
      "inputs": [],
      "name": "InputDataError",
      "type": "error"
    },
    {
      "inputs": [],
      "name": "NoUserFound",
      "type": "error"
    },
    {
      "inputs": [],
      "name": "SignUpDataErrorWrongMessageSender",
      "type": "error"
    },
    {
      "inputs": [],
      "name": "StringLengthError",
      "type": "error"
    },
    {
      "inputs": [],
      "name": "UnAuthorizedAction",
      "type": "error"
    },
    {
      "inputs": [],
      "name": "Unauthorized",
      "type": "error"
    },
    {
      "inputs": [],
      "name": "UserAlreadyExists",
      "type": "error"
    },
    {
      "anonymous": false,
      "inputs": [
        {
          "indexed": true,
          "internalType": "uint256",
          "name": "organisationId",
          "type": "uint256"
        },
        {
          "components": [
            {
              "internalType": "bytes32",
              "name": "digest",
              "type": "bytes32"
            },
            {
              "internalType": "uint8",
              "name": "hashFunction",
              "type": "uint8"
            },
            {
              "internalType": "uint8",
              "name": "size",
              "type": "uint8"
            }
          ],
          "indexed": false,
          "internalType": "struct IPFSHash",
          "name": "post",
          "type": "tuple"
        }
      ],
      "name": "OrganisationPosted",
      "type": "event"
    },
    {
      "inputs": [],
      "name": "ADMIN_ROLE",
      "outputs": [
        {
          "internalType": "bytes32",
          "name": "",
          "type": "bytes32"
        }
      ],
      "stateMutability": "view",
      "type": "function"
    },
    {
      "inputs": [],
      "name": "EIP712_DOMAIN_TYPEHASH",
      "outputs": [
        {
          "internalType": "bytes32",
          "name": "",
          "type": "bytes32"
        }
      ],
      "stateMutability": "view",
      "type": "function"
    },
    {
      "inputs": [],
      "name": "SIGNIN_TYPE",
      "outputs": [
        {
          "internalType": "string",
          "name": "",
          "type": "string"
        }
      ],
      "stateMutability": "view",
      "type": "function"
    },
    {
      "inputs": [],
      "name": "SIGNIN_TYPEHASH",
      "outputs": [
        {
          "internalType": "bytes32",
          "name": "",
          "type": "bytes32"
        }
      ],
      "stateMutability": "view",
      "type": "function"
    },
    {
      "inputs": [],
      "name": "VERIFIER_ROLE",
      "outputs": [
        {
          "internalType": "bytes32",
          "name": "",
          "type": "bytes32"
        }
      ],
      "stateMutability": "view",
      "type": "function"
    },
    {
      "inputs": [
        {
          "internalType": "address",
          "name": "userAddress",
          "type": "address"
        },
        {
          "internalType": "uint256",
          "name": "organisationId",
          "type": "uint256"
        }
      ],
      "name": "addUserToOrganisation",
      "outputs": [],
      "stateMutability": "nonpayable",
      "type": "function"
    },
    {
      "inputs": [
        {
          "internalType": "uint256[]",
          "name": "user",
          "type": "uint256[]"
        },
        {
          "internalType": "enum UserHumanityVerificationStatus[]",
          "name": "status",
          "type": "uint8[]"
        },
        {
          "internalType": "uint256[]",
          "name": "validUntil",
          "type": "uint256[]"
        }
      ],
      "name": "adminUpdateUserVerificationStatus",
      "outputs": [],
      "stateMutability": "nonpayable",
      "type": "function"
    },
    {
      "inputs": [],
      "name": "checkCivicPass",
      "outputs": [
        {
          "internalType": "bool",
          "name": "",
          "type": "bool"
        }
      ],
      "stateMutability": "view",
      "type": "function"
    },
    {
      "inputs": [
        {
          "internalType": "bytes32",
          "name": "username",
          "type": "bytes32"
        }
      ],
      "name": "checkUsernameAvailability",
      "outputs": [
        {
          "internalType": "bool",
          "name": "",
          "type": "bool"
        }
      ],
      "stateMutability": "view",
      "type": "function"
    },
    {
      "inputs": [
        {
          "internalType": "string",
          "name": "_str",
          "type": "string"
        },
        {
          "internalType": "string",
          "name": "_substr",
          "type": "string"
        }
      ],
      "name": "containsSubstringIgnoreCase",
      "outputs": [
        {
          "internalType": "bool",
          "name": "",
          "type": "bool"
        }
      ],
      "stateMutability": "pure",
      "type": "function"
    },
    {
      "inputs": [],
      "name": "contractStore",
      "outputs": [
        {
          "internalType": "contract ContractStore",
          "name": "",
          "type": "address"
        }
      ],
      "stateMutability": "view",
      "type": "function"
    },
    {
      "inputs": [
        {
          "components": [
            {
              "internalType": "bytes32",
              "name": "organisationUserName",
              "type": "bytes32"
            },
            {
              "internalType": "bytes32",
              "name": "organisationName",
              "type": "bytes32"
            },
            {
              "components": [
                {
                  "internalType": "bytes32",
                  "name": "digest",
                  "type": "bytes32"
                },
                {
                  "internalType": "uint8",
                  "name": "hashFunction",
                  "type": "uint8"
                },
                {
                  "internalType": "uint8",
                  "name": "size",
                  "type": "uint8"
                }
              ],
              "internalType": "struct IPFSHash",
              "name": "organisationBioIPFSHash",
              "type": "tuple"
            },
            {
              "components": [
                {
                  "internalType": "bytes32",
                  "name": "digest",
                  "type": "bytes32"
                },
                {
                  "internalType": "uint8",
                  "name": "hashFunction",
                  "type": "uint8"
                },
                {
                  "internalType": "uint8",
                  "name": "size",
                  "type": "uint8"
                }
              ],
              "internalType": "struct IPFSHash",
              "name": "organisationProfilePhotoHash",
              "type": "tuple"
            },
            {
              "internalType": "int8",
              "name": "organisationProfileAvatar",
              "type": "int8"
            },
            {
              "internalType": "bytes32",
              "name": "organisationTwitter_handle",
              "type": "bytes32"
            },
            {
              "internalType": "bytes32",
              "name": "organisationFacebook_handle",
              "type": "bytes32"
            },
            {
              "internalType": "bytes32",
              "name": "organisationInstagram_handle",
              "type": "bytes32"
            },
            {
              "internalType": "bytes32",
              "name": "organisationExternal_link",
              "type": "bytes32"
            },
            {
              "internalType": "uint256[]",
              "name": "tagsIds",
              "type": "uint256[]"
            }
          ],
          "internalType": "struct OrganisationCreationRequest",
          "name": "request",
          "type": "tuple"
        }
      ],
      "name": "createOrganisation",
      "outputs": [
        {
          "internalType": "uint256",
          "name": "",
          "type": "uint256"
        }
      ],
      "stateMutability": "nonpayable",
      "type": "function"
    },
    {
      "inputs": [
        {
          "internalType": "uint256",
          "name": "organisationId",
          "type": "uint256"
        },
        {
          "components": [
            {
              "internalType": "bytes32",
              "name": "digest",
              "type": "bytes32"
            },
            {
              "internalType": "uint8",
              "name": "hashFunction",
              "type": "uint8"
            },
            {
              "internalType": "uint8",
              "name": "size",
              "type": "uint8"
            }
          ],
          "internalType": "struct IPFSHash",
          "name": "post",
          "type": "tuple"
        }
      ],
      "name": "createPost",
      "outputs": [],
      "stateMutability": "nonpayable",
      "type": "function"
    },
    {
      "inputs": [
        {
          "internalType": "uint256",
          "name": "organisationId",
          "type": "uint256"
        }
      ],
      "name": "deleteOrganisation",
      "outputs": [],
      "stateMutability": "nonpayable",
      "type": "function"
    },
    {
      "inputs": [
        {
          "internalType": "address",
          "name": "userAddress",
          "type": "address"
        }
      ],
      "name": "findUserIdfromAddress",
      "outputs": [
        {
          "internalType": "uint256",
          "name": "",
          "type": "uint256"
        }
      ],
      "stateMutability": "view",
      "type": "function"
    },
    {
      "inputs": [
        {
          "internalType": "uint256",
          "name": "orgId",
          "type": "uint256"
        }
      ],
      "name": "findUserNameFromUserId",
      "outputs": [
        {
          "internalType": "bytes32",
          "name": "username",
          "type": "bytes32"
        },
        {
          "components": [
            {
              "internalType": "bytes32",
              "name": "digest",
              "type": "bytes32"
            },
            {
              "internalType": "uint8",
              "name": "hashFunction",
              "type": "uint8"
            },
            {
              "internalType": "uint8",
              "name": "size",
              "type": "uint8"
            }
          ],
          "internalType": "struct IPFSHash",
          "name": "ipfs",
          "type": "tuple"
        }
      ],
      "stateMutability": "view",
      "type": "function"
    },
    {
      "inputs": [
        {
          "internalType": "uint256",
          "name": "organisationId",
          "type": "uint256"
        }
      ],
      "name": "getAllOrganisationPost",
      "outputs": [
        {
          "components": [
            {
              "internalType": "bytes32",
              "name": "digest",
              "type": "bytes32"
            },
            {
              "internalType": "uint8",
              "name": "hashFunction",
              "type": "uint8"
            },
            {
              "internalType": "uint8",
              "name": "size",
              "type": "uint8"
            }
          ],
          "internalType": "struct IPFSHash[]",
          "name": "",
          "type": "tuple[]"
        }
      ],
      "stateMutability": "view",
      "type": "function"
    },
    {
      "inputs": [],
      "name": "getAllTags",
      "outputs": [
        {
          "internalType": "bytes32[]",
          "name": "",
          "type": "bytes32[]"
        }
      ],
      "stateMutability": "view",
      "type": "function"
    },
    {
      "inputs": [
        {
          "components": [
            {
              "internalType": "address",
              "name": "user",
              "type": "address"
            },
            {
              "internalType": "uint256",
              "name": "time",
              "type": "uint256"
            },
            {
              "components": [
                {
                  "internalType": "bytes32",
                  "name": "r",
                  "type": "bytes32"
                },
                {
                  "internalType": "bytes32",
                  "name": "s",
                  "type": "bytes32"
                },
                {
                  "internalType": "uint256",
                  "name": "v",
                  "type": "uint256"
                }
              ],
              "internalType": "struct SignatureRSV",
              "name": "rsv",
              "type": "tuple"
            }
          ],
          "internalType": "struct SignIn",
          "name": "auth",
          "type": "tuple"
        }
      ],
      "name": "getMyAdminRoles",
      "outputs": [
        {
          "internalType": "bool[2]",
          "name": "",
          "type": "bool[2]"
        }
      ],
      "stateMutability": "view",
      "type": "function"
    },
    {
      "inputs": [
        {
          "components": [
            {
              "internalType": "address",
              "name": "user",
              "type": "address"
            },
            {
              "internalType": "uint256",
              "name": "time",
              "type": "uint256"
            },
            {
              "components": [
                {
                  "internalType": "bytes32",
                  "name": "r",
                  "type": "bytes32"
                },
                {
                  "internalType": "bytes32",
                  "name": "s",
                  "type": "bytes32"
                },
                {
                  "internalType": "uint256",
                  "name": "v",
                  "type": "uint256"
                }
              ],
              "internalType": "struct SignatureRSV",
              "name": "rsv",
              "type": "tuple"
            }
          ],
          "internalType": "struct SignIn",
          "name": "auth",
          "type": "tuple"
        }
      ],
      "name": "getMyData",
      "outputs": [
        {
          "components": [
            {
              "internalType": "uint256",
              "name": "userId",
              "type": "uint256"
            },
            {
              "internalType": "address",
              "name": "userAddress",
              "type": "address"
            },
            {
              "internalType": "bytes32",
              "name": "firstName",
              "type": "bytes32"
            },
            {
              "internalType": "bytes32",
              "name": "lastName",
              "type": "bytes32"
            },
            {
              "internalType": "bytes32",
              "name": "bio",
              "type": "bytes32"
            },
            {
              "components": [
                {
                  "internalType": "bytes32",
                  "name": "digest",
                  "type": "bytes32"
                },
                {
                  "internalType": "uint8",
                  "name": "hashFunction",
                  "type": "uint8"
                },
                {
                  "internalType": "uint8",
                  "name": "size",
                  "type": "uint8"
                }
              ],
              "internalType": "struct IPFSHash",
              "name": "profilePhotoHash",
              "type": "tuple"
            },
            {
              "internalType": "uint8",
              "name": "profileAvatar",
              "type": "uint8"
            },
            {
              "internalType": "bytes32",
              "name": "twitter_handle",
              "type": "bytes32"
            },
            {
              "internalType": "bytes32",
              "name": "facebook_handle",
              "type": "bytes32"
            },
            {
              "internalType": "bytes32",
              "name": "instagram_handle",
              "type": "bytes32"
            },
            {
              "internalType": "bytes32",
              "name": "external_link",
              "type": "bytes32"
            },
            {
              "internalType": "bytes32",
              "name": "password",
              "type": "bytes32"
            },
            {
              "internalType": "uint256",
              "name": "createdOn",
              "type": "uint256"
            },
            {
              "internalType": "enum UserOnBoardingStatus",
              "name": "onBoardingStatus",
              "type": "uint8"
            },
            {
              "internalType": "enum UserHumanityVerificationStatus",
              "name": "humanityVerificationStatus",
              "type": "uint8"
            },
            {
              "internalType": "uint256",
              "name": "verificationValidUntil",
              "type": "uint256"
            },
            {
              "internalType": "bytes32",
              "name": "username",
              "type": "bytes32"
            },
            {
              "internalType": "bool",
              "name": "isOrganisation",
              "type": "bool"
            }
          ],
          "internalType": "struct User",
          "name": "userProfile",
          "type": "tuple"
        },
        {
          "components": [
            {
              "internalType": "uint256",
              "name": "organisationId",
              "type": "uint256"
            },
            {
              "internalType": "bytes32",
              "name": "organisationName",
              "type": "bytes32"
            },
            {
              "components": [
                {
                  "internalType": "bytes32",
                  "name": "digest",
                  "type": "bytes32"
                },
                {
                  "internalType": "uint8",
                  "name": "hashFunction",
                  "type": "uint8"
                },
                {
                  "internalType": "uint8",
                  "name": "size",
                  "type": "uint8"
                }
              ],
              "internalType": "struct IPFSHash",
              "name": "organisationBioIPFSHash",
              "type": "tuple"
            },
            {
              "components": [
                {
                  "internalType": "bytes32",
                  "name": "digest",
                  "type": "bytes32"
                },
                {
                  "internalType": "uint8",
                  "name": "hashFunction",
                  "type": "uint8"
                },
                {
                  "internalType": "uint8",
                  "name": "size",
                  "type": "uint8"
                }
              ],
              "internalType": "struct IPFSHash",
              "name": "organisationProfilePhotoHash",
              "type": "tuple"
            },
            {
              "internalType": "int8",
              "name": "organisationProfileAvatar",
              "type": "int8"
            },
            {
              "internalType": "bytes32",
              "name": "organisationTwitter_handle",
              "type": "bytes32"
            },
            {
              "internalType": "bytes32",
              "name": "organisationFacebook_handle",
              "type": "bytes32"
            },
            {
              "internalType": "bytes32",
              "name": "organisationInstagram_handle",
              "type": "bytes32"
            },
            {
              "internalType": "bytes32",
              "name": "organisationExternal_link",
              "type": "bytes32"
            },
            {
              "internalType": "uint256",
              "name": "createdOn",
              "type": "uint256"
            },
            {
              "internalType": "bytes32",
              "name": "username",
              "type": "bytes32"
            },
            {
              "internalType": "uint256[]",
              "name": "tags",
              "type": "uint256[]"
            }
          ],
          "internalType": "struct Organisation[]",
          "name": "memberInOrganisations",
          "type": "tuple[]"
        }
      ],
      "stateMutability": "view",
      "type": "function"
    },
    {
      "inputs": [
        {
          "internalType": "uint256",
          "name": "organisationId",
          "type": "uint256"
        }
      ],
      "name": "getOrganisationUsernameFromId",
      "outputs": [
        {
          "internalType": "bytes32",
          "name": "",
          "type": "bytes32"
        }
      ],
      "stateMutability": "view",
      "type": "function"
    },
    {
      "inputs": [
        {
          "internalType": "uint256",
          "name": "organisationId",
          "type": "uint256"
        }
      ],
      "name": "getOrganisationView",
      "outputs": [
        {
          "components": [
            {
              "internalType": "uint256",
              "name": "organisationId",
              "type": "uint256"
            },
            {
              "internalType": "bytes32",
              "name": "organisationName",
              "type": "bytes32"
            },
            {
              "components": [
                {
                  "internalType": "bytes32",
                  "name": "digest",
                  "type": "bytes32"
                },
                {
                  "internalType": "uint8",
                  "name": "hashFunction",
                  "type": "uint8"
                },
                {
                  "internalType": "uint8",
                  "name": "size",
                  "type": "uint8"
                }
              ],
              "internalType": "struct IPFSHash",
              "name": "organisationBioIPFSHash",
              "type": "tuple"
            },
            {
              "components": [
                {
                  "internalType": "bytes32",
                  "name": "digest",
                  "type": "bytes32"
                },
                {
                  "internalType": "uint8",
                  "name": "hashFunction",
                  "type": "uint8"
                },
                {
                  "internalType": "uint8",
                  "name": "size",
                  "type": "uint8"
                }
              ],
              "internalType": "struct IPFSHash",
              "name": "organisationProfilePhotoHash",
              "type": "tuple"
            },
            {
              "internalType": "int8",
              "name": "organisationProfileAvatar",
              "type": "int8"
            },
            {
              "internalType": "bytes32",
              "name": "organisationTwitter_handle",
              "type": "bytes32"
            },
            {
              "internalType": "bytes32",
              "name": "organisationFacebook_handle",
              "type": "bytes32"
            },
            {
              "internalType": "bytes32",
              "name": "organisationInstagram_handle",
              "type": "bytes32"
            },
            {
              "internalType": "bytes32",
              "name": "organisationExternal_link",
              "type": "bytes32"
            },
            {
              "internalType": "uint256",
              "name": "createdOn",
              "type": "uint256"
            },
            {
              "internalType": "bytes32",
              "name": "username",
              "type": "bytes32"
            },
            {
              "internalType": "uint256[]",
              "name": "tags",
              "type": "uint256[]"
            }
          ],
          "internalType": "struct Organisation",
          "name": "",
          "type": "tuple"
        }
      ],
      "stateMutability": "view",
      "type": "function"
    },
    {
      "inputs": [],
      "name": "getTotalUserCount",
      "outputs": [
        {
          "internalType": "uint256",
          "name": "",
          "type": "uint256"
        }
      ],
      "stateMutability": "view",
      "type": "function"
    },
    {
      "inputs": [
        {
          "internalType": "uint256",
          "name": "user",
          "type": "uint256"
        }
      ],
      "name": "getUserVerificationStatus",
      "outputs": [
        {
          "internalType": "enum UserHumanityVerificationStatus",
          "name": "status",
          "type": "uint8"
        },
        {
          "internalType": "uint256",
          "name": "validUntil",
          "type": "uint256"
        }
      ],
      "stateMutability": "view",
      "type": "function"
    },
    {
      "inputs": [
        {
          "internalType": "address",
          "name": "userAddress",
          "type": "address"
        }
      ],
      "name": "getUsersOrganisationsId",
      "outputs": [
        {
          "internalType": "uint256[]",
          "name": "",
          "type": "uint256[]"
        }
      ],
      "stateMutability": "view",
      "type": "function"
    },
    {
      "inputs": [
        {
          "internalType": "address",
          "name": "userAddress",
          "type": "address"
        },
        {
          "internalType": "uint256",
          "name": "organisationId",
          "type": "uint256"
        }
      ],
      "name": "isAddressMemberOfOrganisation",
      "outputs": [
        {
          "internalType": "bool",
          "name": "",
          "type": "bool"
        }
      ],
      "stateMutability": "view",
      "type": "function"
    },
    {
      "inputs": [
        {
          "components": [
            {
              "internalType": "address",
              "name": "user",
              "type": "address"
            },
            {
              "internalType": "uint256",
              "name": "time",
              "type": "uint256"
            },
            {
              "components": [
                {
                  "internalType": "bytes32",
                  "name": "r",
                  "type": "bytes32"
                },
                {
                  "internalType": "bytes32",
                  "name": "s",
                  "type": "bytes32"
                },
                {
                  "internalType": "uint256",
                  "name": "v",
                  "type": "uint256"
                }
              ],
              "internalType": "struct SignatureRSV",
              "name": "rsv",
              "type": "tuple"
            }
          ],
          "internalType": "struct SignIn",
          "name": "auth",
          "type": "tuple"
        },
        {
          "internalType": "address",
          "name": "profile_address",
          "type": "address"
        }
      ],
      "name": "isAuthenticated",
      "outputs": [
        {
          "internalType": "bool",
          "name": "",
          "type": "bool"
        }
      ],
      "stateMutability": "view",
      "type": "function"
    },
    {
      "inputs": [
        {
          "internalType": "string",
          "name": "action",
          "type": "string"
        }
      ],
      "name": "isGaslessActionAllowed",
      "outputs": [
        {
          "internalType": "bool",
          "name": "",
          "type": "bool"
        }
      ],
      "stateMutability": "view",
      "type": "function"
    },
    {
      "inputs": [
        {
          "internalType": "uint256",
          "name": "organisationId",
          "type": "uint256"
        }
      ],
      "name": "isOrganisationIDValid",
      "outputs": [
        {
          "internalType": "bool",
          "name": "",
          "type": "bool"
        }
      ],
      "stateMutability": "view",
      "type": "function"
    },
    {
      "inputs": [
        {
          "internalType": "uint256",
          "name": "organisationId",
          "type": "uint256"
        },
        {
          "components": [
            {
              "internalType": "address",
              "name": "user",
              "type": "address"
            },
            {
              "internalType": "uint256",
              "name": "time",
              "type": "uint256"
            },
            {
              "components": [
                {
                  "internalType": "bytes32",
                  "name": "r",
                  "type": "bytes32"
                },
                {
                  "internalType": "bytes32",
                  "name": "s",
                  "type": "bytes32"
                },
                {
                  "internalType": "uint256",
                  "name": "v",
                  "type": "uint256"
                }
              ],
              "internalType": "struct SignatureRSV",
              "name": "rsv",
              "type": "tuple"
            }
          ],
          "internalType": "struct SignIn",
          "name": "auth",
          "type": "tuple"
        }
      ],
      "name": "listAllMembersOfOrganisation",
      "outputs": [
        {
          "internalType": "address[]",
          "name": "",
          "type": "address[]"
        }
      ],
      "stateMutability": "view",
      "type": "function"
    },
    {
      "inputs": [
        {
          "internalType": "address",
          "name": "userAddress",
          "type": "address"
        },
        {
          "internalType": "uint256",
          "name": "organisationId",
          "type": "uint256"
        }
      ],
      "name": "removeUserFromOrganisation",
      "outputs": [],
      "stateMutability": "nonpayable",
      "type": "function"
    },
    {
      "inputs": [
        {
          "internalType": "string",
          "name": "search_term",
          "type": "string"
        },
        {
          "internalType": "uint256",
          "name": "_pageSize",
          "type": "uint256"
        },
        {
          "internalType": "uint256",
          "name": "_pageOffset",
          "type": "uint256"
        }
      ],
      "name": "searchMultipleUsersbyUsername",
      "outputs": [
        {
          "components": [
            {
              "internalType": "bytes32",
              "name": "username",
              "type": "bytes32"
            },
            {
              "internalType": "uint256",
              "name": "userId",
              "type": "uint256"
            },
            {
              "internalType": "bool",
              "name": "isOrganisation",
              "type": "bool"
            },
            {
              "internalType": "bytes32",
              "name": "firstName",
              "type": "bytes32"
            },
            {
              "internalType": "bytes32",
              "name": "lastName",
              "type": "bytes32"
            },
            {
              "components": [
                {
                  "internalType": "bytes32",
                  "name": "digest",
                  "type": "bytes32"
                },
                {
                  "internalType": "uint8",
                  "name": "hashFunction",
                  "type": "uint8"
                },
                {
                  "internalType": "uint8",
                  "name": "size",
                  "type": "uint8"
                }
              ],
              "internalType": "struct IPFSHash",
              "name": "profilePhotoHash",
              "type": "tuple"
            },
            {
              "internalType": "int8",
              "name": "profileAvatar",
              "type": "int8"
            }
          ],
          "internalType": "struct UserSearchResultStruct[]",
          "name": "",
          "type": "tuple[]"
        }
      ],
      "stateMutability": "view",
      "type": "function"
    },
    {
      "inputs": [
        {
          "internalType": "bytes32",
          "name": "_input",
          "type": "bytes32"
        }
      ],
      "name": "toLower",
      "outputs": [
        {
          "internalType": "bytes32",
          "name": "",
          "type": "bytes32"
        }
      ],
      "stateMutability": "pure",
      "type": "function"
    },
    {
      "inputs": [
        {
          "internalType": "string",
          "name": "action",
          "type": "string"
        },
        {
          "internalType": "bool",
          "name": "allowed",
          "type": "bool"
        }
      ],
      "name": "updateGaslessActionAllowed",
      "outputs": [],
      "stateMutability": "nonpayable",
      "type": "function"
    },
    {
      "inputs": [
        {
          "internalType": "uint256",
          "name": "givenOrganisationId",
          "type": "uint256"
        },
        {
          "components": [
            {
              "internalType": "bytes32",
              "name": "organisationUserName",
              "type": "bytes32"
            },
            {
              "internalType": "bytes32",
              "name": "organisationName",
              "type": "bytes32"
            },
            {
              "components": [
                {
                  "internalType": "bytes32",
                  "name": "digest",
                  "type": "bytes32"
                },
                {
                  "internalType": "uint8",
                  "name": "hashFunction",
                  "type": "uint8"
                },
                {
                  "internalType": "uint8",
                  "name": "size",
                  "type": "uint8"
                }
              ],
              "internalType": "struct IPFSHash",
              "name": "organisationBioIPFSHash",
              "type": "tuple"
            },
            {
              "components": [
                {
                  "internalType": "bytes32",
                  "name": "digest",
                  "type": "bytes32"
                },
                {
                  "internalType": "uint8",
                  "name": "hashFunction",
                  "type": "uint8"
                },
                {
                  "internalType": "uint8",
                  "name": "size",
                  "type": "uint8"
                }
              ],
              "internalType": "struct IPFSHash",
              "name": "organisationProfilePhotoHash",
              "type": "tuple"
            },
            {
              "internalType": "int8",
              "name": "organisationProfileAvatar",
              "type": "int8"
            },
            {
              "internalType": "bytes32",
              "name": "organisationTwitter_handle",
              "type": "bytes32"
            },
            {
              "internalType": "bytes32",
              "name": "organisationFacebook_handle",
              "type": "bytes32"
            },
            {
              "internalType": "bytes32",
              "name": "organisationInstagram_handle",
              "type": "bytes32"
            },
            {
              "internalType": "bytes32",
              "name": "organisationExternal_link",
              "type": "bytes32"
            },
            {
              "internalType": "uint256[]",
              "name": "tagsIds",
              "type": "uint256[]"
            }
          ],
          "internalType": "struct OrganisationCreationRequest",
          "name": "request",
          "type": "tuple"
        }
      ],
      "name": "updateOrganisationData",
      "outputs": [],
      "stateMutability": "nonpayable",
      "type": "function"
    },
    {
      "inputs": [
        {
          "components": [
            {
              "internalType": "address",
              "name": "user",
              "type": "address"
            },
            {
              "internalType": "bytes32",
              "name": "firstName",
              "type": "bytes32"
            },
            {
              "internalType": "bytes32",
              "name": "lastName",
              "type": "bytes32"
            },
            {
              "internalType": "bytes32",
              "name": "bio",
              "type": "bytes32"
            },
            {
              "internalType": "bytes32",
              "name": "digest",
              "type": "bytes32"
            },
            {
              "internalType": "uint8",
              "name": "hashFunction",
              "type": "uint8"
            },
            {
              "internalType": "uint8",
              "name": "size",
              "type": "uint8"
            },
            {
              "internalType": "uint8",
              "name": "profileAvatar",
              "type": "uint8"
            },
            {
              "internalType": "bytes32",
              "name": "twitter_handle",
              "type": "bytes32"
            },
            {
              "internalType": "bytes32",
              "name": "facebook_handle",
              "type": "bytes32"
            },
            {
              "internalType": "bytes32",
              "name": "instagram_handle",
              "type": "bytes32"
            },
            {
              "internalType": "bytes32",
              "name": "external_link",
              "type": "bytes32"
            },
            {
              "internalType": "bytes32",
              "name": "password",
              "type": "bytes32"
            }
          ],
          "internalType": "struct userSignupRequest",
          "name": "request",
          "type": "tuple"
        }
      ],
      "name": "updateUserData",
      "outputs": [],
      "stateMutability": "nonpayable",
      "type": "function"
    },
    {
      "inputs": [
        {
          "internalType": "address",
          "name": "user",
          "type": "address"
        },
        {
          "internalType": "bool",
          "name": "verified",
          "type": "bool"
        },
        {
          "internalType": "uint256",
          "name": "validUntil",
          "type": "uint256"
        }
      ],
      "name": "updateUserVerificationStatus",
      "outputs": [],
      "stateMutability": "nonpayable",
      "type": "function"
    },
    {
      "inputs": [
        {
          "components": [
            {
              "internalType": "address",
              "name": "user",
              "type": "address"
            },
            {
              "internalType": "bytes32",
              "name": "firstName",
              "type": "bytes32"
            },
            {
              "internalType": "bytes32",
              "name": "lastName",
              "type": "bytes32"
            },
            {
              "internalType": "bytes32",
              "name": "bio",
              "type": "bytes32"
            },
            {
              "internalType": "bytes32",
              "name": "digest",
              "type": "bytes32"
            },
            {
              "internalType": "uint8",
              "name": "hashFunction",
              "type": "uint8"
            },
            {
              "internalType": "uint8",
              "name": "size",
              "type": "uint8"
            },
            {
              "internalType": "uint8",
              "name": "profileAvatar",
              "type": "uint8"
            },
            {
              "internalType": "bytes32",
              "name": "twitter_handle",
              "type": "bytes32"
            },
            {
              "internalType": "bytes32",
              "name": "facebook_handle",
              "type": "bytes32"
            },
            {
              "internalType": "bytes32",
              "name": "instagram_handle",
              "type": "bytes32"
            },
            {
              "internalType": "bytes32",
              "name": "external_link",
              "type": "bytes32"
            },
            {
              "internalType": "bytes32",
              "name": "password",
              "type": "bytes32"
            }
          ],
          "internalType": "struct userSignupRequest",
          "name": "request",
          "type": "tuple"
        }
      ],
      "name": "userSignupWithProxy",
      "outputs": [
        {
          "internalType": "bool",
          "name": "",
          "type": "bool"
        }
      ],
      "stateMutability": "nonpayable",
      "type": "function"
    },
    {
      "inputs": [
        {
          "components": [
            {
              "internalType": "address",
              "name": "user",
              "type": "address"
            },
            {
              "internalType": "bytes32",
              "name": "firstName",
              "type": "bytes32"
            },
            {
              "internalType": "bytes32",
              "name": "lastName",
              "type": "bytes32"
            },
            {
              "internalType": "bytes32",
              "name": "bio",
              "type": "bytes32"
            },
            {
              "internalType": "bytes32",
              "name": "digest",
              "type": "bytes32"
            },
            {
              "internalType": "uint8",
              "name": "hashFunction",
              "type": "uint8"
            },
            {
              "internalType": "uint8",
              "name": "size",
              "type": "uint8"
            },
            {
              "internalType": "uint8",
              "name": "profileAvatar",
              "type": "uint8"
            },
            {
              "internalType": "bytes32",
              "name": "twitter_handle",
              "type": "bytes32"
            },
            {
              "internalType": "bytes32",
              "name": "facebook_handle",
              "type": "bytes32"
            },
            {
              "internalType": "bytes32",
              "name": "instagram_handle",
              "type": "bytes32"
            },
            {
              "internalType": "bytes32",
              "name": "external_link",
              "type": "bytes32"
            },
            {
              "internalType": "bytes32",
              "name": "password",
              "type": "bytes32"
            }
          ],
          "internalType": "struct userSignupRequest",
          "name": "requests",
          "type": "tuple"
        }
      ],
      "name": "userSignupWithoutProxy",
      "outputs": [
        {
          "internalType": "bool",
          "name": "",
          "type": "bool"
        }
      ],
      "stateMutability": "nonpayable",
      "type": "function"
    },
    {
      "inputs": [
        {
          "internalType": "uint256",
          "name": "organisationId",
          "type": "uint256"
        }
      ],
      "name": "verifyOrganisationVerificationStatus",
      "outputs": [
        {
          "internalType": "bool",
          "name": "",
          "type": "bool"
        }
      ],
      "stateMutability": "view",
      "type": "function"
    },
    {
      "inputs": [
        {
          "internalType": "uint256",
          "name": "user",
          "type": "uint256"
        }
      ],
      "name": "verifyUserHumanity",
      "outputs": [
        {
          "internalType": "bool",
          "name": "",
          "type": "bool"
        }
      ],
      "stateMutability": "view",
      "type": "function"
    }
  ],
  "bytecode": "0x60806040523462000030576200001e62000018620000d3565b62000249565b60405161513a62000320823961513a90f35b600080fd5b634e487b7160e01b600052604160045260246000fd5b90601f01601f191681019081106001600160401b038211176200006d57604052565b62000035565b906200008a6200008260405190565b92836200004b565b565b6001600160a01b031690565b90565b6001600160a01b038116036200003057565b905051906200008a826200009b565b9060208282031262000030576200009891620000ad565b620000986200545a80380380620000ea8162000073565b928339810190620000bc565b62000098906200008c906001600160a01b031682565b6200009890620000f6565b62000098906200010c565b906001600160a01b03905b9181191691161790565b906200014b62000098620001539262000117565b825462000122565b9055565b6001600160401b0381116200006d57602090601f01601f19160190565b906200018a620001848362000157565b62000073565b918252565b6200019b600a62000174565b690757365725369676e75760b41b602082015290565b620000986200018f565b9060ff906200012d565b90620001d8620000986200015392151590565b8254620001bb565b620001ec601062000174565b6f3ab9b2b929bab93b32bca0b739bbb2b960811b602082015290565b62000098620001e0565b6200009862000098620000989290565b90600019906200012d565b906200024162000098620001539262000212565b825462000222565b620002626200026a916200025c6200030e565b62000117565b600662000137565b620002da6001620002ae6007620002b483620002ae62000289620001b1565b6200029d62000296825190565b9160200190565b208490600052602052604060002090565b620001c5565b620002be62000208565b620002cb62000296825190565b20600052602052604060002090565b620002f4620002ec6202223662000212565b600a6200022d565b6200008a62000306620da3c462000212565b600b6200022d565b6200008a6200008a600080620001c556fe6080604052600436101561001257600080fd5b60003560e01c8063014629d2146102a257806313061fff1461029d57806317cfac6c14610298578063180d3845146102935780631ec3bcb41461028e578063229b47d114610289578063271204a2146102845780632c4f5da61461027f5780633d43eade1461027a57806340e0ae0a146102755780634291659114610270578063484e08b21461026b578063498380601461026657806352e8cce814610261578063560693321461025c578063566c3f9c14610257578063651fd5c0146102525780636bc984e81461024d5780636c7d65e8146102485780637038f1571461024357806375b238fc1461023e5780637b94967d1461023957806381a6ab731461023457806387ac7e5e1461022f57806388accbec1461022a57806390bf7e27146102255780639667e16314610220578063aed32c2a1461021b578063b47c7d5d14610216578063bb46e7ff14610211578063bf50852f1461020c578063c7977be714610207578063c7d480fb14610202578063d026ab5a146101fd578063d38aac92146101f8578063e6aa79bb146101f3578063e7705db6146101ee578063e8d00442146101e9578063ed70acd3146101e4578063f01593a9146101df5763f86b5412036102a7576113d9565b611322565b6112cb565b611291565b611258565b61123d565b611222565b611207565b6111e0565b6110d8565b6110c0565b6110a5565b61108a565b611062565b610f52565b610f15565b610ee7565b610eb6565b610e69565b610dd3565b610d9a565b610d73565b610cfd565b610c73565b610bf0565b610b91565b610b75565b610b59565b610af9565b610aa9565b6109a9565b610951565b6108db565b610854565b6105eb565b6105d2565b610591565b610525565b6103b5565b610369565b6102df565b600080fd5b805b036102a757565b905035906102c2826102ac565b565b906020828203126102a7576102d8916102b5565b90565b9052565b346102a75761030c6102fa6102f53660046102c4565b611a7a565b60405191829182901515815260200190565b0390f35b908160a09103126102a75790565b6001600160a01b031690565b6001600160a01b0381166102ae565b905035906102c28261032a565b919060c0838203126102a7576102d8906103608185610310565b9360a001610339565b346102a75761030c6102fa61037f366004610346565b90611518565b60009103126102a757565b6102d8916008021c5b60ff1690565b906102d89154610390565b6102d860008061039f565b346102a7576103c5366004610385565b61030c6102fa6103aa565b805182526102c29190604090819060208181015160ff1690850152015160ff16910152565b0190565b90610419610412610408845190565b8084529260200190565b9260200190565b9060005b81811061042a5750505090565b9091926104476104406001928651815260200190565b9460200190565b92910161041d565b805182526102d8916102008101916101609061047060208201516020850152565b610482604082015160408501906103d0565b610494606082015160a08501906103d0565b608081015160000b6101008401526104b260a0820151610120850152565b6104c260c0820151610140850152565b6104d060e082015183850152565b6104e1610100820151610180850152565b6104f26101208201516101a0850152565b6105036101408201516101c0850152565b0151906101e08184039101526103f9565b60208082526102d89291019061044f565b346102a75761030c61054061053b3660046102c4565b614296565b60405191829182610514565b8015156102ae565b905035906102c28261054c565b90916060828403126102a7576102d861057a8484610339565b936105888160208601610554565b936040016102b5565b346102a7576105aa6105a4366004610561565b916147f0565b604051005b91906040838203126102a7576102d8906105c98185610339565b936020016102b5565b346102a7576105aa6105e53660046105af565b9061352c565b346102a75761030c6106066106013660046102c4565b612c35565b6040519182918290815260200190565b9060a0828203126102a7576102d891610310565b634e487b7160e01b600052602160045260246000fd5b6004111561064a57565b61062a565b906102c282610640565b6102d89061064f565b6102db90610659565b6003111561064a57565b906102c28261066b565b6102d890610675565b6102db9061067f565b805182526020808201516001600160a01b0316908301526102c2919061026090610220906106c460408201516040860152565b6106d360608201516060860152565b6106e260808201516080860152565b6106f460a082015160a08601906103d0565b60c081015160ff1661010085015261071260e0820151610120860152565b610723610100820151610140860152565b610734610120820151610160860152565b610745610140820151610180860152565b6107566101608201516101a0860152565b6107676101808201516101c0860152565b61077b6101a08201516101e0860190610662565b61078f6101c0820151610200860190610688565b61079e6101e082015183860152565b6107af610200820151610240860152565b01511515910152565b906102d89161044f565b906107d86107ce835190565b8083529160200190565b90816107ea6020830284019460200190565b926000915b8383106107fe57505050505090565b9091929394602061082161081a838560019503875289516107b8565b9760200190565b93019301919392906107ef565b916102d8926108466102a08201936000830190610691565b6102808184039101526107c2565b346102a75761086c610867366004610616565b613518565b9061030c61087960405190565b9283928361082e565b906103f5816060936103d0565b9061089e610412610408845190565b9060005b8181106108af5750505090565b9091926108c26104406001928651610882565b9291016108a2565b60208082526102d89291019061088f565b346102a75761030c6108f66108f13660046102c4565b612bd7565b604051918291826108ca565b61091261090e60029390565b9190565b6000915b8383106109235750505050565b61093861041260019284511515815260200190565b92019190610916565b6040810192916102c29190610902565b346102a75761030c61096c610967366004610616565b614f05565b60405191829182610941565b908160609103126102a75790565b91906080838203126102a7576102d8906109a081856102b5565b93602001610978565b346102a7576105aa6109bc366004610986565b90612a32565b634e487b7160e01b600052604160045260246000fd5b90601f01601f191681019081106001600160401b038211176109f957604052565b6109c2565b906102c2610a0b60405190565b92836109d8565b6001600160401b0381116109f957602090601f01601f19160190565b90826000939282370152565b90929192610a4f610a4a82610a12565b6109fe565b938185526020850190828401116102a7576102c292610a2e565b9080601f830112156102a7578160206102d893359101610a3a565b906020828203126102a75781356001600160401b0381116102a7576102d89201610a69565b346102a75761030c6102fa610abf366004610a84565b613a39565b91906040838203126102a7578235906001600160401b0382116102a757610af0816102d8938601610a69565b93602001610554565b346102a7576105aa610b0c366004610ac4565b90613940565b9190916040818403126102a75780356001600160401b0381116102a75783610b3b918301610a69565b9260208201356001600160401b0381116102a7576102d89201610a69565b346102a75761030c6102fa610b6f366004610b12565b906145be565b346102a75761030c6102fa610b8b3660046105af565b90612eca565b346102a75761030c610606610ba73660046102c4565b611b7a565b90816101c09103126102a75790565b9190916040818403126102a757610bd283826102b5565b9260208201356001600160401b0381116102a7576102d89201610bac565b346102a7576105aa610c03366004610bbb565b90612640565b6102d8916008021c6001600160a01b031690565b906102d89154610c09565b6102d860006006610c1d565b6102d89061031e906001600160a01b031682565b6102d890610c34565b6102d890610c48565b6102db90610c51565b6020810192916102c29190610c5a565b346102a757610c83366004610385565b61030c610c8e610c28565b60405191829182610c63565b906020828203126102a7576102d891610339565b90610cbd610412610408845190565b9060005b818110610cce5750505090565b909192610ce46104406001928651815260200190565b929101610cc1565b60208082526102d892910190610cae565b346102a75761030c610d18610d13366004610c9a565b612d01565b60405191829182610cec565b90610d33610412610408845190565b9060005b818110610d445750505090565b909192610d5a6104406001928651815260200190565b929101610d37565b60208082526102d892910190610d24565b346102a757610d83366004610385565b61030c610d8e611d11565b60405191829182610d62565b346102a757610daa366004610385565b61030c7fa49807205ce4d355092ef5a8a18f56e8913cf4a201fbe287825b095693c21775610606565b346102a75761030c6102fa610de93660046102c4565b6149fb565b919060c0838203126102a7576102d890610e0881856102b5565b93602001610310565b90610e20610412610408845190565b9060005b818110610e315750505090565b909192610e5061044060019286516001600160a01b0316815260200190565b929101610e24565b60208082526102d892910190610e11565b346102a75761030c610e85610e7f366004610dee565b906135d4565b60405191829182610e58565b906020828203126102a75781356001600160401b0381116102a7576102d89201610bac565b346102a75761030c610606610ecc366004610e91565b61229d565b9081526080810192916102c291602001906103d0565b346102a757610eff610efa3660046102c4565b6138eb565b9061030c610f0c60405190565b92839283610ed1565b346102a7576105aa610f283660046105af565b906136cc565b90816101a09103126102a75790565b906101a0828203126102a7576102d891610f2e565b346102a7576105aa610f65366004610f3d565b614032565b90916060828403126102a75781356001600160401b0381116102a757610f95846102d8928501610a69565b9361058881602086016102b5565b805182526102c291906101009060c090610fc260208201516020860152565b604081810151151590850152610fdd60608201516060860152565b610fec60808201516080860152565b610ffe60a082015160a08601906103d0565b015160000b910152565b906103f58161012093610fa3565b90611025610412610408845190565b9060005b8181106110365750505090565b9091926110496104406001928651611008565b929101611029565b60208082526102d892910190611016565b346102a75761030c61107e611078366004610f6a565b916143f3565b60405191829182611051565b346102a75761030c6106066110a0366004610c9a565b6117ee565b346102a75761030c6102fa6110bb366004610f3d565b613b0a565b346102a7576105aa6110d33660046102c4565b614d73565b346102a7576110e8366004610385565b61030c7f8b73c3c69bb8fe3d512ecc4cf759cc79239f7b179b0ffacaa9a75d522b39400f610606565b9061111e610a4a83610a12565b918252565b61112d6021611111565b7f5369676e496e286164647265737320757365722c75696e743235362074696d656020820152602960f81b604082015290565b6102d8611123565b6102d8611160565b6102d8611168565b60005b83811061118b5750506000910152565b818101518382015260200161117b565b6111bc6111c56020936103f5936111b0815190565b80835293849260200190565b95869101611178565b601f01601f191690565b60208082526102d89291019061119b565b346102a7576111f0366004610385565b61030c6111fb611170565b604051918291826111cf565b346102a75761030c6102fa61121d3660046102c4565b611c4c565b346102a757611232366004610385565b61030c610606614c67565b346102a75761030c6102fa6112533660046102c4565b6148a7565b346102a757611268366004610385565b61030c7f0ce23c3e399818cfee81a7ab0880f714e53d7672b08df0fa62f2843416e1ea09610606565b346102a75761030c6102fa6112a7366004610f3d565b614000565b9160206102c29294936112c760408201966000830190610688565b0152565b346102a7576112e36112de3660046102c4565b6147d5565b9061030c6112f060405190565b928392836112ac565b6113046102d8611168565b61131661130f825190565b9160200190565b2090565b6102d86112f9565b346102a757611332366004610385565b61030c61060661131a565b909182601f830112156102a7578135916001600160401b0383116102a75760200192602083028401116102a757565b906060828203126102a75781356001600160401b0381116102a7578161139391840161133d565b92909360208201356001600160401b0381116102a757836113b591840161133d565b92909360408201356001600160401b0381116102a7576113d5920161133d565b9091565b346102a7576105aa6113ec36600461136c565b94939093929192614b04565b909594926102c29461142a6114319261142360809661141c60a088019c6000890152565b6020870152565b6040850152565b6060830152565b01906001600160a01b03169052565b356102d8816102ac565b6102d86102d86102d89290565b634e487b7160e01b600052601160045260246000fd5b9190820391821161147a57565b611457565b356102d88161032a565b9081526001600160a01b0390911660208201526060810192916102c29160400152565b60208093926114c961111e6103f59461190160f01b815260020190565b01918252565b6103996102d86102d89290565b6112c76102c2946115056060949897956114fb608086019a6000870152565b60ff166020850152565b6040830152565b6040513d6000823e3d90fd5b906115a87f8b73c3c69bb8fe3d512ecc4cf759cc79239f7b179b0ffacaa9a75d522b39400f7f1a7269e4dc8453fd670842087ab5e2c2fc4976430b8d8d6dcb3d1f00df9e8ab99061159c7fc89efdaa54c0f20c7adf612882df0950f5a951637e0307cdcb4c672f298b8bc6944661158e60405190565b9687956020870195866113f8565b908103825203826109d8565b6115b361130f825190565b2060208201906115c282611440565b6115de61090e6102d8426115d86201518061144a565b9061146d565b106116e157600061159c61164e83602094506115f86112f9565b61162b8589019761161161160b8a61147f565b91611440565b9261159c61161e60405190565b9485938b85019384611489565b61163661130f825190565b209061164160405190565b93849287840192836114ac565b61165961130f825190565b2060408501906116a061167661167160408501611440565b6114cf565b9261168d86611686878401611440565b9201611440565b9061169760405190565b948594856114dc565b838052039060015afa156116dc576116cb61031e6116d8926116c460005160001b90565b945061147f565b916001600160a01b031690565b1490565b61150c565b505050600090565b6102d89061031e565b6102d890546116e9565b905051906102c28261032a565b906020828203126102a7576102d8916116fc565b61031e6102d86102d89290565b6102d89061171d565b1561173a57565b60405162461bcd60e51b815260206004820152601f60248201527f53757276657920636f6e74726163742061646472657373206e6f7420736574006044820152606490fd5b0390fd5b1561178a57565b60405162461bcd60e51b8152602060048201526013602482015272556e617574686f72697a65642061636365737360681b6044820152606490fd5b906117cf90610c51565b600052602052604060002090565b6102d89081565b6102d890546117dd565b6118006117fb60066116f2565b610c51565b63fbcb54ef90602061181160405190565b809261181d8560e01b90565b825260049082905afa9081156116dc57600091611a06575b506000906118428261172a565b906118556001600160a01b0383166116cb565b1415908161197c575b5061186890611733565b6118896020339361187c6117fb60066116f2565b6040515b93849260e01b90565b825260049082905afa80156116dc576118b091839161194e575b506001600160a01b031690565b6001600160a01b038316149182156118e1575b50506102d8916118d56118dc92611783565b60036117c5565b6117e4565b61190f9391925060206118f76117fb60066116f2565b63999166769061190660405190565b96879260e01b90565b825260049082905afa9081156116dc576119436116cb6118d5936102d8976118dc979161194e57506001600160a01b031690565b1492508193506118c3565b61196f915060203d8111611975575b61196781836109d8565b810190611709565b386118a3565b503d61195d565b6119a8915060206119906117fb60066116f2565b63685cc9cd9061199f60405190565b94859260e01b90565b825260049082905afa9081156116dc576118689284926119de575b506119d6906001600160a01b03166116cb565b14159061185e565b6119d69192506119fe6116cb9160203d81116119755761196781836109d8565b9291506119c3565b611a1e915060203d81116119755761196781836109d8565b38611835565b15611a2b57565b60405162461bcd60e51b815260206004820152601760248201527f4f6e6c7920416c6c6f7765642066726f6d205661756c740000000000000000006044820152606490fd5b906117cf9061144a565b611aa79033906020611a8f6117fb60066116f2565b63a92ea0e090611a9e60405190565b95869260e01b90565b825260049082905afa9081156116dc57611ae5600b93611adf6116cb611aec95611af29860009161194e57506001600160a01b031690565b14611a24565b600d611a70565b016117e4565b600090611b0161090e8361144a565b146102d85750600190565b600019811461147a5760010190565b634e487b7160e01b600052603260045260246000fd5b611b44611b3e6102d89290565b60f81b90565b6001600160f81b03191690565b8181029291811591840414171561147a57565b6102d890611b7561090e6102d89490565b901c90565b906000611b87600061144a565b905b602090611b958261144a565b831015611c405781831015611c3b57611bfe611be5611c0593611bba88871a60f81b90565b8091611bc66041611b31565b6001600160f81b03198316101580611c1e575b611c0b575b5050611b44565b611bf8611bf2600861144a565b86611b51565b90611b64565b1791611b0c565b90611b89565b611c16919250611b31565b173880611bde565b50611c29605a611b31565b6001600160f81b031983161115611bd9565b611b1b565b93505050565b906117cf565b6118dc611c64611c6b92611c5e600090565b50611b7a565b6002611c46565b600090611c7a61090e8361144a565b036102d85750600190565b90611ca0611c94610408845490565b92600052602060002090565b9060005b818110611cb15750505090565b909192611cd5611cce600192611cc6876117e4565b815260200190565b9460010190565b929101611ca4565b906102d891611c85565b906102c2611d0192611cf860405190565b93848092611cdd565b03836109d8565b6102d890611ce7565b6102d86001611d08565b905051906102c28261054c565b906020828203126102a7576102d891611d1b565b15611d4357565b60405162461bcd60e51b815260206004820152601760248201527f557365726e616d6520616c7265616479206578697374730000000000000000006044820152606490fd5b9190820180921161147a57565b6102ae8160000b90565b356102d881611d95565b903590601e1936829003018212156102a757018035906001600160401b0382116102a7576020019160208202360383136102a757565b6102d86101806109fe565b60ff81166102ae565b905035906102c282611dea565b9190916060818403126102a757611e47611e1a60606109fe565b936000611e2782856102b5565b908601526020611e3982828601611df3565b908601526040809301611df3565b90830152565b6102d8903690611e00565b6001600160401b0381116109f95760208091020190565b90929192611e7f610a4a82611e58565b93818552602080860192028301928184116102a757915b838310611ea35750505050565b60208091611eb184866102b5565b815201920191611e96565b6102d8913691611e6f565b634e487b7160e01b600052600060045260246000fd5b90600019905b9181191691161790565b90611efd6102d8611f049261144a565b8254611edd565b9055565b90611efd6102d8611f049290565b9060ff90611ee3565b6103996102d86102d89260ff1690565b90611f3f6102d8611f0492611f1f565b8254611f16565b9061ff009060081b611ee3565b90611f636102d8611f0492611f1f565b8254611f46565b6102c29190611fac90604090600190611f8b81611f85875190565b90611f08565b0192611fa4611f9e602083015160ff1690565b85611f2f565b015160ff1690565b90611f53565b906102c291611f6a565b611fcc6102d86102d89260000b90565b60000b90565b90611f3f6102d8611f0492611fbc565b9160001960089290920291821b911b611ee3565b91906120076102d8611f049361144a565b908354611fe2565b6102c291600091611ff6565b818110612026575050565b80612034600060019361200f565b0161201b565b909182811061204857505050565b6102c2929061205690611c94565b908101910161201b565b90600160401b81116109f957816120786102c2935490565b9082815561203a565b6102d8916008021c81565b8151916001600160401b0383116109f9576120b6611c946001926120b08686612060565b60200190565b92049160005b8381106120c95750505050565b60019060206120d96102d8865190565b94019381840155016120bc565b906102c29161208c565b6102c291906121df9061016090600d906121128161210c875190565b90611eed565b61212460018201611f85602088015190565b61213c60028201612136604088015190565b90611fb2565b61214e60048201612136606088015190565b61216960068201612163608088015160000b90565b90611fd2565b61217b60078201611f8560a088015190565b61218d60088201611f8560c088015190565b61219f60098201611f8560e088015190565b6121b2600a8201611f8561010088015190565b6121c5600b820161210c61012088015190565b6121d8600c8201611f8561014088015190565b0192015190565b906120e6565b906102c2916120f0565b8054821015611c3b57612209600191600052602060002090565b91020190600090565b90815491600160401b8310156109f957826122359160016102c2950181556121ef565b90611ff6565b91906120076102d8611f049390565b90815491600160401b8310156109f9578261226d9160016102c2950181556121ef565b9061223b565b6102ae816116e9565b905051906102c282612273565b906020828203126102a7576102d89161227c565b6122a6336125d5565b906122b7600d611aec84600c611a70565b916000926122c761090e8561144a565b146125c357612315916122d930610c51565b602063d026ab5a868401926123076122f085611440565b926122fa60405190565b9889948593849360e01b90565b835260048301526024820190565b03915afa9384156116dc578594612333918691612595575b50611d3c565b61233c81611440565b61234590611b7a565b92612350600b6117e4565b61235a600161144a565b61236391611d88565b958680956020860161237490611440565b90866040810160a0820161238b6101008401611d9f565b6123986101208501611440565b6123a56101408601611440565b916123b36101608701611440565b936123c16101808801611440565b9542976101a081016123d291611da9565b9a909b6123dd611ddf565b9d8e015260208d01526123ef90611e4d565b60408c01526123fd90611e4d565b60608b015260000b60808a015260a089015260c088015260e087015261010086015261012085015261014084015261243491611ebc565b61016082015261244585600d611a70565b9061244f916121e5565b61245a816009611a70565b8461246491612212565b61246f846008611a70565b9061247991612212565b61248483600b611eed565b600561248f82611440565b6124989161224a565b600291506124a590611440565b6124ae91611c46565b906124b891611eed565b6124c260066116f2565b6124cb90610c51565b635e70f306906124da60405190565b60e09290921b8252816004815a93602094fa80156116dc57612503918391612567575b50610c51565b635654bed390803b156102a75761251f91839161188060405190565b825260048201869052602490829084905af180156116dc57612541575b505090565b816102d892903d10612560575b61255881836109d8565b810190610385565b503d61254e565b612588915060203d811161258e575b61258081836109d8565b810190612289565b386124fd565b503d612576565b6125b6915060203d81116125bc575b6125ae81836109d8565b810190611d28565b3861232d565b503d6125a4565b604051636bacb84f60e01b8152600490fd5b6118dc6102d8916125e4600090565b5060036117c5565b356102d881611dea565b6102c29190611fac9060409060019061261281611f8587611440565b0192612623611f9e602083016125ec565b016125ec565b906102c2916125f6565b611fcc6102d86102d89290565b9061265261264e8333612e33565b1590565b61294b57600d90612668600b611aec8585611a70565b60009061267761090e8361144a565b146125c35780820161268881611440565b1515806128dd575b6128cb578461269e82611440565b61287b575b5050602082016126b281611440565b61285d575b50604082016126c8604082016125ec565b6126db6126d4846114cf565b9160ff1690565b03612847575b5060a082016126f2604082016125ec565b6126fe6126d4846114cf565b0361282b575b5061010082019061272761272061271a84611d9f565b92612633565b9160000b90565b13612807575b50610120810161273c81611440565b6127e9575b50610140810161275081611440565b6127cb575b50610160810161276481611440565b6127ad575b50610180810161277881611440565b612783575b50505050565b6127a493600a925061279e9161279890611440565b93611a70565b01611f08565b3880808061277d565b6127b96127c591611440565b600961279e8686611a70565b38612769565b6127d76127e391611440565b600861279e8686611a70565b38612755565b6127f561280191611440565b600761279e8686611a70565b38612741565b61281361282591611d9f565b600661281f8686611a70565b01611fd2565b3861272d565b61284190600461283b8787611a70565b01612629565b38612704565b61285790600261283b8787611a70565b386126e1565b61286961287591611440565b600161279e8787611a70565b386126b7565b6128bf6128a4610ba76128c49461289f61289a600c611aec888d611a70565b614260565b611440565b6128b481600c61279e868b611a70565b611c6481600561224a565b611eed565b38846126a3565b6040516361a21cbf60e11b8152600490fd5b5061291560206128ec30610c51565b63d026ab5a906123076128fe86611440565b9261290860405190565b9586948593849360e01b90565b03915afa80156116dc5761292e91849161293357501590565b612690565b61264e915060203d81116125bc576125ae81836109d8565b604051631cc38d0f60e01b8152600490fd5b156102a757565b8054821015611c3b57612209600291600052602060002090565b919061298d576102c2916125f6565b611ec7565b90815491600160401b8310156109f957826129b59160016102c295018155612964565b9061297e565b506102d89060208101906102b5565b506102d8906020810190611df3565b906040612a1a6102c2936129f76129f360008301836129bb565b8552565b612a11612a0760208301836129ca565b60ff166020860152565b828101906129ca565b60ff16910152565b6060810192916102c291906129d9565b612a42600b611aec83600d611a70565b600090612a5161090e8361144a565b146125c357612a6361264e8333612e33565b61294b57612a8a90612a836126d4612a7d604087016125ec565b926114cf565b141561295d565b612aa182612a9c6102d8846004611a70565b612992565b612ae1612ace7f81bab2172c2e4932d1f5f135987a9dea43cc7a8e1284e42cbec42ee40d4fd3329261144a565b92612ad860405190565b91829182612a22565b0390a2565b9061111e610a4a83611e58565b6102d890610399565b6102d89054612af3565b6102d89060081c610399565b6102d89054612b06565b6102d860606109fe565b906102c2612b666001612b37612b1c565b94612b48612b44826117e4565b8752565b612b60612b56838301612afc565b60ff166020880152565b01612b12565b60ff166040840152565b6102d890612b26565b90612b82825490565b612b8b81612ae6565b92612b9f6020850191600052602060002090565b6000915b838310612bb05750505050565b60026020600192612bc085612b70565b815201920192019190612ba3565b6102d890612b79565b612bee6102d891612be6606090565b506004611a70565b612bce565b15612bfa57565b60405162461bcd60e51b81526020600482015260136024820152722ab730baba3437b934bd32b21031b0b63632b960691b6044820152606490fd5b612c599033906020612c4a6117fb60066116f2565b63fbcb54ef90611a9e60405190565b825260049082905afa9081156116dc57611ae5600c93612c916116cb611aec956102d89860009161194e57506001600160a01b031690565b14612bf3565b90612ca6611c94610408845490565b9060005b818110612cb75750505090565b909192612ccc611cce600192611cc6876117e4565b929101612caa565b906102d891612c97565b906102c2611d0192612cef60405190565b93848092612cd4565b6102d890612cde565b3390612d0f61031e30610c51565b6001600160a01b03831614918215612dcd575b8215612d70575b50612d36612d3b92612bf3565b6125d5565b612d4b600d611aec83600c611a70565b612d5861090e600061144a565b146125c357612d6b6102d8916009611a70565b612cf8565b9150612d936020612d846117fb60066116f2565b63999166769061188060405190565b825260049082905afa9283156116dc57612dc56116cb612d3b95612d369460009161194e57506001600160a01b031690565b149250612d29565b9150612df06020612de16117fb60066116f2565b63fbcb54ef9061188060405190565b825260049082905afa80156116dc57612e179160009161194e57506001600160a01b031690565b6001600160a01b0383161491612d22565b906102d89154612081565b612e3c906125d5565b90612e4d600d611aec84600c611a70565b91600092612e5d61090e8561144a565b146125c357612e6b8361144a565b6009612e816102d8612e7d8584611a70565b5490565b821015612ec357612ea082612e9b8584612ea69550611a70565b6121ef565b90612e28565b8314612eba57612eb590611b0c565b612e6b565b50505050600190565b5050505090565b903391612edf6020612de16117fb60066116f2565b825260049082905afa80156116dc57612f069160009161194e57506001600160a01b031690565b6001600160a01b03841614928315612f2b575b50612f266102d893612bf3565b612e33565b9250612f3f6020612d846117fb60066116f2565b825260049082905afa9384156116dc57612f716116cb6102d896612f269460009161194e57506001600160a01b031690565b149350612f19565b6102d86102406109fe565b612f8c612b1c565b906000825260208080840160005b8152016000905250565b6102d8612f84565b612fb4612f79565b90600082526020820160008152602001600081526020016000815260200160008152602001612fe1612fa4565b8152602001600081526020016000815260200160008152602001600081526020016000815260200160008152602001600081526020016000815260200160008152602001600081526020016000815260200160009052565b6102d8612fac565b919061306460206130556117fb60066116f2565b63685cc9cd9061188060405190565b825260049082905afa9081156116dc5761308b9161264e916000916130a9575b5084611518565b613098576113d59261344b565b6040516282b42960e81b8152600490fd5b6130c1915060203d81116119755761196781836109d8565b38613084565b6130cf611ddf565b9060008252602080808080808080808080808d0160008152016130f0612fa4565b8152016130fb612fa4565b81520160008152016000815201600081520160008152016000815201600081520160008152016060905250565b6102d86130c7565b60005b82811061313f57505050565b60209061314a613128565b8184015201613133565b906102c261316a61316484612ae6565b93611e58565b601f190160208401613130565b90613180825190565b811015611c3b576020809102010190565b6102d890611fcc565b6102d89054613191565b906102c26132aa600d6131b5611ddf565b946131c2612b44826117e4565b6131d86131d1600183016117e4565b6020880152565b6131ee6131e760028301612b26565b6040880152565b6132046131fd60048301612b26565b6060880152565b61321d6132136006830161319a565b60000b6080880152565b61323361322c600783016117e4565b60a0880152565b613249613242600883016117e4565b60c0880152565b61325f613258600983016117e4565b60e0880152565b61327661326e600a83016117e4565b610100880152565b61328d613285600b83016117e4565b610120880152565b6132a461329c600c83016117e4565b610140880152565b01612cde565b610160840152565b6102d8906131a4565b906102db9061064f565b906102db90610675565b906102c261343860116132e0612f79565b946132ed612b44826117e4565b61330c6132fc600183016116f2565b6001600160a01b03166020880152565b61331b6131e7600283016117e4565b61332a6131fd600383016117e4565b613340613339600483016117e4565b6080880152565b61334f61322c60058301612b26565b61336861335e60078301612afc565b60ff1660c0880152565b613377613258600883016117e4565b61338661326e600983016117e4565b613395613285600a83016117e4565b6133a461329c600b83016117e4565b6133bb6133b3600c83016117e4565b610160880152565b6133d26133ca600d83016117e4565b610180880152565b6133eb6133e1600e8301612afc565b6101a088016132bb565b6134046133fa600e8301612b12565b6101c088016132c5565b61341b613413600f83016117e4565b6101e0880152565b61343261342a601083016117e4565b610200880152565b01612afc565b1515610220840152565b6102d8906132cf565b5061345a91612d36915061147f565b90600c9061346d600d611aec8585611a70565b9260009361347d61090e8661144a565b146125c3576009916134a361349d613498612e7d8587611a70565b613154565b9561144a565b6134b36102d8612e7d8587611a70565b811015613502576134fd906134e26134dd600d6134d7612ea085612e9b8a8c611a70565b90611a70565b6132b2565b6134ec8289613177565b526134f78188613177565b50611b0c565b6134a3565b509261090e92509061351391611a70565b613442565b6113d590613524613039565b606090613041565b61353961264e8333612e33565b61294b57613546816125d5565b90613557600d611aec84600c611a70565b61356461090e600061144a565b146125c357613574908390612e33565b6135a0576135946102d8836135996102c2956135946102d8876009611a70565b612212565b6008611a70565b60405163654fa49960e01b8152600490fd5b369037565b906102c26135c761316484612ae6565b601f1901602084016135b2565b906135e760206130556117fb60066116f2565b825260049082905afa9182156116dc57612f266000859261361f61361a6136259761264e9785916136ae575b5083611518565b61295d565b0161147f565b61294b57612d6b613637916008611a70565b613647613642825190565b6135b7565b90613652600061144a565b61365d6102d8835190565b81101561253c576136a9906136a461368c6001613686600c6134d7613682878a613177565b5190565b016116f2565b6136968387613177565b906001600160a01b03169052565b611b0c565b613652565b6136c6915060203d81116119755761196781836109d8565b38613613565b91906136db61264e8233612e33565b61294b576136e8836125d5565b6136f8600d611aec83600c611a70565b9360009461370861090e8761144a565b146125c35761264e838261371c9350612e33565b6135a057600893613730612e7d8487611a70565b9460019561374061090e8861144a565b146135a05783613762613642613759612e7d8486611a70565b6115d88a61144a565b918761376d8561144a565b80825b61385e575b50505082916137889161378d9450611a70565b6120e6565b6009906137ac6136426137a3612e7d8686611a70565b6115d88961144a565b93866137b78361144a565b809350905b6137d4575b5050506102c29394509061378891611a70565b6137e46102d8612e7d8787611a70565b8110156138595790879291613800612ea082612e9b8989611a70565b829003613819575b61381190611b0c565b9091926137bc565b9161385161381191613842613835612ea087612e9b8c8c611a70565b61383f838c613177565b52565b61384b8661144a565b90611d88565b929050613808565b6137c1565b9293509091876138746102d8612e7d8388611a70565b8210156138e357508761388e612ea083612e9b8489611a70565b8890036138ab575b506138a090611b0c565b908291889493613770565b81926138d16138c7612ea06138a095612e9b6138da968b611a70565b61383f838a613177565b61384b8561144a565b91905087613896565b939291613775565b906138f4612fa4565b506102d86004613915600d9461390f600c611aec8389611a70565b95611a70565b01612b70565b9081526040810192916102c291602090611431565b90611f3f6102d8611f0492151590565b9061396260206139536117fb60066116f2565b63e22b45f19061188060405190565b825260049082905afa80156116dc57613982916000916125675750610c51565b9160206391d14854936139b27fa49807205ce4d355092ef5a8a18f56e8913cf4a201fbe287825b095693c2177590565b906139d133966139dc6139c460405190565b9889958694859460e01b90565b84526004840161391b565b03915afa9081156116dc57613a00613a16926102c295600091613a1b575b5061295d565b6007905b613a0f61130f825190565b2090611c46565b613930565b613a33915060203d81116125bc576125ae81836109d8565b386139fa565b613a516102d891613a48600090565b50600790613a04565b612afc565b613a60600a611111565b690757365725369676e75760b41b602082015290565b6102d8613a56565b15613a8557565b60405162461bcd60e51b81526020600482015260116024820152701516081b5d5cdd081899481cda59db9959607a1b6044820152606490fd5b15613ac557565b60405162461bcd60e51b815260206004820152601e60248201527f43616e6e6f742063616c6c2070726f7879566f7465206469726563746c7900006044820152606490fd5b613b1d61264e613a516007613a04613a76565b613ba757600090613b6633613b48613b3761031e8661172a565b6001600160a01b0383161415613a7e565b6020613b576117fb60066116f2565b63999166769061199f60405190565b825260049082905afa9182156116dc576116cb613b9d93613b9792613ba2979161194e57506001600160a01b031690565b14613abe565b613dee565b600190565b60405163fe2b589d60e01b8152600490fd5b906001600160a01b0390611ee3565b90613bd86102d8611f0492610c51565b8254613bb9565b6102d8905161064f565b90611f3f6102d8611f0492610659565b6102d89051610675565b90611f636102d8611f049261067f565b6102c29190613d839061022090601190613c2f8161210c875190565b613c5060018201613c4a60208801516001600160a01b031690565b90613bc8565b613c6260028201611f85604088015190565b613c7460038201611f85606088015190565b613c8660048201611f85608088015190565b613c986005820161213660a088015190565b613cb360078201613cad60c088015160ff1690565b90611f2f565b613cc560088201611f8560e088015190565b613cd860098201611f8561010088015190565b613ceb600a8201611f8561012088015190565b613cfe600b8201611f8561014088015190565b613d11600c8201611f8561016088015190565b613d24600d820161210c61018088015190565b613d54600e8201613d41613d3b6101a08901613bdf565b82613be9565b613d4e6101c08801613bf9565b90613c03565b613d67600f820161210c6101e088015190565b613d7a60108201611f8561020088015190565b01920151151590565b90613930565b906102c291613c13565b916001600160a01b0360089290920291821b911b611ee3565b9190613dbd6102d8611f0493610c51565b908354613d93565b90815491600160401b8310156109f95782613de89160016102c2950181556121ef565b90613dac565b600390613e066118dc613e008361147f565b846117c5565b600090613e1561090e8361144a565b036128cb57613e24600a6117e4565b613e2e600161144a565b613e3791611d88565b80938183850193613e478561147f565b613e5360208801611440565b87613e6060408201611440565b613e6c60608301611440565b613e7860808401611440565b613e8460a085016125ec565b613e9060c086016125ec565b90613e99612b1c565b92613ea4908a850152565b60ff16602083015260ff166040820152613ec060e085016125ec565b613ecd6101008601611440565b91613edb6101208701611440565b93613ee96101408801611440565b95613ef76101608901611440565b9761018001613f0590611440565b98429a8c613f11612f79565b9e8f91820190613f1e9152565b60200190613f3491906001600160a01b03169052565b60408d015260608c015260808b015260a08a015260ff1660c089015260e0880152610100870152610120860152610140850152610160840152610180830152613f81816101a084016132bb565b613f8f816101c084016132c5565b613f988161144a565b6101e083015260006102008301521515610220820152613fb983600c611a70565b90613fc391613d89565b613fcc8361147f565b613fd5916117c5565b90613fdf91611eed565b600f9150613fec9061147f565b613ff591613dc5565b6102c290600a611eed565b6140098161147f565b614012336116cb565b0361402057613ba290613dee565b604051630daa55e360e41b8152600490fd5b61403b336125d5565b90600c9061404e600d611aec8585611a70565b60009061405d61090e8361144a565b146125c3576020820161406f81611440565b614242575b506040820161408281611440565b614224575b506060820161409581611440565b614206575b5060c082016140a8816125ec565b6140b46126d4846114cf565b036141a5575b5060e08201906140cf6126d4612a7d846125ec565b11614181575b5061010081016140e481611440565b61416f575b5061012081016140f881611440565b61415d575b50610140810161410c81611440565b61413f575b50610160810161412081611440565b61412a5750505050565b6127a493600b925061279e9161279890611440565b61414b61415791611440565b600a61279e8686611a70565b38614111565b6127b961416991611440565b386140fd565b6127d761417b91611440565b386140e9565b61418d61419f916125ec565b60076141998686611a70565b01611f2f565b386140d5565b614200906141ee6141b860808601611440565b916141e46141d16141cb60a089016125ec565b926125ec565b916114fb6141dd612b1c565b9588870152565b60ff166040830152565b60056141fa8787611a70565b01611fb2565b386140ba565b61421261421e91611440565b600461279e8787611a70565b3861409a565b61423061423c91611440565b600361279e8787611a70565b38614087565b61424e61425a91611440565b600261279e8787611a70565b38614074565b600261426f6118dc8383611c46565b9060009161427f61090e8461144a565b146125c3576102c29261429191611c46565b61200f565b6134dd6102d8916142a5613128565b50600d611a70565b156142b457565b60405162461bcd60e51b81528061177f600482016020808252818101527f506167652073697a65206d7573742062652067726561746572207468616e2030604082015260600190565b1561430457565b60405162461bcd60e51b815260206004820152602e60248201527f50616765206f6666736574206d7573742062652067726561746572207468616e60448201526d0206f7220657175616c20746f20360941b6064820152608490fd5b6102d860e06109fe565b614372614360565b9060008252602080808080808088016000815201600081520160008152016000815201612f9a612fa4565b6102d861436a565b60005b8281106143b457505050565b6020906143bf61439d565b81840152016143a8565b906102c26143d961316484612ae6565b601f1901602084016143a5565b801561147a576000190190565b9092909160009361440d6144068661144a565b82116142ad565b6144216144198661144a565b8310156142fd565b61443461442d826143c9565b9282611b51565b9461443e8161144a565b90815b600561444e6102d8825490565b82101561459b576144738861446e614469612ea086866121ef565b614782565b6145be565b614487575b5061448290611b0c565b614441565b9097906144938361144a565b8211156144b05750614482906144a8906143e6565b975b90614478565b9261384b6144d56118dc8b966144cf612ea061457f979e6002936121ef565b90611c46565b846145646144e76134dd84600d611a70565b61455a6144f661014083015190565b9161454760019661453861450b602085015190565b916145316145226080606088015197015160000b90565b9761452b614360565b9a8b0152565b6020890152565b87151560408801526060870152565b61455360006080870152565b60a0850152565b60000b60c0830152565b61456e848a613177565b526145798389613177565b5061144a565b9183831461459057614482906144aa565b505050509150915090565b50505050509150915090565b906145b0825190565b811015611c3b570160200190565b61090e6145d1916145cd600090565b5090565b60006145dc8161144a565b90815b6145ea6102d8865190565b8310156146865761462d61461761461261460486896145a7565b516001600160f81b03191690565b6146c2565b61462761461261460485896145a7565b9061471d565b156146695761463b90611b0c565b918261464b61090e6102d8875190565b1461465f5761465990611b0c565b916145df565b5050505050600190565b614673919261146d565b906146596146808261144a565b92611b0c565b509250505090565b6102d89060f81c611f1f565b6146a69060ff166126d4565b019060ff821161147a57565b611b44611b3e6102d89260ff1690565b6146cb8161468e565b6146d560416114cf565b60ff8216101580614707575b6146e9575090565b6102d89150614702906146fc60206114cf565b9061469a565b6146b2565b50614712605a6114cf565b60ff821611156146e1565b906001600160f81b031981166001600160f81b031983161491821561474157505090565b6116d8919250611b446147588261475e93506146c2565b936146c2565b916001600160f81b03191690565b906102c26135c761477c84611111565b93610a12565b9060209061478f8261144a565b916147998361476c565b9160005b848110156147c95782811015611c3b576147c49086811a6147be82876145a7565b53611b0c565b61479d565b509350506102d8915090565b906102d8600f611aec600c9461390f600e612b608389611a70565b919091339061481660206148076117fb60066116f2565b63f3d866bc9061188060405190565b825260049082905afa9283156116dc576148486116cb61484e95612d369460009161194e57506001600160a01b031690565b1461295d565b600c92614860600d611aec8487611a70565b61486d61090e600061144a565b146125c35761487b57505050565b6148a1600f916102c29461489c6002600e6148968585611a70565b01613c03565b611a70565b01611eed565b336148ba6020612de16117fb60066116f2565b825260049082905afa80156116dc576148e19160009161194e57506001600160a01b031690565b6001600160a01b038216149081156149a0575b8115614957575b506149059061295d565b600c90614917600e612b608385611a70565b61492a6149246002610675565b91610675565b14918261493d575b5050613ba257600090565b61494e9250600f91611aec91611a70565b42103880614932565b61496b91506020613b576117fb60066116f2565b825260049082905afa80156116dc576116cb614999916149059460009161194e57506001600160a01b031690565b14906148fb565b90506149c360206149b46117fb60066116f2565b632f03372c9061188060405190565b825260049082905afa80156116dc576149ea9160009161194e57506001600160a01b031690565b6001600160a01b03821614906148f4565b612d6b614a1291614a0a600090565b506008611a70565b6000614a1d8161144a565b614a286102d8845190565b811015614a9d57600c614a4c600e612b60614a466136828689613177565b84611a70565b614a596149246002610675565b1415908115614a7c575b50614a7657614a7190611b0c565b614a1d565b50919050565b614a959150600f90611aec906134d76136828689613177565b421138614a63565b505050600190565b15614aac57565b60405162461bcd60e51b815260206004820152600c60248201526b155b985d5d1a1bdc9a5e995960a21b6044820152606490fd5b9190811015611c3b576020020190565b600311156102a757565b356102d881614af0565b929493919094614b1c60206139536117fb60066116f2565b825260049082905afa80156116dc57614b3c916000916125675750610c51565b60206391d1485491614b6b7f0ce23c3e399818cfee81a7ab0880f714e53d7672b08df0fa62f2843416e1ea0990565b906139d13394614b8a614b7d60405190565b9687958694859460e01b90565b03915afa80156116dc57614ba691600091614c49575b50614aa5565b60005b86811015614c4057614bbc818385614ae0565b614bc590614afa565b600c90614bd3838a89614ae0565b614bdc90611440565b614be69083611a70565b600e0190614bf391613c03565b614bfe828887614ae0565b614c0790611440565b90614c13838a89614ae0565b614c1c90611440565b614c2591611a70565b600f0190614c3291611eed565b614c3b90611b0c565b614ba9565b50505050505050565b614c61915060203d81116125bc576125ae81836109d8565b38614ba0565b6102d8614c74600a6117e4565b6115d86202223661144a565b6102c29160009161223b565b600090600190614c9c8382614c80565b0155565b9060000361298d576102c290614c8c565b60006102c291612060565b9060000361298d576102c290614cb1565b6000600d6102c292614ce18380830161200f565b614cee8360018301614c80565b614cfb8360028301614ca0565b614d088360048301614ca0565b826006820155614d1b8360078301614c80565b614d288360088301614c80565b614d358360098301614c80565b614d4283600a8301614c80565b614d4f83600b830161200f565b614d5c83600c8301614c80565b01614cbc565b9060000361298d576102c290614ccd565b614d8061264e8233612e33565b61294b57600890614d94612e7d8284611a70565b614da161090e600161144a565b1161294b57600d614db7600b611aec8484611a70565b91600092614dc761090e8561144a565b146125c357614ded6020614dde6117fb60066116f2565b635e70f3069061188060405190565b825260049082905afa80156116dc57614e12602091614e21938791614ea85750610c51565b63178f53109061188060405190565b82526004820185905260249082905afa9081156116dc578491614e8a575b5031614e5561090e670de0b6b3a764000061144a565b1161294b576102c293614e7684614e718486614e859750611a70565b614d62565b61489c84614e85846009611a70565b614cbc565b614ea2915060203d81116119755761196781836109d8565b38614e3f565b6125889150833d811161258e5761258081836109d8565b6001600160401b0381116109f95760200290565b610a4a6102d891614ebf565b906102c2614ef5614eef84614ed3565b93614ebf565b836135b2565b6102d86002614edf565b614f0d614efb565b50614f2060206130556117fb60066116f2565b825260049082905afa9081156116dc57614f469161361a916000916136ae575083611518565b614f536117fb60066116f2565b63e22b45f1916020614f6460405190565b8093614f708660e01b90565b825260049082905afa9182156116dc57614fe492614f95916000916125675750610c51565b6391d14854919060207fa49807205ce4d355092ef5a8a18f56e8913cf4a201fbe287825b095693c217758392614fca8461147f565b91614fd460405190565b8098819482936139d18b60e01b90565b03915afa9384156116dc576000946150de575b506020849561501794955061500f6117fb60066116f2565b604051611a9e565b825260049082905afa9283156116dc576150686150416020956139d1936000916150c75750610c51565b927f0ce23c3e399818cfee81a7ab0880f714e53d7672b08df0fa62f2843416e1ea096116c4565b94615075614b7d60405190565b03915afa80156116dc576102d8916000916150a9575b506150a06150996002614ed3565b9315158452565b15156020830152565b6150c1915060203d81116125bc576125ae81836109d8565b3861508b565b6125889150873d811161258e5761258081836109d8565b6150179394506150fc602091823d81116125bc576125ae81836109d8565b949350614ff756fea2646970667358221220ad7714cab96dec328f2f97d4b1d7ee95e1cf8884e5c89cb6245cc773bcce3b5e64736f6c63430008150033",
  "linkReferences": {},
  "deployedLinkReferences": {}
}