{
  "_format": "hh-sol-artifact-1",
  "contractName": "RolesAccessControl",
  "sourceName": "contracts/RolesAccessControl.sol",
  "abi": [
    {
      "inputs": [],
      "stateMutability": "nonpayable",
      "type": "constructor"
    },
    {
      "inputs": [],
      "name": "AccessControlBadConfirmation",
      "type": "error"
    },
    {
      "inputs": [
        {
          "internalType": "address",
          "name": "account",
          "type": "address"
        },
        {
          "internalType": "bytes32",
          "name": "neededRole",
          "type": "bytes32"
        }
      ],
      "name": "AccessControlUnauthorizedAccount",
      "type": "error"
    },
    {
      "anonymous": false,
      "inputs": [
        {
          "indexed": true,
          "internalType": "bytes32",
          "name": "role",
          "type": "bytes32"
        },
        {
          "indexed": true,
          "internalType": "bytes32",
          "name": "previousAdminRole",
          "type": "bytes32"
        },
        {
          "indexed": true,
          "internalType": "bytes32",
          "name": "newAdminRole",
          "type": "bytes32"
        }
      ],
      "name": "RoleAdminChanged",
      "type": "event"
    },
    {
      "anonymous": false,
      "inputs": [
        {
          "indexed": true,
          "internalType": "bytes32",
          "name": "role",
          "type": "bytes32"
        },
        {
          "indexed": true,
          "internalType": "address",
          "name": "account",
          "type": "address"
        },
        {
          "indexed": true,
          "internalType": "address",
          "name": "sender",
          "type": "address"
        }
      ],
      "name": "RoleGranted",
      "type": "event"
    },
    {
      "anonymous": false,
      "inputs": [
        {
          "indexed": true,
          "internalType": "bytes32",
          "name": "role",
          "type": "bytes32"
        },
        {
          "indexed": true,
          "internalType": "address",
          "name": "account",
          "type": "address"
        },
        {
          "indexed": true,
          "internalType": "address",
          "name": "sender",
          "type": "address"
        }
      ],
      "name": "RoleRevoked",
      "type": "event"
    },
    {
      "inputs": [],
      "name": "ADMIN_ROLE",
      "outputs": [
        {
          "internalType": "bytes32",
          "name": "",
          "type": "bytes32"
        }
      ],
      "stateMutability": "view",
      "type": "function"
    },
    {
      "inputs": [],
      "name": "DEFAULT_ADMIN_ROLE",
      "outputs": [
        {
          "internalType": "bytes32",
          "name": "",
          "type": "bytes32"
        }
      ],
      "stateMutability": "view",
      "type": "function"
    },
    {
      "inputs": [],
      "name": "VERIFIER_ROLE",
      "outputs": [
        {
          "internalType": "bytes32",
          "name": "",
          "type": "bytes32"
        }
      ],
      "stateMutability": "view",
      "type": "function"
    },
    {
      "inputs": [
        {
          "internalType": "bytes32",
          "name": "role",
          "type": "bytes32"
        }
      ],
      "name": "getRoleAdmin",
      "outputs": [
        {
          "internalType": "bytes32",
          "name": "",
          "type": "bytes32"
        }
      ],
      "stateMutability": "view",
      "type": "function"
    },
    {
      "inputs": [
        {
          "internalType": "bytes32",
          "name": "role",
          "type": "bytes32"
        },
        {
          "internalType": "address",
          "name": "account",
          "type": "address"
        }
      ],
      "name": "grantRole",
      "outputs": [],
      "stateMutability": "nonpayable",
      "type": "function"
    },
    {
      "inputs": [
        {
          "internalType": "bytes32",
          "name": "role",
          "type": "bytes32"
        },
        {
          "internalType": "address",
          "name": "account",
          "type": "address"
        }
      ],
      "name": "hasRole",
      "outputs": [
        {
          "internalType": "bool",
          "name": "",
          "type": "bool"
        }
      ],
      "stateMutability": "view",
      "type": "function"
    },
    {
      "inputs": [
        {
          "internalType": "bytes32",
          "name": "role",
          "type": "bytes32"
        },
        {
          "internalType": "address",
          "name": "callerConfirmation",
          "type": "address"
        }
      ],
      "name": "renounceRole",
      "outputs": [],
      "stateMutability": "nonpayable",
      "type": "function"
    },
    {
      "inputs": [
        {
          "internalType": "bytes32",
          "name": "role",
          "type": "bytes32"
        },
        {
          "internalType": "address",
          "name": "account",
          "type": "address"
        }
      ],
      "name": "revokeRole",
      "outputs": [],
      "stateMutability": "nonpayable",
      "type": "function"
    },
    {
      "inputs": [
        {
          "internalType": "bytes4",
          "name": "interfaceId",
          "type": "bytes4"
        }
      ],
      "name": "supportsInterface",
      "outputs": [
        {
          "internalType": "bool",
          "name": "",
          "type": "bool"
        }
      ],
      "stateMutability": "view",
      "type": "function"
    }
  ],
  "bytecode": "0x6080604052346200002657620000146200004a565b6040516105cc620002fe82396105cc90f35b600080fd5b6200003b6200003b6200003b9290565b90565b6200003b60006200002b565b620000c9620000586200003e565b6200006533809262000235565b507fa49807205ce4d355092ef5a8a18f56e8913cf4a201fbe287825b095693c217759062000094818362000235565b50620000c27f0ce23c3e399818cfee81a7ab0880f714e53d7672b08df0fa62f2843416e1ea09918262000235565b506200011b565b565b90620000d7906200003b565b600052602052604060002090565b90600019905b9181191691161790565b906200010f6200010962000117926200003b565b6200003b565b8254620000e5565b9055565b906200012782620001a2565b620001428260016200013b866000620000cb565b01620000f5565b6200017d62000176620001767fbd79b86ffe0ab8e8776151514217cd7cacd52c909f66475c3af44e129f0b00ff956200003b565b926200003b565b926200018860405190565b600090a4565b6200003b9081565b6200003b90546200018e565b6001620001bf6200003b92620001b6600090565b506000620000cb565b0162000196565b6200003b90620001dc906001600160a01b031682565b6001600160a01b031690565b6200003b90620001c6565b6200003b90620001e8565b90620000d790620001f3565b9060ff90620000eb565b151590565b906200022d6200003b620001179262000214565b82546200020a565b62000249620002458383620002df565b1590565b15620002c6576001916200027783620002718360006200026a8782620000cb565b01620001fe565b62000219565b3390620002b4620002ad620002ad7f2f8788117e7eff1d82e926ec794901d17c78024a50270940304540a733656f0d956200003b565b92620001f3565b92620002bf60405190565b600090a490565b5050600090565b60ff1690565b6200003b9054620002cd565b6200003b91620002f7916200026a60009182620000cb565b620002d356fe6080604052600436101561001257600080fd5b60003560e01c806301ffc9a7146100a2578063248a9ca31461009d5780632f2ff15d1461009857806336568abe1461009357806375b238fc1461008e57806391d1485414610089578063a217fddf14610084578063d547741f1461007f5763e7705db6036100a75761029d565b610284565b610269565b61022e565b6101f5565b6101d1565b6101b3565b61013d565b6100e5565b600080fd5b6001600160e01b031981165b036100a757565b905035906100cc826100ac565b565b906020828203126100a7576100e2916100bf565b90565b346100a7576101126101006100fb3660046100ce565b6102d6565b60405191829182901515815260200190565b0390f35b806100b8565b905035906100cc82610116565b906020828203126100a7576100e29161011c565b346100a757610112610158610153366004610129565b610382565b6040519182918290815260200190565b6001600160a01b031690565b6001600160a01b0381166100b8565b905035906100cc82610174565b91906040838203126100a7576100e2906101aa818561011c565b93602001610183565b346100a7576101cc6101c6366004610190565b906103c4565b604051005b346100a7576101cc6101e4366004610190565b9061045b565b60009103126100a757565b346100a7576102053660046101ea565b6101127fa49807205ce4d355092ef5a8a18f56e8913cf4a201fbe287825b095693c21775610158565b346100a757610112610100610244366004610190565b90610350565b6100e26100e26100e29290565b6100e2600061024a565b6100e2610257565b346100a7576102793660046101ea565b610112610158610261565b346100a7576101cc610297366004610190565b90610451565b346100a7576102ad3660046101ea565b6101127f0ce23c3e399818cfee81a7ab0880f714e53d7672b08df0fa62f2843416e1ea09610158565b637965db0b60e01b6001600160e01b03198216149081156102f5575090565b6100e291506001600160e01b0319166301ffc9a760e01b1490565b905b600052602052604060002090565b6100e290610168906001600160a01b031682565b6100e290610320565b6100e290610334565b906103129061033d565b6100e29161036a9161036460009182610310565b01610346565b5460ff1690565b6100e29081565b6100e29054610371565b600161039b6100e292610393600090565b506000610310565b01610378565b906100cc916103b76103b282610382565b6103ce565b906103c1916104b3565b50565b906100cc916103a1565b6100cc9033906103f6565b6001600160a01b0390911681526040810192916100cc9160200152565b906104086104048284610350565b1590565b610410575050565b61043261041c60405190565b63e2517d3f60e01b8152928392600484016103d9565b0390fd5b906100cc916104476103b282610382565b906103c19161052f565b906100cc91610436565b9061046533610168565b6001600160a01b0382160361047d576103c19161052f565b60405163334bd91960e11b8152600490fd5b9061049f6100e26104af92151590565b825460ff191660ff919091161790565b9055565b6104c06104048383610350565b15610528576001916104e1836104dc8360006103648782610310565b61048f565b33906105176105116105117f2f8788117e7eff1d82e926ec794901d17c78024a50270940304540a733656f0d9590565b9261033d565b9261052160405190565b600090a490565b5050600090565b9061053a8183610350565b156105285761055360006104dc83826103648782610310565b33906105836105116105117ff6391f5c32d9c69d2a47ea670b442974b53935d1edc7fd64eb21e047a839171b9590565b9261058d60405190565b600090a460019056fea26469706673582212202cc583e7f45330bf8ef53285f9f994496039fbfe6a006fa6b9b646d43f37941364736f6c63430008150033",
  "linkReferences": {},
  "deployedLinkReferences": {}
}