{
  "_format": "hh-sol-artifact-1",
  "contractName": "SurveyBackendContract",
  "sourceName": "contracts/SurveyBackendContract.sol",
  "abi": [
    {
      "inputs": [
        {
          "internalType": "address",
          "name": "_contractStore",
          "type": "address"
        }
      ],
      "stateMutability": "nonpayable",
      "type": "constructor"
    },
    {
      "inputs": [],
      "name": "CanNotAnswerSurvey",
      "type": "error"
    },
    {
      "inputs": [],
      "name": "DelegateCallFailed",
      "type": "error"
    },
    {
      "inputs": [],
      "name": "QuestionIsPrivate",
      "type": "error"
    },
    {
      "inputs": [],
      "name": "Unauthorized",
      "type": "error"
    },
    {
      "inputs": [],
      "name": "UserNotPartOfOrganisation",
      "type": "error"
    },
    {
      "anonymous": false,
      "inputs": [
        {
          "indexed": false,
          "internalType": "uint256[]",
          "name": "data",
          "type": "uint256[]"
        }
      ],
      "name": "OptionsAdded",
      "type": "event"
    },
    {
      "anonymous": false,
      "inputs": [
        {
          "components": [
            {
              "internalType": "uint256",
              "name": "questionId",
              "type": "uint256"
            },
            {
              "internalType": "uint8",
              "name": "questionType",
              "type": "uint8"
            },
            {
              "internalType": "bytes32",
              "name": "questionIpfsDigest",
              "type": "bytes32"
            },
            {
              "internalType": "uint8",
              "name": "questionipfshashfunction",
              "type": "uint8"
            },
            {
              "internalType": "uint8",
              "name": "questionipfshashsize",
              "type": "uint8"
            }
          ],
          "indexed": false,
          "internalType": "struct QuestionData[]",
          "name": "data",
          "type": "tuple[]"
        }
      ],
      "name": "QuestionsAdded",
      "type": "event"
    },
    {
      "anonymous": false,
      "inputs": [
        {
          "indexed": true,
          "internalType": "bytes32",
          "name": "surveyId",
          "type": "bytes32"
        },
        {
          "indexed": true,
          "internalType": "uint256",
          "name": "blocktime",
          "type": "uint256"
        }
      ],
      "name": "SurveyAnswered",
      "type": "event"
    },
    {
      "anonymous": false,
      "inputs": [
        {
          "indexed": true,
          "internalType": "uint256",
          "name": "surveyId",
          "type": "uint256"
        },
        {
          "indexed": false,
          "internalType": "bytes32",
          "name": "surveyTitle",
          "type": "bytes32"
        },
        {
          "components": [
            {
              "internalType": "bytes32",
              "name": "digest",
              "type": "bytes32"
            },
            {
              "internalType": "uint8",
              "name": "hashFunction",
              "type": "uint8"
            },
            {
              "internalType": "uint8",
              "name": "size",
              "type": "uint8"
            }
          ],
          "indexed": false,
          "internalType": "struct IPFSHash",
          "name": "surveyTitleIPFS",
          "type": "tuple"
        },
        {
          "components": [
            {
              "internalType": "bytes32",
              "name": "digest",
              "type": "bytes32"
            },
            {
              "internalType": "uint8",
              "name": "hashFunction",
              "type": "uint8"
            },
            {
              "internalType": "uint8",
              "name": "size",
              "type": "uint8"
            }
          ],
          "indexed": false,
          "internalType": "struct IPFSHash",
          "name": "surveyIntroIPFS",
          "type": "tuple"
        }
      ],
      "name": "SurveyCreated",
      "type": "event"
    },
    {
      "anonymous": false,
      "inputs": [
        {
          "indexed": false,
          "internalType": "bytes",
          "name": "data",
          "type": "bytes"
        }
      ],
      "name": "TxRequest",
      "type": "event"
    },
    {
      "inputs": [],
      "name": "ADMIN_ROLE",
      "outputs": [
        {
          "internalType": "bytes32",
          "name": "",
          "type": "bytes32"
        }
      ],
      "stateMutability": "view",
      "type": "function"
    },
    {
      "inputs": [],
      "name": "EIP712_DOMAIN_TYPEHASH",
      "outputs": [
        {
          "internalType": "bytes32",
          "name": "",
          "type": "bytes32"
        }
      ],
      "stateMutability": "view",
      "type": "function"
    },
    {
      "inputs": [],
      "name": "SIGNIN_TYPE",
      "outputs": [
        {
          "internalType": "string",
          "name": "",
          "type": "string"
        }
      ],
      "stateMutability": "view",
      "type": "function"
    },
    {
      "inputs": [],
      "name": "SIGNIN_TYPEHASH",
      "outputs": [
        {
          "internalType": "bytes32",
          "name": "",
          "type": "bytes32"
        }
      ],
      "stateMutability": "view",
      "type": "function"
    },
    {
      "inputs": [
        {
          "internalType": "uint256",
          "name": "surveyId",
          "type": "uint256"
        },
        {
          "internalType": "uint256[]",
          "name": "questionIndex",
          "type": "uint256[]"
        },
        {
          "internalType": "bytes32[]",
          "name": "answerHashIPFSDigest",
          "type": "bytes32[]"
        },
        {
          "internalType": "uint8[]",
          "name": "answerHashIPFSHashFunction",
          "type": "uint8[]"
        },
        {
          "internalType": "uint8[]",
          "name": "answerHashIPFSHashSize",
          "type": "uint8[]"
        },
        {
          "internalType": "uint256[][]",
          "name": "optionIndexes",
          "type": "uint256[][]"
        },
        {
          "internalType": "enum AnswerType[]",
          "name": "ansType",
          "type": "uint8[]"
        },
        {
          "internalType": "address",
          "name": "userAddress",
          "type": "address"
        }
      ],
      "name": "SubmitAnswerToSurvey",
      "outputs": [],
      "stateMutability": "nonpayable",
      "type": "function"
    },
    {
      "inputs": [
        {
          "components": [
            {
              "internalType": "bytes32",
              "name": "titlesBytes",
              "type": "bytes32"
            },
            {
              "internalType": "bytes32",
              "name": "titleIPFSDigest",
              "type": "bytes32"
            },
            {
              "internalType": "uint8",
              "name": "titleIPFSHashFunction",
              "type": "uint8"
            },
            {
              "internalType": "uint8",
              "name": "titleIPFSSize",
              "type": "uint8"
            },
            {
              "internalType": "bytes32",
              "name": "surveyNonce",
              "type": "bytes32"
            },
            {
              "internalType": "bytes32",
              "name": "descriptionIPFSDigest",
              "type": "bytes32"
            },
            {
              "internalType": "uint8",
              "name": "descriptionIPFSHashFunction",
              "type": "uint8"
            },
            {
              "internalType": "uint8",
              "name": "descriptionIPFSSize",
              "type": "uint8"
            },
            {
              "internalType": "bool",
              "name": "isSurveyPrivate",
              "type": "bool"
            },
            {
              "internalType": "uint256",
              "name": "surveyAudienceSize",
              "type": "uint256"
            },
            {
              "internalType": "uint256",
              "name": "surveyExpiryDate",
              "type": "uint256"
            },
            {
              "internalType": "bool",
              "name": "publishOnMarketplace",
              "type": "bool"
            },
            {
              "internalType": "uint256",
              "name": "createdBy",
              "type": "uint256"
            },
            {
              "components": [
                {
                  "internalType": "uint256",
                  "name": "questionId",
                  "type": "uint256"
                },
                {
                  "internalType": "uint256[]",
                  "name": "selectedOptionsIndex",
                  "type": "uint256[]"
                },
                {
                  "internalType": "bool",
                  "name": "isMandatory",
                  "type": "bool"
                },
                {
                  "internalType": "bool[3]",
                  "name": "answerTypeAllowed",
                  "type": "bool[3]"
                },
                {
                  "internalType": "uint8",
                  "name": "privacyLevelRating",
                  "type": "uint8"
                }
              ],
              "internalType": "struct QuestionInstance[]",
              "name": "questions",
              "type": "tuple[]"
            },
            {
              "components": [
                {
                  "internalType": "enum FILTER_TYPE",
                  "name": "filter_type",
                  "type": "uint8"
                },
                {
                  "internalType": "address[]",
                  "name": "address_list",
                  "type": "address[]"
                },
                {
                  "internalType": "uint256",
                  "name": "prev_response_value_questionId",
                  "type": "uint256"
                },
                {
                  "internalType": "enum PREV_RESPONSE_VALUE_MATCH_TYPE",
                  "name": "prev_response_value_matchType",
                  "type": "uint8"
                },
                {
                  "internalType": "uint256[]",
                  "name": "prev_response_value_options",
                  "type": "uint256[]"
                },
                {
                  "internalType": "enum TOKENS",
                  "name": "token_reserve_selectedToken",
                  "type": "uint8"
                },
                {
                  "internalType": "uint256",
                  "name": "token_reserve_minAmount",
                  "type": "uint256"
                },
                {
                  "internalType": "enum CHAINS",
                  "name": "token_reserve_selectedChain",
                  "type": "uint8"
                },
                {
                  "internalType": "address",
                  "name": "token_reserve_contractAddress",
                  "type": "address"
                },
                {
                  "internalType": "enum CHAINS",
                  "name": "nft_token_selectedchain",
                  "type": "uint8"
                },
                {
                  "internalType": "address",
                  "name": "nft_token_nftContractAddress",
                  "type": "address"
                },
                {
                  "internalType": "uint256",
                  "name": "survey_answered_id",
                  "type": "uint256"
                },
                {
                  "internalType": "bool",
                  "name": "active",
                  "type": "bool"
                }
              ],
              "internalType": "struct AudienceFilterRequest[]",
              "name": "audienceFilters",
              "type": "tuple[]"
            }
          ],
          "internalType": "struct surveyCreationRequest",
          "name": "_request",
          "type": "tuple"
        },
        {
          "internalType": "address",
          "name": "userAddress",
          "type": "address"
        }
      ],
      "name": "_verifySurveyBeforeCreating",
      "outputs": [],
      "stateMutability": "view",
      "type": "function"
    },
    {
      "inputs": [],
      "name": "checkCivicPass",
      "outputs": [
        {
          "internalType": "bool",
          "name": "",
          "type": "bool"
        }
      ],
      "stateMutability": "view",
      "type": "function"
    },
    {
      "inputs": [],
      "name": "contractStore",
      "outputs": [
        {
          "internalType": "contract ContractStore",
          "name": "",
          "type": "address"
        }
      ],
      "stateMutability": "view",
      "type": "function"
    },
    {
      "inputs": [
        {
          "components": [
            {
              "internalType": "uint256",
              "name": "questionId",
              "type": "uint256"
            },
            {
              "internalType": "bytes32",
              "name": "optionString",
              "type": "bytes32"
            },
            {
              "internalType": "bytes32",
              "name": "optionDigest",
              "type": "bytes32"
            },
            {
              "internalType": "uint8",
              "name": "optionHashFunction",
              "type": "uint8"
            },
            {
              "internalType": "uint8",
              "name": "optionSize",
              "type": "uint8"
            }
          ],
          "internalType": "struct OptionsToCreate[]",
          "name": "_options",
          "type": "tuple[]"
        },
        {
          "internalType": "uint256",
          "name": "organisationId",
          "type": "uint256"
        },
        {
          "internalType": "address",
          "name": "user",
          "type": "address"
        }
      ],
      "name": "createOptions",
      "outputs": [],
      "stateMutability": "nonpayable",
      "type": "function"
    },
    {
      "inputs": [
        {
          "components": [
            {
              "internalType": "uint8",
              "name": "questionType",
              "type": "uint8"
            },
            {
              "internalType": "bool",
              "name": "isPrivate",
              "type": "bool"
            },
            {
              "internalType": "bytes32",
              "name": "ipfsHashDigest",
              "type": "bytes32"
            },
            {
              "internalType": "uint8",
              "name": "ipfsHashHashFunction",
              "type": "uint8"
            },
            {
              "internalType": "uint8",
              "name": "ipfsHashSize",
              "type": "uint8"
            },
            {
              "internalType": "bytes32",
              "name": "questionNonce",
              "type": "bytes32"
            },
            {
              "internalType": "bytes32[]",
              "name": "QuestionOptionsBytes32",
              "type": "bytes32[]"
            },
            {
              "internalType": "bytes32[]",
              "name": "QuestionOptionipfsHashDigest",
              "type": "bytes32[]"
            },
            {
              "internalType": "uint8[]",
              "name": "QuestionOptionipfsHashHashFunction",
              "type": "uint8[]"
            },
            {
              "internalType": "uint8[]",
              "name": "QuestionOptionipfsHashSize",
              "type": "uint8[]"
            }
          ],
          "internalType": "struct questionCreateRequest[]",
          "name": "_questions",
          "type": "tuple[]"
        },
        {
          "internalType": "uint256",
          "name": "organisationId",
          "type": "uint256"
        },
        {
          "internalType": "address",
          "name": "user",
          "type": "address"
        }
      ],
      "name": "createQuestions",
      "outputs": [],
      "stateMutability": "nonpayable",
      "type": "function"
    },
    {
      "inputs": [
        {
          "components": [
            {
              "internalType": "bytes32",
              "name": "titlesBytes",
              "type": "bytes32"
            },
            {
              "internalType": "bytes32",
              "name": "titleIPFSDigest",
              "type": "bytes32"
            },
            {
              "internalType": "uint8",
              "name": "titleIPFSHashFunction",
              "type": "uint8"
            },
            {
              "internalType": "uint8",
              "name": "titleIPFSSize",
              "type": "uint8"
            },
            {
              "internalType": "bytes32",
              "name": "surveyNonce",
              "type": "bytes32"
            },
            {
              "internalType": "bytes32",
              "name": "descriptionIPFSDigest",
              "type": "bytes32"
            },
            {
              "internalType": "uint8",
              "name": "descriptionIPFSHashFunction",
              "type": "uint8"
            },
            {
              "internalType": "uint8",
              "name": "descriptionIPFSSize",
              "type": "uint8"
            },
            {
              "internalType": "bool",
              "name": "isSurveyPrivate",
              "type": "bool"
            },
            {
              "internalType": "uint256",
              "name": "surveyAudienceSize",
              "type": "uint256"
            },
            {
              "internalType": "uint256",
              "name": "surveyExpiryDate",
              "type": "uint256"
            },
            {
              "internalType": "bool",
              "name": "publishOnMarketplace",
              "type": "bool"
            },
            {
              "internalType": "uint256",
              "name": "createdBy",
              "type": "uint256"
            },
            {
              "components": [
                {
                  "internalType": "uint256",
                  "name": "questionId",
                  "type": "uint256"
                },
                {
                  "internalType": "uint256[]",
                  "name": "selectedOptionsIndex",
                  "type": "uint256[]"
                },
                {
                  "internalType": "bool",
                  "name": "isMandatory",
                  "type": "bool"
                },
                {
                  "internalType": "bool[3]",
                  "name": "answerTypeAllowed",
                  "type": "bool[3]"
                },
                {
                  "internalType": "uint8",
                  "name": "privacyLevelRating",
                  "type": "uint8"
                }
              ],
              "internalType": "struct QuestionInstance[]",
              "name": "questions",
              "type": "tuple[]"
            },
            {
              "components": [
                {
                  "internalType": "enum FILTER_TYPE",
                  "name": "filter_type",
                  "type": "uint8"
                },
                {
                  "internalType": "address[]",
                  "name": "address_list",
                  "type": "address[]"
                },
                {
                  "internalType": "uint256",
                  "name": "prev_response_value_questionId",
                  "type": "uint256"
                },
                {
                  "internalType": "enum PREV_RESPONSE_VALUE_MATCH_TYPE",
                  "name": "prev_response_value_matchType",
                  "type": "uint8"
                },
                {
                  "internalType": "uint256[]",
                  "name": "prev_response_value_options",
                  "type": "uint256[]"
                },
                {
                  "internalType": "enum TOKENS",
                  "name": "token_reserve_selectedToken",
                  "type": "uint8"
                },
                {
                  "internalType": "uint256",
                  "name": "token_reserve_minAmount",
                  "type": "uint256"
                },
                {
                  "internalType": "enum CHAINS",
                  "name": "token_reserve_selectedChain",
                  "type": "uint8"
                },
                {
                  "internalType": "address",
                  "name": "token_reserve_contractAddress",
                  "type": "address"
                },
                {
                  "internalType": "enum CHAINS",
                  "name": "nft_token_selectedchain",
                  "type": "uint8"
                },
                {
                  "internalType": "address",
                  "name": "nft_token_nftContractAddress",
                  "type": "address"
                },
                {
                  "internalType": "uint256",
                  "name": "survey_answered_id",
                  "type": "uint256"
                },
                {
                  "internalType": "bool",
                  "name": "active",
                  "type": "bool"
                }
              ],
              "internalType": "struct AudienceFilterRequest[]",
              "name": "audienceFilters",
              "type": "tuple[]"
            }
          ],
          "internalType": "struct surveyCreationRequest",
          "name": "_request",
          "type": "tuple"
        }
      ],
      "name": "createSurvey",
      "outputs": [],
      "stateMutability": "nonpayable",
      "type": "function"
    },
    {
      "inputs": [
        {
          "internalType": "uint256",
          "name": "surveyId",
          "type": "uint256"
        },
        {
          "internalType": "enum SurveyStatus",
          "name": "newstatus",
          "type": "uint8"
        },
        {
          "internalType": "address[]",
          "name": "newAddressList",
          "type": "address[]"
        },
        {
          "internalType": "uint256",
          "name": "new_audience_size",
          "type": "uint256"
        },
        {
          "internalType": "uint256",
          "name": "new_expiry_time",
          "type": "uint256"
        }
      ],
      "name": "editSurvey",
      "outputs": [],
      "stateMutability": "nonpayable",
      "type": "function"
    },
    {
      "inputs": [
        {
          "internalType": "uint256",
          "name": "surveyAudienceSize",
          "type": "uint256"
        },
        {
          "internalType": "uint256",
          "name": "surveyExpiryDate",
          "type": "uint256"
        }
      ],
      "name": "getValidityType",
      "outputs": [
        {
          "internalType": "uint8",
          "name": "val",
          "type": "uint8"
        }
      ],
      "stateMutability": "pure",
      "type": "function"
    },
    {
      "inputs": [
        {
          "components": [
            {
              "internalType": "address",
              "name": "user",
              "type": "address"
            },
            {
              "internalType": "uint256",
              "name": "time",
              "type": "uint256"
            },
            {
              "components": [
                {
                  "internalType": "bytes32",
                  "name": "r",
                  "type": "bytes32"
                },
                {
                  "internalType": "bytes32",
                  "name": "s",
                  "type": "bytes32"
                },
                {
                  "internalType": "uint256",
                  "name": "v",
                  "type": "uint256"
                }
              ],
              "internalType": "struct SignatureRSV",
              "name": "rsv",
              "type": "tuple"
            }
          ],
          "internalType": "struct SignIn",
          "name": "auth",
          "type": "tuple"
        },
        {
          "internalType": "address",
          "name": "profile_address",
          "type": "address"
        }
      ],
      "name": "isAuthenticated",
      "outputs": [
        {
          "internalType": "bool",
          "name": "",
          "type": "bool"
        }
      ],
      "stateMutability": "view",
      "type": "function"
    },
    {
      "inputs": [
        {
          "internalType": "uint256",
          "name": "surveyId",
          "type": "uint256"
        },
        {
          "internalType": "address",
          "name": "userAddress",
          "type": "address"
        }
      ],
      "name": "revokeAccessToSurvey",
      "outputs": [],
      "stateMutability": "payable",
      "type": "function"
    },
    {
      "inputs": [],
      "name": "surveyPrice",
      "outputs": [
        {
          "internalType": "uint256",
          "name": "",
          "type": "uint256"
        }
      ],
      "stateMutability": "view",
      "type": "function"
    },
    {
      "inputs": [
        {
          "internalType": "uint256",
          "name": "surveyAudienceSize",
          "type": "uint256"
        },
        {
          "internalType": "uint256",
          "name": "surveyExpiryDate",
          "type": "uint256"
        }
      ],
      "name": "verifySurveyCreationValildity",
      "outputs": [
        {
          "internalType": "bool",
          "name": "val",
          "type": "bool"
        }
      ],
      "stateMutability": "view",
      "type": "function"
    },
    {
      "inputs": [
        {
          "internalType": "uint256",
          "name": "organisationId",
          "type": "uint256"
        },
        {
          "internalType": "address",
          "name": "user",
          "type": "address"
        }
      ],
      "name": "verifyUserIsMemberOfOrganisation",
      "outputs": [
        {
          "internalType": "bool",
          "name": "",
          "type": "bool"
        }
      ],
      "stateMutability": "view",
      "type": "function"
    }
  ],
  "bytecode": "0x60806040523462000030576200001e62000018620000d3565b6200018e565b604051615bef620002368239615bef90f35b600080fd5b634e487b7160e01b600052604160045260246000fd5b90601f01601f191681019081106001600160401b038211176200006d57604052565b62000035565b906200008a6200008260405190565b92836200004b565b565b6001600160a01b031690565b90565b6001600160a01b038116036200003057565b905051906200008a826200009b565b9060208282031262000030576200009891620000ad565b6200009862005e2580380380620000ea8162000073565b928339810190620000bc565b62000098906200008c906001600160a01b031682565b6200009890620000f6565b62000098906200010c565b906001600160a01b03905b9181191691161790565b906200014b62000098620001539262000117565b825462000122565b9055565b6200009862000098620000989290565b90600019906200012d565b906200018662000098620001539262000157565b825462000167565b620001a7620001af91620001a162000228565b62000117565b600c62000137565b620001e46064620001c08162000157565b90620001ce82600d62000172565b620001db82600e62000172565b50600f62000172565b6200008a620001fb67016345785d8a000062000157565b601062000172565b9060ff906200012d565b9062000220620000986200015392151590565b825462000203565b6200008a6000806200020d56fe6103a0604052600436101561001357600080fd5b60003560e01c806313061fff1461013357806315bc1a261461012e57806317cfac6c146101295780632cb303bc146101245780633846ac0d1461011f578063568a060b1461011a57806363923e36146101155780636bc984e81461011057806375b238fc1461010b57806376340a9014610106578063a017f14a14610101578063c7977be7146100fc578063c7d480fb146100f7578063cd6ea113146100f2578063cd89152c146100ed578063e524d42e146100e8578063f01593a9146100e35763f27306050361013857610913565b6108f8565b6108b7565b610876565b610837565b6107e2565b610665565b610651565b610635565b610587565b610560565b6104da565b6104a1565b6103ff565b6102a3565b610266565b610218565b6101a2565b600080fd5b908160a09103126101385790565b6001600160a01b031690565b90565b6001600160a01b0381165b0361013857565b905035906101798261015a565b565b919060c0838203126101385761015790610195818561013d565b9360a00161016c565b9052565b34610138576101d06101be6101b836600461017b565b90610a70565b60405191829182901515815260200190565b0390f35b90816101e09103126101385790565b9190604083820312610138578235906001600160401b0382116101385761020f816101579386016101d4565b9360200161016c565b346101385761023161022b3660046101e3565b90611e29565b604051005b600091031261013857565b610157916008021c5b60ff1690565b906101579154610241565b610157600080610250565b3461013857610276366004610236565b6101d06101be61025b565b610157916008021c81565b906101579154610281565b6101576000601061028c565b34610138576102b3366004610236565b6101d06102be610297565b6040519182918290815260200190565b80610165565b90503590610179826102ce565b909182601f83011215610138578135916001600160401b03831161013857602001926020830284011161013857565b9190610100838203126101385761032781846102d4565b9260208101356001600160401b03811161013857826103479183016102e1565b92909360408301356001600160401b03811161013857826103699185016102e1565b92909360608101356001600160401b038111610138578261038b9183016102e1565b92909360808301356001600160401b03811161013857826103ad9185016102e1565b92909360a08101356001600160401b03811161013857826103cf9183016102e1565b92909360c08301356001600160401b038111610138576103f4836101579286016102e1565b93909460e00161016c565b3461013857610231610412366004610310565b9c9b909b9a919a999299989398979497969596613f22565b6004111561013857565b905035906101798261042a565b9060a0828203126101385761045681836102d4565b926104648260208501610434565b926040810135916001600160401b03831161013857610488846101579484016102e1565b93909461049881606086016102d4565b936080016102d4565b34610138576102316104b4366004610441565b949390939291926151df565b9190604083820312610138576101579061020f81856102d4565b34610138576101d06101be6104f03660046104c0565b90610d74565b610157916008021c6001600160a01b031690565b9061015791546104f6565b6101576000600c61050a565b6101579061014b906001600160a01b031682565b61015790610521565b61015790610535565b61019e9061053e565b6020810192916101799190610547565b3461013857610570366004610236565b6101d061057b610515565b60405191829182610550565b3461013857610597366004610236565b6101d07fa49807205ce4d355092ef5a8a18f56e8913cf4a201fbe287825b095693c217756102be565b909182601f83011215610138578135916001600160401b038311610138576020019260a0830284011161013857565b919091606081840312610138578035916001600160401b0383116101385761061c846101579484016105c0565b93909461062c81602086016102d4565b9360400161016c565b34610138576102316106483660046105ef565b92919091611a99565b61023161065f3660046104c0565b90615713565b3461013857610675366004610236565b6101d07f8b73c3c69bb8fe3d512ecc4cf759cc79239f7b179b0ffacaa9a75d522b39400f6102be565b634e487b7160e01b600052604160045260246000fd5b90601f01601f191681019081106001600160401b038211176106d557604052565b61069e565b906101796106e760405190565b92836106b4565b6001600160401b0381116106d557602090601f01601f19160190565b0190565b9061072061071b836106ee565b6106da565b918252565b61072f602161070e565b7f5369676e496e286164647265737320757365722c75696e743235362074696d656020820152602960f81b604082015290565b610157610725565b610157610762565b61015761076a565b60005b83811061078d5750506000910152565b818101518382015260200161077d565b6107be6107c760209361070a936107b2815190565b80835293849260200190565b9586910161077a565b601f01601f191690565b60208082526101579291019061079d565b34610138576107f2366004610236565b6101d06107fd610772565b6040515b918291826107d1565b919091606081840312610138578035916001600160401b0383116101385761061c846101579484016102e1565b346101385761023161084a36600461080a565b929190916114d9565b9190604083820312610138576101579061086d81856102d4565b936020016102d4565b34610138576101d06101be61088c366004610853565b90613ccf565b906020828203126101385781356001600160401b0381116101385761015792016101d4565b34610138576102316108ca366004610892565b6132bd565b6108da61015761076a565b6108ec6108e5825190565b9160200190565b2090565b6101576108cf565b3461013857610908366004610236565b6101d06102be6108f0565b34610138576101d061092f610929366004610853565b90613c08565b6040519182918260ff909116815260200190565b909594926101799461097561097c9261096e60809661096760a088019c6000890152565b6020870152565b6040850152565b6060830152565b01906001600160a01b03169052565b35610157816102ce565b6101576101576101579290565b634e487b7160e01b600052601160045260246000fd5b91906109c3565b9290565b82039182116109ce57565b6109a2565b356101578161015a565b9081526001600160a01b0390911660208201526060810192916101799160400152565b0152565b6020809392610a2161072061070a9461190160f01b815260020190565b01918252565b61024a6101576101579290565b610a0061017994610a5d606094989795610a53608086019a6000870152565b60ff166020850152565b6040830152565b6040513d6000823e3d90fd5b90610b007f8b73c3c69bb8fe3d512ecc4cf759cc79239f7b179b0ffacaa9a75d522b39400f7f1a7269e4dc8453fd670842087ab5e2c2fc4976430b8d8d6dcb3d1f00df9e8ab990610af47fc89efdaa54c0f20c7adf612882df0950f5a951637e0307cdcb4c672f298b8bc69446610ae660405190565b968795602087019586610943565b908103825203826106b4565b610b0b6108e5825190565b20906020810191610b1b8361098b565b610b3b610b3761015742610b3162015180610995565b906109b8565b9190565b10610c3b576020916040610af4610bac600094610b566108cf565b610b8987870199610b6f610b698c6109d3565b9161098b565b92610af4610b7c60405190565b9485938d850193846109dd565b610b946108e5825190565b2090610b9f60405190565b9384928984019283610a04565b610bb76108e5825190565b20910190610bfc610bd2610bcd6040850161098b565b610a27565b92610be986610be287840161098b565b920161098b565b90610bf360405190565b94859485610a34565b838052039060015afa15610c3657610c32610c2561014b610c1f60005160001b90565b936109d3565b916001600160a01b031690565b1490565b610a64565b505050600090565b6101579061014b565b6101579054610c43565b61016581610c43565b9050519061017982610c56565b906020828203126101385761015791610c5f565b6001600160401b0381116106d55760208091020190565b90505190610179826102ce565b90929192610cb461071b82610c80565b938185526020808601920283019281841161013857915b838310610cd85750505050565b60208091610ce68486610c97565b815201920191610ccb565b9080601f8301121561013857815161015792602001610ca4565b906020828203126101385781516001600160401b038111610138576101579201610cf1565b60001981146109ce5760010190565b634e487b7160e01b600052603260045260246000fd5b90610d5e825190565b811015610d6f576020809102010190565b610d3f565b610da4916020610d8c610d87600c610c4c565b61053e565b63a3974b2190610d9b60405190565b95869260e01b90565b825260049082905afa908115610c3657610dcb600092610e00958491610e89575b5061053e565b610de9636c7d65e8610ddc60405190565b9687948593849360e01b90565b83526001600160a01b031660048301526024820190565b03915afa918215610c3657600092610e66575b50600091610e2083610995565b610e2b610157835190565b811015610e6057610e43610e3f8284610d55565b5190565b8314610e5757610e5290610d30565b610e20565b50505050600190565b50505090565b610e8291923d8091833e610e7a81836106b4565b810190610d0b565b9038610e13565b610eaa915060203d8111610eb0575b610ea281836106b4565b810190610c6c565b38610dc5565b503d610e98565b1561013857565b9061072061071b83610c80565b61015760a06106da565b610edd610ecb565b9060008252602080808080860160005b815201600081520160005b8152016000905250565b905250565b610157610ed5565b60005b828110610f1e57505050565b602090610f29610f07565b8184015201610f12565b90610179610f49610f4384610ebe565b93610c80565b601f190160208401610f0f565b90359061013e193682900301821215610138570190565b90821015610d6f5760206101579202810190610f56565b60ff8116610165565b3561015781610f84565b903590601e19368290030182121561013857018035906001600160401b0382116101385760200191602082023603831361013857565b6101579081565b6101579054610fcd565b90610fe890610995565b600052602052604060002090565b90600019905b9181191691161790565b9061101661015761101d92610995565b8254610ff6565b9055565b634e487b7160e01b600052602160045260246000fd5b6004111561104157565b611021565b9061017982611037565b6110606101576101579260ff1690565b611046565b9060ff90610ffc565b61015790611046565b9061108761015761101d9261106e565b8254611065565b801515610165565b356101578161108e565b9061ff009060081b610ffc565b906110bd61015761101d92151590565b82546110a0565b61015760606106da565b634e487b7160e01b600052600060045260246000fd5b9061101661015761101d9290565b61024a6101576101579260ff1690565b9061108761015761101d926110f2565b906110bd61015761101d926110f2565b6101799190611164906040906001906111438161113d875190565b906110e4565b019261115c611156602083015160ff1690565b85611102565b015160ff1690565b90611112565b9061017991611122565b61015760406106da565b6111866110c4565b90600082526020808084016000610ef8565b61015761117e565b6111a8611174565b90600082526020808301610f02611198565b6101576111a0565b60005b8281106111d157505050565b6020906111dc6111ba565b81840152016111c5565b906101796111f6610f4384610ebe565b601f1901602084016111c2565b818102929181159184041417156109ce57565b610157906003611203565b9160001960089290920291821b911b610ffc565b921b90565b919061124961015761101d9390565b908354611221565b6101799160009161123a565b60009060019061126d8382611251565b0155565b90600003611282576101799061125d565b6110ce565b600060016101799261129b83808301611251565b01611271565b906000036112825761017990611287565b8181106112bd575050565b806112cb60006003936112a1565b016112b2565b906112e490600019906020036008021c90565b8154169055565b90918281106112f957505050565b61131d61131161130b61017995611216565b92611216565b92600052602060002090565b90810191016112b2565b90600160401b81116106d5578161133f610179935490565b908281556112eb565b610179919061136a906020906001906113638161113d875190565b0192015190565b9061116a565b9061017991611348565b6113a5611399611388845190565b936113938585611327565b60200190565b91600052602060002090565b6000915b8383106113b65750505050565b60036020826113ce6113c86001955190565b86611370565b019201920191906113a9565b906101799161137a565b9190811015610d6f576020020190565b8054821015610d6f5761140e600391600052602060002090565b91020190600090565b91906112825761017991611348565b805182526101799190608090819060208181015160ff169085015261145060408201516040860152565b60608181015160ff16908501525b015160ff16910152565b9061070a8160a093611426565b9061149561148e611484845190565b8084529260200190565b9260200190565b9060005b8181106114a65750505090565b9091926114c06114b96001928651611468565b9460200190565b929101611499565b602080825261015792910190611475565b926114e76114ec9184610d74565b610eb7565b80926114f784610f33565b9460005b855b8110156119835761151a6000611514838787610f6d565b01610f8d565b60009061153061152983610a27565b9160ff1690565b148015611960575b80611930575b61191157600161155a610157611554600d610fd4565b83610fde565b61156f611567600d610fd4565b848301611006565b6115b261158961158485611514888c8c610f6d565b611050565b6115968484019182611077565b6115ac60206115a6888c8c610f6d565b01611096565b906110ad565b61161987611610886116066115f360806115148b6115dc60406115d6838b8a610f6d565b0161098b565b976115ed606061151484848b610f6d565b96610f6d565b91610a536115ff6110c4565b958a870152565b60ff166040830152565b6003830161116a565b61163561162c60a06115d6878b8b610f6d565b600283016110e4565b6116428860068301611006565b611678600561166f61166a61166561165b898d8d610f6d565b60c0810190610f97565b905090565b6111e6565b920191826113da565b8161168284610995565b905b6117dc575b5050508161174c91818a88886116a860206115a66114fd9a8585610f6d565b15611753576116fa61171c866117046116ee826115148a8a996060996116e96117309f9d6117249e6116e4866116de600d610fd4565b93610d55565b510152565b610f6d565b60206116fa8a89610d55565b51019060ff169052565b610bcd61171082610995565b60406116e48a89610d55565b948593610d55565b60806116fa848d610d55565b611740611745611740600d610fd4565b610d30565b600d611006565b90506114fb565b50509161176f61178693826116e461177a956116de600d610fd4565b611514848a8a610f6d565b60206116fa848d610d55565b6117a561179960406115d6848a8a610f6d565b60406116e4848d610d55565b6117c46117b86060611514848a8a610f6d565b60606116fa848d610d55565b6117d76117246080611514848a8a610f6d565b611730565b6117f061015761166561165b888c8c610f6d565b81101561190c57808391611805878b8b610f6d565b60c0810161181291610f97565b61181c92916113e4565b6118259061098b565b81611831888c8c610f6d565b60e0810161183e91610f97565b61184892916113e4565b6118519061098b565b8a838b8a82611861828685610f6d565b610100810161186f91610f97565b61187992916113e4565b61188290610f8d565b9361188c92610f6d565b610120810161189a91610f97565b6118a492916113e4565b6118ad90610f8d565b906118b66110c4565b926118c1908a850152565b60ff16602083015260ff1660408201526118d9611174565b916118e49088840152565b60208201526118f382856113f4565b6118fd9291611417565b61190690610d30565b90611684565b611689565b6114fd916117408261192561174c94610995565b906116e4848d610d55565b5061194d611665611942848888610f6d565b610120810190610f97565b61195a610b376002610995565b1061153e565b5061197081611514848888610f6d565b61197d6115296001610a27565b14611538565b509493505050506119c17ff06bbfe8259a0d85b68dc8fdfbcd7b973eb8b6c58ba60205df72316fada78330916119b860405190565b918291826114c8565b0390a1565b369037565b906101796119db610f4384610ebe565b601f1901602084016119c6565b9190811015610d6f5760a0020190565b6101579060081c61024a565b61015790546119f8565b6101579061024a565b6101579054611a0e565b90815491600160401b8310156106d55782611a44916001610179950181556113f4565b90611417565b90611a5961148e611484845190565b9060005b818110611a6a5750505090565b909192611a806114b96001928651815260200190565b929101611a5d565b602080825261015792910190611a4a565b9391611aa991936114e791610d74565b81611ab3836119cb565b90600092611ac084610995565b855b811015611ce457611c43818489611ae96101576115548b6115d6611ac299876001976119e8565b90611af58a8301610fd4565b611b01610b378c610995565b14611c8057808201611b1281611a04565b611cd457611b1f81611a17565b611b31611b2b8d611046565b91611046565b14159081611cb6575b50611c80578b8484611b5260206115d68484876119e8565b159283611c8f575b505050611c8057898c611b7360206115d68888856119e8565b151580611c5c575b611c4a5761174094611c2c610b3193611c3093611c276005611c36990194611c208c611c12611ba78990565b95611c08611beb6080611514611bc360206115d6898c896119e8565b96611bd460406115d6838d8a6119e8565b99611be5606061151484848b6119e8565b966119e8565b91611bfe611bf76110c4565b978b890152565b60ff166020870152565b60ff166040850152565b611c1a611174565b95860152565b6020840152565b611a21565b5490565b91610995565b611c408389610d55565b52565b9050611ac0565b5090506117409250611c369150610995565b50611c6d60806115148888856119e8565b611c7961152984610a27565b1415611b7b565b505050611740611c3688610995565b611ca1935091611514916080936119e8565b611cad6115298c610a27565b1484848e611b5a565b611cc09150611a17565b611ccc611b2b83611046565b141538611b3a565b50505050611740611c3688610995565b509450509150506119c17f84e429272224c5c9485525947ea29bcf457fcc2111a1eb498080255bcf03f87f91611d1960405190565b91829182611a88565b919082018092116109ce57565b90359060de193682900301821215610138570190565b90821015610d6f5760206101579202810190611d2f565b906003811015610d6f576020020190565b90359061019e193682900301821215610138570190565b90821015610d6f5760206101579202810190611d6d565b6005111561013857565b6005111561104157565b9061017982611da5565b3561015781611d9b565b6002111561013857565b6002111561104157565b9061017982611dcd565b3561015781611dc3565b6003111561013857565b6003111561104157565b9061017982611df5565b3561015781611deb565b61014b6101576101579290565b61015790611e13565b919091611e466114e7610180830194611e418661098b565b610d74565b6101a0810191611e596116658484610f97565b90611e73600092611e6c610b3785610995565b1415610eb7565b611e936114e7611e86610120860161098b565b61088c610140870161098b565b610100830190611ea282611096565b6126d5575b611eb083610995565b611ec06101576116658888610f97565b811015611f5757600180611edc611ed682610995565b84611d22565b905b611ef3575b5050611eee90610d30565b611eb0565b868689611f066101576116658386610f97565b841015611f4f5782611e6c610b37610157856115d689611f3d88611f438f9b8f9e9c6115d690611f499f6117409e611f3d91610f97565b90611d45565b98610f97565b90611ede565b505050611ee3565b50939291949094611f6781610995565b611f776101576116658787610f97565b81101561228a576001611fb4611fa884611fa2611f9c826115d688611f3d8e8e610f97565b85610fde565b01610fd4565b611e6c610b3786610995565b611fd981611fd3611fcd866115d687611f3d8d8d610f97565b82610fde565b01611a17565b611fe5611b2b83611046565b14801561225e575b612183575b84838784611fff8c611096565b612052575b9061201b94506115149250611f3d9060c094610f97565b6120286115296005610a27565b1161203b5761203690610d30565b611f67565b6040515b637e0819f760e01b8152600490fd5b0390fd5b611fcd612074936115d661206e93611f3d899661207899610f97565b01611a04565b1590565b61203b5761209c6006611fa2612096866115d687611f3d8d8d610f97565b84610fde565b6120ab610b376101578761098b565b0361203b57612107906120df6120da60606120ca86611f3d8c8c610f97565b016120d487610995565b90611d5c565b611096565b6120ec8515155b91151590565b14908161214f575b83888884612115575b5050505015151590565b61203b573884838784612004565b61214593945060606121346120e694611f3d61213f956120da95610f97565b016120d46002610995565b92151590565b14388388886120fd565b90506121716120da606061216786611f3d8c8c610f97565b016120d484610995565b61217c8515156120e6565b14906120f4565b6121b66121a461166561219a85611f3d8b8b610f97565b6020810190610f97565b6121b0610b3784610995565b11610eb7565b806121c084610995565b905b6121cd575b50611ff2565b858488856121e861015761166561219a84611f3d878a610f97565b85101561225557600561223a61223461223f956115d685611f3d8861222e6122298e6122238f6101579d610b379f611f3d9061219a93610f97565b906113e4565b61098b565b9b610f97565b88610fde565b015490565b101561203b5761224f8291610d30565b906121c2565b505050506121c7565b5061227881611fd3611fcd866115d687611f3d8d8d610f97565b612284611b2b85611046565b14611fed565b5092505091925061229a81610995565b6101c083016122af6101576116658387610f97565b8210156126cf576122d4836122ce846122c88589610f97565b90611d84565b01611db9565b6122e66122e085611daf565b91611daf565b146126a2575b6122fe836122ce846122c88589610f97565b60019061230d6122e083611daf565b14612515575b50612326836122ce846122c88589610f97565b6123336122e06002611daf565b14612466575b8261234c816122ce856122c8868a610f97565b60039061235b6122e083611daf565b146123f5575b612373826122ce866122c8878b610f97565b926004936123836122e086611daf565b1461239b575b5050505061239690610d30565b61229a565b6123bd92916123b76101606115d6886122c8611fa2968d610f97565b90610fde565b6123c9610b3785610995565b146123d657828180612389565b61204e906123e360405190565b637e0819f760e01b8152918291820190565b905061241161012061240b856122c8868a610f97565b01611e09565b61242361241d86611dff565b91611dff565b148015612436575b61203b578390612361565b5061245161014061244b856122c8868a610f97565b016109d3565b612460610c2561014b87611e20565b1461242b565b61247960a061240b846122c88589610f97565b61248561241d85611dff565b146124b7575b61249e60c06115d6846122c88589610f97565b6124aa610b3785610995565b036123395760405161203f565b6124ca60e061240b846122c88589610f97565b6124d661241d85611dff565b1480156124eb575b1561248b5760405161203f565b5061250061010061244b846122c88589610f97565b61250f610c2561014b86611e20565b146124de565b61252860406115d6856122c8868a610f97565b612534610b3786610995565b1461203b5761255384611fa261209660406115d6886122c8898d610f97565b61255f610b3786610995565b1461203b57612582611665612578856122c8868a610f97565b6080810190610f97565b61258e610b3786610995565b1461203b576125ac60606125a6856122c8868a610f97565b01611de1565b6125be6125b883611dd7565b91611dd7565b03612675576125d7611665612578856122c8868a610f97565b6125e4610b376002610995565b1061203b575b806125f485610995565b905b612601575b50612313565b85848461261b610157611665612578856122c88689610f97565b84101561266d57610157600561223a61223460406115d6876122c88861222e6122298e6122238f6126579f610b379f6122c89061257893610f97565b101561203b576126678291610d30565b906125f6565b5050506125fb565b612689611665612578856122c8868a610f97565b612695610b3783610995565b146125ea5760405161203f565b6126b661166561219a846122c88589610f97565b6126c2610b3785610995565b036122ec5760405161203f565b50505050565b6126ec6126e46080860161098b565b600090611e6c565b612700611fa86116656101c0870187610f97565b611ea7565b9061108761015761101d92151590565b906110bd61015761101d9261106e565b6001600160401b0381116106d55760200290565b61071b61015791612725565b9061017961275b61275584612739565b93612725565b836119c6565b6101576003612745565b612773610ecb565b9060008252602080808080860160608152016000815201610ef8612761565b61015761276b565b60005b8281106127a957505050565b6020906127b4612792565b818401520161279d565b906101796127ce610f4384610ebe565b601f19016020840161279a565b610157906005611203565b919061124961015761101d93610995565b610179916000916127e6565b81811061280e575050565b8061281c60006001936127f7565b01612803565b909182811061283057505050565b610179929061283e90611311565b9081019101612803565b90600160401b81116106d55781612860610179935490565b90828155612822565b600061017991612848565b906000036112825761017990612869565b610179906001810190612803565b906000036112825761017990612885565b6000906004906128b483826127f7565b6128c18360018301612874565b82600282015561126d8360038301612893565b9060000361128257610179906128a4565b8181106128f0575050565b806128fe60006005936128d4565b016128e5565b909182811061291257505050565b61292a611311612924610179956127db565b926127db565b90810191016128e5565b90600160401b81116106d5578161294c610179935490565b90828155612904565b8151916001600160401b0383116106d5576129796113116001926113938686612848565b92049160005b83811061298c5750505050565b600190602061299c610157865190565b940193818401550161297f565b9061017991612955565b9190918282106129c257505050565b61017992600190602090601f018190046020601f86010484019301930602600081116129ef575b50612803565b6129fc90600183036112d1565b386129e9565b90600160401b81116106d557610179916003906129b3565b91906008610ffc91029161123560ff841b90565b906003906109bf612a43916101578486612a02565b602082049160005b838110612aae575060208302900360008111612a675750505050565b92600093845b818110612a82575050500155388080806126cf565b9091946020612aa4600192612a9a6101578a51151590565b9085850290612a1a565b9601929101612a6d565b6000805b60208110612ac7575083820155600101612a4b565b95906020612ae8600192612ade6101578651151590565b908a850290612a1a565b92019601612ab2565b9061017991612a2e565b6101799190612b7090608090600490612b1c81612b16875190565b90611006565b612b3460018201612b2e602088015190565b906129a9565b612b4e60028201612b486040880151151590565b90612705565b612b6660038201612b60606088015190565b90612af1565b0192015160ff1690565b90611102565b9061017991612afb565b612b99611399612b8e845190565b936113938585612934565b6000915b838310612baa5750505050565b6005602082612bc2612bbc6001955190565b86612b76565b01920192019190612b9d565b9061017991612b80565b6101576101a06106da565b602090818080808080808080808080612bfa612bd8565b9d8e6000815201606081520160008152016000815201606081520160008152016000815201600081520160008152016000610eed565b610157612be3565b60005b828110612c4757505050565b602090612c52612c30565b8184015201612c3b565b90610179612c6c610f4384610ebe565b601f190160208401612c38565b61015790600b611203565b600080825590600a90612c9a8360018301612874565b612ca783600283016127f7565b826003820155612cba8360048301612874565b826005820155612ccd83600683016127f7565b82600782015582600882015561126d83600983016127f7565b906000036112825761017990612c84565b818110612d02575050565b80612d106000600b93612ce6565b01612cf7565b9091828110612d2457505050565b612d3c611311612d3661017995612c79565b92612c79565b9081019101612cf7565b90600160401b81116106d55781612d5e610179935490565b90828155612d16565b6101579051611daf565b61015790611daf565b9061108761015761101d92612d71565b916001600160a01b0360089290920291821b911b610ffc565b8151916001600160401b0383116106d557612dc76113116001926113938686612848565b92049160005b838110612dda5750505050565b6001906020612df361015786516001600160a01b031690565b9401938184015501612dcd565b9061017991612da3565b6101579051611dd7565b61015790611dd7565b9061108761015761101d92612e14565b6101579051611dff565b61015790611dff565b9061108761015761101d92612e37565b90610100600160a81b039060081b610ffc565b90612e7361015761101d9261053e565b8254612e50565b9060ff60a81b9060a81b610ffc565b90612e9961015761101d92612e37565b8254612e7a565b906001600160a01b0390610ffc565b90612ebf61015761101d9261053e565b8254612ea0565b6101799190612b489061018090600a90612ee981612ee387612d67565b90612d7a565b612f0160018201612efb602088015190565b90612e00565b612f1360028201612b16604088015190565b612f2c60038201612f2660608801612e0a565b90612e1d565b612f3e60048201612b2e608088015190565b612f5760058201612f5160a08801612e2d565b90612e40565b612f6960068201612b1660c088015190565b612fb660078201612f85612f7f60e08901612e2d565b82612e40565b612fa3612f9d6101008901516001600160a01b031690565b82612e63565b612fb06101208801612e2d565b90612e89565b612fd860088201612fd26101408801516001600160a01b031690565b90612eaf565b612feb60098201612b1661016088015190565b01920151151590565b9061017991612ec6565b61301761139961300c845190565b936113938585612d46565b6000915b8383106130285750505050565b600b60208261304061303a6001955190565b86612ff4565b0192019201919061301b565b9061017991612ffe565b9092919261306661071b82610c80565b938185526020808601920283019281841161013857915b83831061308a5750505050565b6020809161309884866102d4565b81520192019161307d565b610157913691613056565b905035906101798261108e565b909291926130cb61071b82612725565b93602085920283019281841161013857915b8383106130ea5750505050565b602080916130f884866130ae565b8152019201916130dd565b61015790600336916130bb565b8054821015610d6f5761140e600591600052602060002090565b91906112825761017991612afb565b9061019e90611daf565b9092919261315361071b82610c80565b938185526020808601920283019281841161013857915b8383106131775750505050565b60208091613185848661016c565b81520192019161316a565b610157913691613143565b9061019e90611dd7565b9061019e90611dff565b8054821015610d6f5761140e600b91600052602060002090565b91906112825761017991612ec6565b90610fe89061053e565b8054821015610d6f5761140e600191600052602060002090565b90815491600160401b8310156106d5578261321f916001610179950181556131e2565b906127e6565b805182526101799190604090819060208181015160ff169085015261145e565b90815260e081019392610179929091608091613266905b6020830190613225565b0190613225565b6000815260e0810193926101799290916080916132669061325c565b905051906101798261015a565b906020828203126101385761015791613289565b9081526040810192916101799160200152565b6132c73382611e29565b6132d961015760036123b7600e610fd4565b6132ec6132e6600e610fd4565b82611006565b6133056132fc610180840161098b565b60098301611006565b61331a6133118361098b565b600183016110e4565b6133616133296020840161098b565b61335861333860408601610f8d565b61160661334760608801610f8d565b91610a536133536110c4565b958652565b6002830161116a565b61339761337060a0840161098b565b61338e61337f60c08601610f8d565b61160661334760e08801610f8d565b6004830161116a565b6133af6133a66080840161098b565b600783016110e4565b6133c86133bf6101008401611096565b60068301612705565b600e8101926133d8600085612715565b6133f16133e8610140850161098b565b600b8401611006565b61340a613401610120850161098b565b600c8401611006565b61343f6134176000610995565b9461342586600d8601611006565b61343242600a8601611006565b612b486101608601611096565b61346461345b6134566116656101a0870187610f97565b6127be565b60088401612bce565b61348961348061347b6116656101c0870187610f97565b612c5c565b6010840161304c565b835b61349f6101576116656101a0870187610f97565b8110156135b257806134b56101a0860186610f97565b6134bf9291611d45565b6134c89061098b565b816134d76101a0870187610f97565b6134e19291611d45565b602081016134ee91610f97565b90836134fe6101a0890189610f97565b6135089291611d45565b60400161351490611096565b846135236101a08a018a610f97565b61352d9291611d45565b60600191856135406101a08b018b610f97565b61354a9291611d45565b60c00161355690610f8d565b9361355f610ecb565b95865261356b916130a3565b60208501521515604084015261358090613103565b606083015260ff16608082015261359a8260088601613110565b6135a4929161312a565b6135ad90610d30565b61348b565b509290815b6135cb6101576116656101c0870187610f97565b8110156139455780806135e26101c0870187610f97565b6135ec9291611d84565b6135f590611db9565b85826136056101c0830183610f97565b61360f9291611d84565b6020810161361c91610f97565b9390928161362e6101c0850185610f97565b6136389291611d84565b6040016136449061098b565b826136536101c0860186610f97565b61365d9291611d84565b60600161366990611de1565b836136786101c0870187610f97565b6136829291611d84565b6080810161368f91610f97565b908561369f6101c0890189610f97565b6136a99291611d84565b60a0016136b590611e09565b90866136c56101c08a018a610f97565b6136cf9291611d84565b60c0016136db9061098b565b92876136eb6101c08b018b610f97565b6136f59291611d84565b60e00161370190611e09565b94886137116101c08c018c610f97565b61371b9291611d84565b61010001613728906109d3565b96896137386101c08d018d610f97565b6137429291611d84565b6101200161374f90611e09565b988a61375f6101c08e018e610f97565b6137699291611d84565b61014001613776906109d3565b9a806137866101c08f018f610f97565b6137909291611d84565b6101600161379d9061098b565b9c6101c081016137ac91610f97565b6137b69291611d84565b610180016137c390611096565b9c6137cc612bd8565b9e8f926137d99084613139565b6137e291613190565b6020909101526137f39060408e0152565b6138009060608d0161319b565b613809916130a3565b60808a015261381b9060a08a016131a5565b60c088015261382d9060e088016131a5565b6001600160a01b031661010086015261384a9061012086016131a5565b6001600160a01b0316610140840152610160830152151561018082015261387482601085016131af565b61387e92916131c9565b8061388d6101c0860186610f97565b6138979291611d84565b6138a090611db9565b6138aa6000611daf565b906138b490611daf565b146138c8575b6138c390610d30565b6135b7565b939091805b6138e861015761166561219a896122c86101c08b018b610f97565b81101561393c57806117406139276101578861392161391c6139379761222361219a8f6122c8600a976101c0810190610f97565b6109d3565b906131d8565b613931600e610fd4565b906131fc565b6138cd565b509190936138ba565b5091613a5a9150600490613965613927610157611f9c610180850161098b565b6139726101008201611096565b15613b0d5750613982600e610fd4565b61398a6110c4565b906139956000610995565b61399d818452565b6139d86139aa6000610a27565b60ff81166020860181905260408601526139ca6139c56110c4565b938452565b60ff81166020840152611606565b613a027ff86695856fc6ac5f4f5857c48c494622557b0ba3e6059c86249b7bd975b8267292610995565b92613a18613a0f60405190565b9283928361326d565b0390a25b613a33613a2c611740600e610fd4565b600e611006565b6020613a42610d87600c610c4c565b635e70f30690613a5160405190565b94859260e01b90565b8252818085810103915afa918215610c3657602092613a8091600091613af6575061053e565b613ab2600063d192bf78613abb613aa26009613a9b8a610fd4565b9901610fd4565b6040519889978896879560e01b90565b855284016132aa565b03925af18015610c3657613acc5750565b613aec9060203d8111613aef575b613ae481836106b4565b810190613296565b50565b503d613ada565b610eaa9150843d8111610eb057610ea281836106b4565b613b17600e610fd4565b613b208261098b565b613b2c6020840161098b565b90613b70613b3c60408601610f8d565b613b66613b4b60608801610f8d565b91613b5c613b576110c4565b968752565b60ff166020860152565b60ff166040840152565b613bc0613b7f60a0860161098b565b94613bb6613b9b60e0613b9460c08501610f8d565b9301610f8d565b91613bac613ba76110c4565b988952565b60ff166020880152565b60ff166040860152565b613c00613bed7ff86695856fc6ac5f4f5857c48c494622557b0ba3e6059c86249b7bd975b8267294610995565b94613bf760405190565b93849384613245565b0390a2613a1c565b600092918391613c1a610b3784610995565b148080613cbe575b613cb1578080613c9f575b613c905715918280613c7f575b613c705782613c58575b5050613c4c57565b90506101576003610a27565b613c67919250610b3790610995565b14153880613c44565b50505090506101576002610a27565b50613c8981610995565b8214613c3a565b50505090506101576001610a27565b50613ca983610995565b821415613c2d565b5050610157919250610a27565b50613cc883610995565b8214613c22565b9190613cdd81600094613c08565b90613ce86000610a27565b60ff831614613d5157600191613cfd83610a27565b60ff821614613d4557613d106002610a27565b60ff821614613d3e57613d266115296003610a27565b14613d2f575050565b9192509042905b1061203b5790565b5090925050565b50919250904290613d36565b506001925050565b906020828203126101385761015791610c97565b90821015610d6f576020613d849202810190610f97565b9091565b61019e90612e37565b613da16101576101579260ff1690565b6001600160401b031690565b61019e90613d91565b916020610179929493613dd160408201966000830190613d88565b0190613dad565b8054821015610d6f5761140e600291600052602060002090565b6101799190612f5190602090600190613e0d81612b16875190565b019201612e2d565b91906112825761017991613df2565b90815491600160401b8310156106d55782613e4791600161017995018155613dd8565b90613e15565b634e487b7160e01b600052603160045260246000fd5b80548015613e86576000190190613e83613e7d83836131e2565b906127f7565b55565b613e4d565b90929192613e9b61071b826106ee565b93818552602085019082840111610138576101799261077a565b9080601f8301121561013857815161015792602001613e8b565b906020828203126101385781516001600160401b038111610138576101579201613eb5565b61019e90610995565b92916020613f1a610179936040870190878203600089015261079d565b940190613ef4565b6103205261036052610340526101005261024052610120526101805261014052610160526102e052610280526101c0526102005261030052613f846020613f6c610d87600c610c4c565b63a3974b2190613f7b60405190565b93849260e01b90565b825260049082905afa8015610c3657613faa602091613fb9936000916145aa575061053e565b63b47c7d5d90613f7b60405190565b8252610300516001600160a01b0316600483015260249082905afa8015610c365760006102a052614a44575b50613ff96120746103005161032051614ae5565b61203b57610340516101e0526140116101e0516119cb565b6103805261401f6000610995565b6101e05181101561407e576140799061174061406c6000614065600861404a60036103205190610fde565b0161405f6122298761034051610360516113e4565b90613110565b5001610fd4565b611c408361038051610d55565b61401f565b5061408b6101e0516119cb565b6101a0526140996000610995565b60e05260e0516102c0525b6101e0516102c0511015614689576140e960046140e260086140ca610320516003610fde565b0161405f6122296102c05161034051610360516113e4565b5001611a17565b61022052600060c052606060c0526141126001611fd3611fcd610e3f6102c05161038051610d55565b61411f611b2b6001611046565b14801561465a575b156145c15761414b6141466116656102c051610280516102e051613d6d565b6119cb565b610260526102605160c0526141606000610995565b61417a6101576116656102c051610280516102e051613d6d565b8110156141de576141d9906117406141cc6141c660016141a360086140ca610320516003610fde565b50016141c0612229866122236102c051610280516102e051613d6d565b906131e2565b9061028c565b611c408361026051610d55565b614160565b505b6141f76101576141f0600f610fd4565b6002610fde565b60a05261420f614207600f610fd4565b60a051611006565b614230614225610e3f6102c05161038051610d55565b600260a05101611006565b61425961424e6001611fd3611fcd610e3f6102c05161038051610d55565b600160a05101611077565b6142b76142736122296102c05161024051610100516113e4565b6142ac61429261428d6102c05161018051610120516113e4565b610f8d565b61160661334761428d6102c05161016051610140516113e4565b600360a0510161116a565b6142c9600660a0510160c051906129a9565b6142f36142e86142e36102c051610200516101c0516113e4565b611e09565b600860a05101612e40565b614306600960a051016103205190611006565b6143166001600a60a05101612705565b614329600c60a051016102a05190611006565b61433842600b60a05101611006565b614355614345600f610fd4565b611c406102c0516101a051610d55565b6143766020614367610d87600c610c4c565b632630c12f90613f7b60405190565b825260049082905afa8015610c365761439c6020916143e3936000916145aa575061053e565b630b5e30a5906143d36143bc6142e36102c051610200516101c0516113e4565b926143c660405190565b9586948593849360e01b90565b8352610220519060048401613db6565b03915afa8015610c36576144029160009161457c575b5060e051611d22565b60e05261441c614415611740600f610fd4565b600f611006565b61443d61443161015760056102a05190610fde565b60a05161393190610fd4565b61449761445b61015760066123b7610e3f6102c05161038051610d55565b60a05161446790610fd4565b90614492614479600860a05101611a17565b614489614484611174565b948552565b602084016131a5565b613e24565b60006080526144a66000610995565b60076144c4610157611c2c612096610e3f6102c05161038051610d55565b821015614575576141c6826144e96144ee936123b7610e3f6102c05161038051610d55565b6131e2565b6144fb610b376102a05190565b1461450e5761450990610d30565b6144a6565b5060016080525b60805115614548575b61453361443161015760086103205190610fde565b61453f6102c051610d30565b6102c0526140a4565b61457061456661015760076123b7610e3f6102c05161038051610d55565b6102a051906131fc565b61451e565b5050614515565b61459d915060203d81116145a3575b61459581836106b4565b810190613d59565b386143f9565b503d61458b565b610eaa9150833d8111610eb057610ea281836106b4565b6145dc6001611fd3611fcd610e3f6102c05161038051610d55565b6145e9611b2b6003611046565b03614645576146406145fe6141466001610995565b8060c052611c4061462f61222961461f6102c051610280516102e051613d6d565b6146296000610995565b916113e4565b9161463a6000610995565b90610d55565b6141e0565b6146526141466000610995565b60c0526141e0565b506146766001611fd3611fcd610e3f6102c05161038051610d55565b614683611b2b6000611046565b14614127565b60036146aa600d61469d6103205184610fde565b01612b1661174082610fd4565b6146c96146bf61015760096102a05190610fde565b61032051906131fc565b6146db600c611fa26103205184610fde565b6146e8610b376000610995565b141580614a12575b6149f0575b506147006000610995565b6000815b600a614719610157611c2c61030051846131d8565b8210156149e9576141c6826144e96147359361030051906131d8565b614742610b376103205190565b146147555761475090610d30565b614704565b91505060015b614956575b5061476e610d87600c610c4c565b635e70f306602061477e60405190565b809361478a8460e01b90565b825260049082905afa8015610c36576147af6000916147be948391610e89575061053e565b63fcf09b1b90613a5160405190565b825281806147d960e0516103005161032051600485016109dd565b03915afa918215610c3657600092614932575b50602061480891614800610d87600c610c4c565b604051613f7b565b825260049082905afa8015610c365761482891600091610e89575061053e565b6000637f145dde9161483960405190565b9061485f8260208101614853610320518290815260200190565b908103825203836106b4565b6040519384928391829161488791651cd958dc995d60d21b919060e01b845260048401613efd565b03915afa908115610c365760009161490f575b506148a66108e5825190565b20426148d3611c307f8885a3d636b48f61dfb7323cd5a7974256a74c5a37b4bfb10794d3198e299cdb9390565b916148dd60405190565b600090a36119c17f21a9d16686173f4f5dbb5619d089a4534fe73cf1fa0d6a8acedbaa8a99e3f2cc9161080160405190565b61492c91503d806000833e61492481836106b4565b810190613ecf565b3861489a565b61480891925061494e6020913d806000833e61492481836106b4565b9291506147ec565b600a90614969611c2c61030051846131d8565b61497b610157600192610b3184610995565b8210156149c6576149c19261321f836144e96149b66141c6611740966141c06149b06149aa610300518a6131d8565b92610995565b86611d22565b9361030051906131d8565b614956565b5050506149e36149de610157600a61030051906131d8565b613e63565b38614760565b505061475b565b614a0c90600e614a066002926103205190610fde565b01612715565b386146f5565b50614a25600d611fa26103205184610fde565b614a3d610b37610157600c611fa26103205187610fde565b10156146f0565b614a5b9060203d81116145a35761459581836106b4565b6102a05238613fe5565b90614a74611311611484845490565b9060005b818110614a855750505090565b909192614aa9614aa2600192614a9a87610fd4565b815260200190565b9460010190565b929101614a78565b9061015791614a65565b90610179614ad592614acc60405190565b93848092614ab1565b03836106b4565b61015790614abb565b614af76020613f6c610d87600c610c4c565b825260049082905afa8015610c3657613faa602091614b1d936000916145aa575061053e565b82526001600160a01b038616600483015260249082905afa908115610c365760009161517f575b506003614b566000611fa28584610fde565b92600093614b66610b3786610995565b1461517757614b7a600e61206e8385610fde565b614b86611b2b86611046565b0361517757614b9484610995565b6008614ba6610157611c2c8584610fde565b821015614be657600c611fa2614bc9926123b76141c6866144e989600295610fde565b8414614bdd57614bd890610d30565b614b94565b50505050905090565b50509091614bf9601061223a8486610fde565b614c05610b3786610995565b1461516d57614c1384610995565b614c25610157601061223a8688610fde565b811015614da757614c46856140e2836010614c40888a610fde565b016131af565b614c526122e087611daf565b14614d14575b614c6c856140e2836010614c40888a610fde565b614c796122e06004611daf565b14614c8d575b614c8890610d30565b614c13565b929394614ca3614c9e836005610fde565b614adc565b95614cad81610995565b614cb8610157895190565b811015614d095786614ce9610b3761015760096140658b60108f8d614ce3610e3f8c614c4094610d55565b99610fde565b14614cfc57614cf790610d30565b614cad565b5050505050505050600190565b509095509392614c7f565b92909493614d2181610995565b614d3f6101576001614d39886010614c408a8a610fde565b50015490565b811015614d9d57614d6c614d66826001614d5f896010614c408b8b610fde565b50016131e2565b9061050a565b614d7e6001600160a01b038816610c25565b14614d9157614d8c90610d30565b614d21565b50505050505050600190565b5093949092614c58565b506001945084939284929190614dbc85610995565b965b614dcd575b5050505050905090565b614ddf610157601061223a8685610fde565b8710156151685785614dfb866140e28a6010614c408988610fde565b614e076122e089611daf565b14614e3c575b84614e34575b508315614e2a57614e248697610d30565b96614dbe565b5050505091505090565b935038614e13565b5084614e4c614c9e846005610fde565b8780614e5789610995565b905b614e66575b505050614e0d565b838b8689614e75610157885190565b85101561515f57610b3761015786614065610e3f966010614c40614ea997614ce38f611fa2611fcd60029e8f9a8b94610d55565b14614ec0575b5050614eba90610d30565b81614e59565b868d8a8d614ee46125b8614ede866140e2876010614c408985610fde565b92611dd7565b1461507d575b82916010614c406140e293614efe96610fde565b614f0a6125b886611dd7565b14614f21575b50614f1c578338614eaf565b614e5e565b9050828c614f2e8c610995565b915b614f4a575b5050508380614f445738614f10565b50614e5e565b6101576004614d39614f6b936010614c408f9c9f8e9f9b98999a9c9e610fde565b82101561506f57614f7b8b610995565b905b614fb3575b508a9088614fa357614f9390610d30565b8c82949897959392999699614f30565b819397969492508c989598614f35565b614fdd6101576006879e9f9d9c9b9a9694959897614fd7610e3f61223a928d610d55565b8a610fde565b81101561505e578661502a610b376101578f8f60066150248d6123b7610e3f8f968f8f6141c6908f99614d5f6004916010614c406141c69f61501e98610fde565b9b610d55565b016131e2565b1461504a576150398d91610d30565b909b94959291939798999a9c614f7d565b509195509596979998919289809790614f82565b9b9a9394919092969798999b614f82565b92969593918c989598614f35565b5091925050838b61508d81610995565b915b6150a0575b5050908686928a614eea565b6150ca610157600661223a6150c49b9e9b610e3f8c9e9f9b999a809d999899610d55565b89610fde565b83101561514d57615114610b376101576141c68660068f8f978f8f6151086141c661510e9460048f614d5f906010614c40610e3f996150249c610fde565b9a610d55565b8c610fde565b14615135575061512390610d30565b8c908b839599989694939a979a61508f565b959850929695909490938593509190614efe8b615094565b81925099969998979593929498615094565b50505050614e5e565b614dc3565b5050505050600190565b505050905090565b615197915060203d81116145a35761459581836106b4565b38614b44565b91906151ae61015761101d9361053e565b908354612d8a565b90815491600160401b8310156106d557826151d9916001610179950181556131e2565b9061519d565b91615242959394916003956151f96000611fa2878a610fde565b9161520c600093611e6c610b3786610995565b61521b6009611fa2888b610fde565b602061522a610d87600c610c4c565b63a3974b219061523960405190565b9c8d9260e01b90565b825260049082905afa8015610c365761526685916152879c8391610e89575061053e565b636c7d65e890610de9339261527a60405190565b9e8f948593849360e01b90565b03915afa998a15610c3657849a61554b575b5083996152a585610995565b6152b0610157835190565b811015615537576152c4610e3f8284610d55565b83146152d8576152d390610d30565b6152a5565b5050509091929394959697506152ee6001610eb7565b61533660026153086152ff82611046565b611e6c85611046565b615317600e61206e8a8d610fde565b615323611b2b8c611046565b141590888b8361550f575b505050610eb7565b61535361534b610157600d611fa28a8d610fde565b861015610eb7565b61535d42886121b0565b61536c600e61206e888b610fde565b615378611b2b83611046565b036154f9575b50809161538a81610995565b83036153f3575b505050506153a4600c611fa28487610fde565b8190036153dd575b506153bc600b611fa28386610fde565b8290036153c857505050565b6153d7600b9161017994610fde565b01611006565b6153ed90600c6153d78487610fde565b386153ac565b9297909396919561540384610995565b97885b615418610157601061223a8b89610fde565b8110156154e657615433866140e2836010614c408d8b610fde565b61543f6122e088611daf565b146154525761544d90610d30565b615406565b9798509596949592939192909161546890610995565b885b8110156154d3576154cc816117408a6154c76101578f61392161391c8f998f9a8f6154ab60016154a661546a9f6010614c408e6154bf97610fde565b500190565b6154b961391c85858a6113e4565b906151b6565b600a946113e4565b6131fc565b9050615468565b5093509493509550935038808080615391565b5090919293615468909895969798610995565b61550990600e614a06888b610fde565b3861537e565b61552d929350600e61206e611b2b9361552793610fde565b92611046565b141538888b61532e565b50505090919293949596976152ee90610eb7565b615560919a503d8086833e610e7a81836106b4565b9838615299565b9081526040810192916101799160209061097c565b634e487b7160e01b600052602260045260246000fd5b90600160028304921680156155b2575b60208310146155ad57565b61557c565b91607f16916155a2565b9190601f81116155cb57505050565b6155dd61017993600052602060002090565b906020601f8401819004830193106155ff575b6020601f909101040190612803565b90915081906155f0565b90615612815190565b906001600160401b0382116106d5576156358261562f8554615592565b856155bc565b602090601f83116001146156705761101d929160009183615665575b5050600019600883021c1916906002021790565b015190503880615651565b601f1983169161568585600052602060002090565b9260005b8181106156c3575091600293918560019694106156aa575b50505002019055565b01516000196008601f8516021c191690553880806156a1565b91936020600181928787015181550195019201615689565b91906112825761017991615609565b90815491600160401b8310156106d5578261570d916001610179950181556131e2565b906156db565b91909160036157486009611fa2846157306000611fa28388610fde565b94615743600096611e6c610b3789610995565b610fde565b933494615758610d87600c610c4c565b635e70f30692602061576960405190565b80936157758760e01b90565b825260049082905afa8015610c365761579a6020916157a99488916145aa575061053e565b632f54891290613a5160405190565b825281806157bb868c60048401615567565b03915afa8015610c36576157da6157e1916157ff948891615ba1575090565b8914610eb7565b60206157f0610d87600c610c4c565b63a3974b2190613a5160405190565b825260049082905afa908115610c3657615825602092615836948891613af6575061053e565b610de963b47c7d5d6143c660405190565b03915afa908115610c36578491615b83575b509261585e614c9e856005999499989598610fde565b9561586882610995565b975b615875610157895190565b89101561599c5761588583610995565b6008615897610157611c2c8b84610fde565b82101561597c57896158c4610b37610157610e3f8f6158be8f896144e96141c6928b610fde565b95610d55565b146158d9575b506158d490610d30565b615885565b999693909895928a6158f2611c2c8b8d99969993610fde565b615904610157600192610b3184610995565b82101561595857611c2c8b61594c8f9a9998979695946117408c61321f836144e9876159466141c66158f29c6141c06159406149aa868b610fde565b87611d22565b94610fde565b93949596979899610fde565b50509295986159766149de6101578b6158d495989b9e999699610fde565b906158ca565b5050929761598f90959295949194610d30565b979294919493909361586a565b96509650909392936159ad82610995565b60096159bf610157611c2c8984610fde565b821015615a69576159d76141c6836144e98a85610fde565b86146159ed575b506159e890610d30565b6159ad565b97929490969193875b615a03611c2c898c610fde565b615a15610157600192610b3184610995565b821015615a4857906117408b61321f836144e98d6159466141c6615a43996141c06159406149aa868b610fde565b6159f6565b5050939196615a636149de610157896159e89599979c610fde565b906159de565b50509395615ad5614853602093979498615ad0615aea97615a8e61015789600b610fde565b92615ab4615a9b60405190565b898101928352918290610af460208661070a8285610a21565b615abf6108e5825190565b2060405194859289840192836132aa565b6156ea565b615ae2610d87600c610c4c565b604051613a51565b825260049082905afa908115610c3657615b10602092615b2f948791613af6575061053e565b615b2163178f53106143c660405190565b835260048301526024820190565b03915afa908115610c36578392615b52610d87859485948591615b6b575061053e565b828215615b62575bf115610c3657565b506108fc615b5a565b610eaa915060203d8111613aef57613ae481836106b4565b615b9b915060203d81116145a35761459581836106b4565b38615848565b610157915060203d81116145a35761459581836106b456fea26469706673582212208e68ed765d30096dc295a12eb8af168e68824e7ab967f6bcc73aa1a7c694e41b64736f6c63430008150033",
  "linkReferences": {},
  "deployedLinkReferences": {}
}