{
  "_format": "hh-sol-artifact-1",
  "contractName": "SurveyContract",
  "sourceName": "contracts/SurveyContract.sol",
  "abi": [
    {
      "inputs": [
        {
          "internalType": "address",
          "name": "_contractStore",
          "type": "address"
        }
      ],
      "stateMutability": "nonpayable",
      "type": "constructor"
    },
    {
      "inputs": [],
      "name": "CanNotAnswerSurvey",
      "type": "error"
    },
    {
      "inputs": [],
      "name": "DelegateCallFailed",
      "type": "error"
    },
    {
      "inputs": [],
      "name": "QuestionIsPrivate",
      "type": "error"
    },
    {
      "inputs": [],
      "name": "Unauthorized",
      "type": "error"
    },
    {
      "inputs": [],
      "name": "UserNotPartOfOrganisation",
      "type": "error"
    },
    {
      "anonymous": false,
      "inputs": [
        {
          "indexed": false,
          "internalType": "uint256[]",
          "name": "data",
          "type": "uint256[]"
        }
      ],
      "name": "OptionsAdded",
      "type": "event"
    },
    {
      "anonymous": false,
      "inputs": [
        {
          "components": [
            {
              "internalType": "uint256",
              "name": "questionId",
              "type": "uint256"
            },
            {
              "internalType": "uint8",
              "name": "questionType",
              "type": "uint8"
            },
            {
              "internalType": "bytes32",
              "name": "questionIpfsDigest",
              "type": "bytes32"
            },
            {
              "internalType": "uint8",
              "name": "questionipfshashfunction",
              "type": "uint8"
            },
            {
              "internalType": "uint8",
              "name": "questionipfshashsize",
              "type": "uint8"
            }
          ],
          "indexed": false,
          "internalType": "struct QuestionData[]",
          "name": "data",
          "type": "tuple[]"
        }
      ],
      "name": "QuestionsAdded",
      "type": "event"
    },
    {
      "anonymous": false,
      "inputs": [
        {
          "indexed": true,
          "internalType": "bytes32",
          "name": "surveyId",
          "type": "bytes32"
        },
        {
          "indexed": true,
          "internalType": "uint256",
          "name": "blocktime",
          "type": "uint256"
        }
      ],
      "name": "SurveyAnswered",
      "type": "event"
    },
    {
      "anonymous": false,
      "inputs": [
        {
          "indexed": true,
          "internalType": "uint256",
          "name": "surveyId",
          "type": "uint256"
        },
        {
          "indexed": false,
          "internalType": "bytes32",
          "name": "surveyTitle",
          "type": "bytes32"
        },
        {
          "components": [
            {
              "internalType": "bytes32",
              "name": "digest",
              "type": "bytes32"
            },
            {
              "internalType": "uint8",
              "name": "hashFunction",
              "type": "uint8"
            },
            {
              "internalType": "uint8",
              "name": "size",
              "type": "uint8"
            }
          ],
          "indexed": false,
          "internalType": "struct IPFSHash",
          "name": "surveyTitleIPFS",
          "type": "tuple"
        },
        {
          "components": [
            {
              "internalType": "bytes32",
              "name": "digest",
              "type": "bytes32"
            },
            {
              "internalType": "uint8",
              "name": "hashFunction",
              "type": "uint8"
            },
            {
              "internalType": "uint8",
              "name": "size",
              "type": "uint8"
            }
          ],
          "indexed": false,
          "internalType": "struct IPFSHash",
          "name": "surveyIntroIPFS",
          "type": "tuple"
        }
      ],
      "name": "SurveyCreated",
      "type": "event"
    },
    {
      "anonymous": false,
      "inputs": [
        {
          "indexed": false,
          "internalType": "bytes",
          "name": "data",
          "type": "bytes"
        }
      ],
      "name": "TxRequest",
      "type": "event"
    },
    {
      "inputs": [],
      "name": "ADMIN_ROLE",
      "outputs": [
        {
          "internalType": "bytes32",
          "name": "",
          "type": "bytes32"
        }
      ],
      "stateMutability": "view",
      "type": "function"
    },
    {
      "inputs": [],
      "name": "EIP712_DOMAIN_TYPEHASH",
      "outputs": [
        {
          "internalType": "bytes32",
          "name": "",
          "type": "bytes32"
        }
      ],
      "stateMutability": "view",
      "type": "function"
    },
    {
      "inputs": [],
      "name": "SIGNIN_TYPE",
      "outputs": [
        {
          "internalType": "string",
          "name": "",
          "type": "string"
        }
      ],
      "stateMutability": "view",
      "type": "function"
    },
    {
      "inputs": [],
      "name": "SIGNIN_TYPEHASH",
      "outputs": [
        {
          "internalType": "bytes32",
          "name": "",
          "type": "bytes32"
        }
      ],
      "stateMutability": "view",
      "type": "function"
    },
    {
      "inputs": [
        {
          "internalType": "uint256",
          "name": "surveyId",
          "type": "uint256"
        },
        {
          "internalType": "uint256[]",
          "name": "questionIndex",
          "type": "uint256[]"
        },
        {
          "internalType": "bytes32[]",
          "name": "answerHashIPFSDigest",
          "type": "bytes32[]"
        },
        {
          "internalType": "uint8[]",
          "name": "answerHashIPFSHashFunction",
          "type": "uint8[]"
        },
        {
          "internalType": "uint8[]",
          "name": "answerHashIPFSHashSize",
          "type": "uint8[]"
        },
        {
          "internalType": "uint256[][]",
          "name": "optionIndexes",
          "type": "uint256[][]"
        },
        {
          "internalType": "enum AnswerType[]",
          "name": "ansType",
          "type": "uint8[]"
        },
        {
          "internalType": "address",
          "name": "userAddress",
          "type": "address"
        }
      ],
      "name": "SubmitAnswerToSurveyWithProxy",
      "outputs": [],
      "stateMutability": "nonpayable",
      "type": "function"
    },
    {
      "inputs": [],
      "name": "checkCivicPass",
      "outputs": [
        {
          "internalType": "bool",
          "name": "",
          "type": "bool"
        }
      ],
      "stateMutability": "view",
      "type": "function"
    },
    {
      "inputs": [
        {
          "internalType": "uint256",
          "name": "surveyId",
          "type": "uint256"
        },
        {
          "components": [
            {
              "internalType": "address",
              "name": "user",
              "type": "address"
            },
            {
              "internalType": "uint256",
              "name": "time",
              "type": "uint256"
            },
            {
              "components": [
                {
                  "internalType": "bytes32",
                  "name": "r",
                  "type": "bytes32"
                },
                {
                  "internalType": "bytes32",
                  "name": "s",
                  "type": "bytes32"
                },
                {
                  "internalType": "uint256",
                  "name": "v",
                  "type": "uint256"
                }
              ],
              "internalType": "struct SignatureRSV",
              "name": "rsv",
              "type": "tuple"
            }
          ],
          "internalType": "struct SignIn",
          "name": "auth",
          "type": "tuple"
        }
      ],
      "name": "checkRespondantOnChainFilters",
      "outputs": [
        {
          "components": [
            {
              "internalType": "enum FILTER_TYPE",
              "name": "filter_type",
              "type": "uint8"
            },
            {
              "internalType": "address[]",
              "name": "address_list",
              "type": "address[]"
            },
            {
              "internalType": "uint256",
              "name": "prev_response_value_questionId",
              "type": "uint256"
            },
            {
              "components": [
                {
                  "internalType": "bytes32",
                  "name": "digest",
                  "type": "bytes32"
                },
                {
                  "internalType": "uint8",
                  "name": "hashFunction",
                  "type": "uint8"
                },
                {
                  "internalType": "uint8",
                  "name": "size",
                  "type": "uint8"
                }
              ],
              "internalType": "struct IPFSHash",
              "name": "questionIPFSHash",
              "type": "tuple"
            },
            {
              "internalType": "enum PREV_RESPONSE_VALUE_MATCH_TYPE",
              "name": "prev_response_value_matchType",
              "type": "uint8"
            },
            {
              "components": [
                {
                  "internalType": "bytes32",
                  "name": "option",
                  "type": "bytes32"
                },
                {
                  "components": [
                    {
                      "internalType": "bytes32",
                      "name": "digest",
                      "type": "bytes32"
                    },
                    {
                      "internalType": "uint8",
                      "name": "hashFunction",
                      "type": "uint8"
                    },
                    {
                      "internalType": "uint8",
                      "name": "size",
                      "type": "uint8"
                    }
                  ],
                  "internalType": "struct IPFSHash",
                  "name": "optionIPFSHash",
                  "type": "tuple"
                }
              ],
              "internalType": "struct QuestionOption[]",
              "name": "prev_response_value_options_optionString",
              "type": "tuple[]"
            },
            {
              "internalType": "enum TOKENS",
              "name": "token_reserve_selectedToken",
              "type": "uint8"
            },
            {
              "internalType": "uint256",
              "name": "token_reserve_minAmount",
              "type": "uint256"
            },
            {
              "internalType": "enum CHAINS",
              "name": "token_reserve_selectedChain",
              "type": "uint8"
            },
            {
              "internalType": "address",
              "name": "token_reserve_contractAddress",
              "type": "address"
            },
            {
              "internalType": "enum CHAINS",
              "name": "nft_token_selectedchain",
              "type": "uint8"
            },
            {
              "internalType": "address",
              "name": "nft_token_nftContractAddress",
              "type": "address"
            },
            {
              "internalType": "uint256",
              "name": "survey_answered_id",
              "type": "uint256"
            },
            {
              "internalType": "bool",
              "name": "active",
              "type": "bool"
            }
          ],
          "internalType": "struct AudienceFilterStructForOrganisationSurveyView[]",
          "name": "",
          "type": "tuple[]"
        }
      ],
      "stateMutability": "view",
      "type": "function"
    },
    {
      "inputs": [],
      "name": "contractStore",
      "outputs": [
        {
          "internalType": "contract ContractStore",
          "name": "",
          "type": "address"
        }
      ],
      "stateMutability": "view",
      "type": "function"
    },
    {
      "inputs": [
        {
          "components": [
            {
              "internalType": "uint256",
              "name": "questionId",
              "type": "uint256"
            },
            {
              "internalType": "bytes32",
              "name": "optionString",
              "type": "bytes32"
            },
            {
              "internalType": "bytes32",
              "name": "optionDigest",
              "type": "bytes32"
            },
            {
              "internalType": "uint8",
              "name": "optionHashFunction",
              "type": "uint8"
            },
            {
              "internalType": "uint8",
              "name": "optionSize",
              "type": "uint8"
            }
          ],
          "internalType": "struct OptionsToCreate[]",
          "name": "_options",
          "type": "tuple[]"
        },
        {
          "internalType": "uint256",
          "name": "organisationId",
          "type": "uint256"
        }
      ],
      "name": "createOptions",
      "outputs": [],
      "stateMutability": "nonpayable",
      "type": "function"
    },
    {
      "inputs": [
        {
          "components": [
            {
              "internalType": "uint8",
              "name": "questionType",
              "type": "uint8"
            },
            {
              "internalType": "bool",
              "name": "isPrivate",
              "type": "bool"
            },
            {
              "internalType": "bytes32",
              "name": "ipfsHashDigest",
              "type": "bytes32"
            },
            {
              "internalType": "uint8",
              "name": "ipfsHashHashFunction",
              "type": "uint8"
            },
            {
              "internalType": "uint8",
              "name": "ipfsHashSize",
              "type": "uint8"
            },
            {
              "internalType": "bytes32",
              "name": "questionNonce",
              "type": "bytes32"
            },
            {
              "internalType": "bytes32[]",
              "name": "QuestionOptionsBytes32",
              "type": "bytes32[]"
            },
            {
              "internalType": "bytes32[]",
              "name": "QuestionOptionipfsHashDigest",
              "type": "bytes32[]"
            },
            {
              "internalType": "uint8[]",
              "name": "QuestionOptionipfsHashHashFunction",
              "type": "uint8[]"
            },
            {
              "internalType": "uint8[]",
              "name": "QuestionOptionipfsHashSize",
              "type": "uint8[]"
            }
          ],
          "internalType": "struct questionCreateRequest[]",
          "name": "_questions",
          "type": "tuple[]"
        },
        {
          "internalType": "uint256",
          "name": "organisationId",
          "type": "uint256"
        }
      ],
      "name": "createQuestions",
      "outputs": [],
      "stateMutability": "nonpayable",
      "type": "function"
    },
    {
      "inputs": [
        {
          "components": [
            {
              "internalType": "bytes32",
              "name": "titlesBytes",
              "type": "bytes32"
            },
            {
              "internalType": "bytes32",
              "name": "titleIPFSDigest",
              "type": "bytes32"
            },
            {
              "internalType": "uint8",
              "name": "titleIPFSHashFunction",
              "type": "uint8"
            },
            {
              "internalType": "uint8",
              "name": "titleIPFSSize",
              "type": "uint8"
            },
            {
              "internalType": "bytes32",
              "name": "surveyNonce",
              "type": "bytes32"
            },
            {
              "internalType": "bytes32",
              "name": "descriptionIPFSDigest",
              "type": "bytes32"
            },
            {
              "internalType": "uint8",
              "name": "descriptionIPFSHashFunction",
              "type": "uint8"
            },
            {
              "internalType": "uint8",
              "name": "descriptionIPFSSize",
              "type": "uint8"
            },
            {
              "internalType": "bool",
              "name": "isSurveyPrivate",
              "type": "bool"
            },
            {
              "internalType": "uint256",
              "name": "surveyAudienceSize",
              "type": "uint256"
            },
            {
              "internalType": "uint256",
              "name": "surveyExpiryDate",
              "type": "uint256"
            },
            {
              "internalType": "bool",
              "name": "publishOnMarketplace",
              "type": "bool"
            },
            {
              "internalType": "uint256",
              "name": "createdBy",
              "type": "uint256"
            },
            {
              "components": [
                {
                  "internalType": "uint256",
                  "name": "questionId",
                  "type": "uint256"
                },
                {
                  "internalType": "uint256[]",
                  "name": "selectedOptionsIndex",
                  "type": "uint256[]"
                },
                {
                  "internalType": "bool",
                  "name": "isMandatory",
                  "type": "bool"
                },
                {
                  "internalType": "bool[3]",
                  "name": "answerTypeAllowed",
                  "type": "bool[3]"
                },
                {
                  "internalType": "uint8",
                  "name": "privacyLevelRating",
                  "type": "uint8"
                }
              ],
              "internalType": "struct QuestionInstance[]",
              "name": "questions",
              "type": "tuple[]"
            },
            {
              "components": [
                {
                  "internalType": "enum FILTER_TYPE",
                  "name": "filter_type",
                  "type": "uint8"
                },
                {
                  "internalType": "address[]",
                  "name": "address_list",
                  "type": "address[]"
                },
                {
                  "internalType": "uint256",
                  "name": "prev_response_value_questionId",
                  "type": "uint256"
                },
                {
                  "internalType": "enum PREV_RESPONSE_VALUE_MATCH_TYPE",
                  "name": "prev_response_value_matchType",
                  "type": "uint8"
                },
                {
                  "internalType": "uint256[]",
                  "name": "prev_response_value_options",
                  "type": "uint256[]"
                },
                {
                  "internalType": "enum TOKENS",
                  "name": "token_reserve_selectedToken",
                  "type": "uint8"
                },
                {
                  "internalType": "uint256",
                  "name": "token_reserve_minAmount",
                  "type": "uint256"
                },
                {
                  "internalType": "enum CHAINS",
                  "name": "token_reserve_selectedChain",
                  "type": "uint8"
                },
                {
                  "internalType": "address",
                  "name": "token_reserve_contractAddress",
                  "type": "address"
                },
                {
                  "internalType": "enum CHAINS",
                  "name": "nft_token_selectedchain",
                  "type": "uint8"
                },
                {
                  "internalType": "address",
                  "name": "nft_token_nftContractAddress",
                  "type": "address"
                },
                {
                  "internalType": "uint256",
                  "name": "survey_answered_id",
                  "type": "uint256"
                },
                {
                  "internalType": "bool",
                  "name": "active",
                  "type": "bool"
                }
              ],
              "internalType": "struct AudienceFilterRequest[]",
              "name": "audienceFilters",
              "type": "tuple[]"
            }
          ],
          "internalType": "struct surveyCreationRequest",
          "name": "_request",
          "type": "tuple"
        }
      ],
      "name": "createSurvey",
      "outputs": [],
      "stateMutability": "nonpayable",
      "type": "function"
    },
    {
      "inputs": [
        {
          "internalType": "uint256",
          "name": "surveyId",
          "type": "uint256"
        },
        {
          "internalType": "enum SurveyStatus",
          "name": "newstatus",
          "type": "uint8"
        },
        {
          "internalType": "address[]",
          "name": "newAddressList",
          "type": "address[]"
        },
        {
          "internalType": "uint256",
          "name": "new_audience_size",
          "type": "uint256"
        },
        {
          "internalType": "uint256",
          "name": "new_expiry_time",
          "type": "uint256"
        }
      ],
      "name": "editSurvey",
      "outputs": [],
      "stateMutability": "nonpayable",
      "type": "function"
    },
    {
      "inputs": [
        {
          "internalType": "uint256",
          "name": "organisationId",
          "type": "uint256"
        },
        {
          "components": [
            {
              "internalType": "address",
              "name": "user",
              "type": "address"
            },
            {
              "internalType": "uint256",
              "name": "time",
              "type": "uint256"
            },
            {
              "components": [
                {
                  "internalType": "bytes32",
                  "name": "r",
                  "type": "bytes32"
                },
                {
                  "internalType": "bytes32",
                  "name": "s",
                  "type": "bytes32"
                },
                {
                  "internalType": "uint256",
                  "name": "v",
                  "type": "uint256"
                }
              ],
              "internalType": "struct SignatureRSV",
              "name": "rsv",
              "type": "tuple"
            }
          ],
          "internalType": "struct SignIn",
          "name": "auth",
          "type": "tuple"
        }
      ],
      "name": "getAllSurveysOfOrganisation",
      "outputs": [
        {
          "components": [
            {
              "internalType": "uint256",
              "name": "surveyId",
              "type": "uint256"
            },
            {
              "internalType": "bytes32",
              "name": "surveyTitle",
              "type": "bytes32"
            },
            {
              "components": [
                {
                  "internalType": "bytes32",
                  "name": "digest",
                  "type": "bytes32"
                },
                {
                  "internalType": "uint8",
                  "name": "hashFunction",
                  "type": "uint8"
                },
                {
                  "internalType": "uint8",
                  "name": "size",
                  "type": "uint8"
                }
              ],
              "internalType": "struct IPFSHash",
              "name": "surveyTitleIPFS",
              "type": "tuple"
            },
            {
              "internalType": "bool",
              "name": "isSurveyPrivate",
              "type": "bool"
            },
            {
              "internalType": "uint256",
              "name": "validUntil",
              "type": "uint256"
            },
            {
              "internalType": "uint256",
              "name": "targetAudienceSize",
              "type": "uint256"
            },
            {
              "internalType": "uint256",
              "name": "targetAudienceReached",
              "type": "uint256"
            },
            {
              "internalType": "enum SurveyStatus",
              "name": "surveyStatus",
              "type": "uint8"
            }
          ],
          "internalType": "struct MinimalSurveyView[]",
          "name": "",
          "type": "tuple[]"
        }
      ],
      "stateMutability": "view",
      "type": "function"
    },
    {
      "inputs": [
        {
          "internalType": "uint256",
          "name": "surveyId",
          "type": "uint256"
        },
        {
          "internalType": "uint256",
          "name": "questionIndexId",
          "type": "uint256"
        },
        {
          "components": [
            {
              "internalType": "address",
              "name": "user",
              "type": "address"
            },
            {
              "internalType": "uint256",
              "name": "time",
              "type": "uint256"
            },
            {
              "components": [
                {
                  "internalType": "bytes32",
                  "name": "r",
                  "type": "bytes32"
                },
                {
                  "internalType": "bytes32",
                  "name": "s",
                  "type": "bytes32"
                },
                {
                  "internalType": "uint256",
                  "name": "v",
                  "type": "uint256"
                }
              ],
              "internalType": "struct SignatureRSV",
              "name": "rsv",
              "type": "tuple"
            }
          ],
          "internalType": "struct SignIn",
          "name": "auth",
          "type": "tuple"
        }
      ],
      "name": "getAnswersOfQuestionInSurvey",
      "outputs": [
        {
          "components": [
            {
              "internalType": "bytes32",
              "name": "answeredBy",
              "type": "bytes32"
            },
            {
              "internalType": "uint256[]",
              "name": "optionIndexes",
              "type": "uint256[]"
            },
            {
              "components": [
                {
                  "internalType": "bytes32",
                  "name": "digest",
                  "type": "bytes32"
                },
                {
                  "internalType": "uint8",
                  "name": "hashFunction",
                  "type": "uint8"
                },
                {
                  "internalType": "uint8",
                  "name": "size",
                  "type": "uint8"
                }
              ],
              "internalType": "struct IPFSHash",
              "name": "answerHashIPFS",
              "type": "tuple"
            }
          ],
          "internalType": "struct AnswersOfAQuestionStruct[]",
          "name": "",
          "type": "tuple[]"
        }
      ],
      "stateMutability": "view",
      "type": "function"
    },
    {
      "inputs": [
        {
          "components": [
            {
              "internalType": "address",
              "name": "user",
              "type": "address"
            },
            {
              "internalType": "uint256",
              "name": "time",
              "type": "uint256"
            },
            {
              "components": [
                {
                  "internalType": "bytes32",
                  "name": "r",
                  "type": "bytes32"
                },
                {
                  "internalType": "bytes32",
                  "name": "s",
                  "type": "bytes32"
                },
                {
                  "internalType": "uint256",
                  "name": "v",
                  "type": "uint256"
                }
              ],
              "internalType": "struct SignatureRSV",
              "name": "rsv",
              "type": "tuple"
            }
          ],
          "internalType": "struct SignIn",
          "name": "auth",
          "type": "tuple"
        }
      ],
      "name": "getMyAnsweredSurveys",
      "outputs": [
        {
          "internalType": "uint256[]",
          "name": "",
          "type": "uint256[]"
        }
      ],
      "stateMutability": "view",
      "type": "function"
    },
    {
      "inputs": [
        {
          "internalType": "uint256",
          "name": "organisationId",
          "type": "uint256"
        }
      ],
      "name": "getMyNotifications",
      "outputs": [
        {
          "internalType": "bytes[]",
          "name": "",
          "type": "bytes[]"
        }
      ],
      "stateMutability": "view",
      "type": "function"
    },
    {
      "inputs": [
        {
          "components": [
            {
              "internalType": "address",
              "name": "user",
              "type": "address"
            },
            {
              "internalType": "uint256",
              "name": "time",
              "type": "uint256"
            },
            {
              "components": [
                {
                  "internalType": "bytes32",
                  "name": "r",
                  "type": "bytes32"
                },
                {
                  "internalType": "bytes32",
                  "name": "s",
                  "type": "bytes32"
                },
                {
                  "internalType": "uint256",
                  "name": "v",
                  "type": "uint256"
                }
              ],
              "internalType": "struct SignatureRSV",
              "name": "rsv",
              "type": "tuple"
            }
          ],
          "internalType": "struct SignIn",
          "name": "auth",
          "type": "tuple"
        }
      ],
      "name": "getMyPrivateInvitations",
      "outputs": [
        {
          "internalType": "uint256[]",
          "name": "",
          "type": "uint256[]"
        }
      ],
      "stateMutability": "view",
      "type": "function"
    },
    {
      "inputs": [
        {
          "internalType": "uint256",
          "name": "surveyId",
          "type": "uint256"
        },
        {
          "components": [
            {
              "internalType": "address",
              "name": "user",
              "type": "address"
            },
            {
              "internalType": "uint256",
              "name": "time",
              "type": "uint256"
            },
            {
              "components": [
                {
                  "internalType": "bytes32",
                  "name": "r",
                  "type": "bytes32"
                },
                {
                  "internalType": "bytes32",
                  "name": "s",
                  "type": "bytes32"
                },
                {
                  "internalType": "uint256",
                  "name": "v",
                  "type": "uint256"
                }
              ],
              "internalType": "struct SignatureRSV",
              "name": "rsv",
              "type": "tuple"
            }
          ],
          "internalType": "struct SignIn",
          "name": "auth",
          "type": "tuple"
        }
      ],
      "name": "getOrganisationViewofSurvey",
      "outputs": [
        {
          "components": [
            {
              "internalType": "uint256",
              "name": "surveyId",
              "type": "uint256"
            },
            {
              "internalType": "bytes32",
              "name": "surveyTitle",
              "type": "bytes32"
            },
            {
              "components": [
                {
                  "internalType": "bytes32",
                  "name": "digest",
                  "type": "bytes32"
                },
                {
                  "internalType": "uint8",
                  "name": "hashFunction",
                  "type": "uint8"
                },
                {
                  "internalType": "uint8",
                  "name": "size",
                  "type": "uint8"
                }
              ],
              "internalType": "struct IPFSHash",
              "name": "surveyTitleIPFS",
              "type": "tuple"
            },
            {
              "components": [
                {
                  "internalType": "bytes32",
                  "name": "digest",
                  "type": "bytes32"
                },
                {
                  "internalType": "uint8",
                  "name": "hashFunction",
                  "type": "uint8"
                },
                {
                  "internalType": "uint8",
                  "name": "size",
                  "type": "uint8"
                }
              ],
              "internalType": "struct IPFSHash",
              "name": "surveyIntroIPFS",
              "type": "tuple"
            },
            {
              "internalType": "bool",
              "name": "isSurveyPrivate",
              "type": "bool"
            },
            {
              "internalType": "bytes32",
              "name": "surveyNonce",
              "type": "bytes32"
            },
            {
              "components": [
                {
                  "internalType": "uint256",
                  "name": "questionId",
                  "type": "uint256"
                },
                {
                  "internalType": "uint256[]",
                  "name": "selectedOptionsIndex",
                  "type": "uint256[]"
                },
                {
                  "internalType": "bool",
                  "name": "isMandatory",
                  "type": "bool"
                },
                {
                  "internalType": "bool[3]",
                  "name": "answerTypeAllowed",
                  "type": "bool[3]"
                },
                {
                  "internalType": "uint8",
                  "name": "privacyLevelRating",
                  "type": "uint8"
                }
              ],
              "internalType": "struct QuestionInstance[]",
              "name": "questions",
              "type": "tuple[]"
            },
            {
              "internalType": "uint256",
              "name": "createdBy",
              "type": "uint256"
            },
            {
              "internalType": "uint256",
              "name": "createdAt",
              "type": "uint256"
            },
            {
              "internalType": "uint256",
              "name": "validUntil",
              "type": "uint256"
            },
            {
              "internalType": "uint256",
              "name": "targetAudienceSize",
              "type": "uint256"
            },
            {
              "internalType": "uint256",
              "name": "targetAudienceReached",
              "type": "uint256"
            },
            {
              "internalType": "bool",
              "name": "publishOnMarketplace",
              "type": "bool"
            },
            {
              "internalType": "enum SurveyStatus",
              "name": "surveyStatus",
              "type": "uint8"
            },
            {
              "internalType": "uint256[]",
              "name": "allowedUsers",
              "type": "uint256[]"
            },
            {
              "components": [
                {
                  "internalType": "enum FILTER_TYPE",
                  "name": "filter_type",
                  "type": "uint8"
                },
                {
                  "internalType": "address[]",
                  "name": "address_list",
                  "type": "address[]"
                },
                {
                  "internalType": "uint256",
                  "name": "prev_response_value_questionId",
                  "type": "uint256"
                },
                {
                  "internalType": "enum PREV_RESPONSE_VALUE_MATCH_TYPE",
                  "name": "prev_response_value_matchType",
                  "type": "uint8"
                },
                {
                  "internalType": "uint256[]",
                  "name": "prev_response_value_options",
                  "type": "uint256[]"
                },
                {
                  "internalType": "enum TOKENS",
                  "name": "token_reserve_selectedToken",
                  "type": "uint8"
                },
                {
                  "internalType": "uint256",
                  "name": "token_reserve_minAmount",
                  "type": "uint256"
                },
                {
                  "internalType": "enum CHAINS",
                  "name": "token_reserve_selectedChain",
                  "type": "uint8"
                },
                {
                  "internalType": "address",
                  "name": "token_reserve_contractAddress",
                  "type": "address"
                },
                {
                  "internalType": "enum CHAINS",
                  "name": "nft_token_selectedchain",
                  "type": "uint8"
                },
                {
                  "internalType": "address",
                  "name": "nft_token_nftContractAddress",
                  "type": "address"
                },
                {
                  "internalType": "uint256",
                  "name": "survey_answered_id",
                  "type": "uint256"
                },
                {
                  "internalType": "bool",
                  "name": "active",
                  "type": "bool"
                }
              ],
              "internalType": "struct AudienceFilterRequest[]",
              "name": "audienceFilters",
              "type": "tuple[]"
            }
          ],
          "internalType": "struct Survey",
          "name": "surveyData",
          "type": "tuple"
        },
        {
          "components": [
            {
              "internalType": "uint256",
              "name": "questionId",
              "type": "uint256"
            },
            {
              "internalType": "enum QuestionType",
              "name": "qType",
              "type": "uint8"
            },
            {
              "components": [
                {
                  "internalType": "bytes32",
                  "name": "digest",
                  "type": "bytes32"
                },
                {
                  "internalType": "uint8",
                  "name": "hashFunction",
                  "type": "uint8"
                },
                {
                  "internalType": "uint8",
                  "name": "size",
                  "type": "uint8"
                }
              ],
              "internalType": "struct IPFSHash",
              "name": "questionIPFSHash",
              "type": "tuple"
            },
            {
              "components": [
                {
                  "internalType": "bytes32",
                  "name": "option",
                  "type": "bytes32"
                },
                {
                  "components": [
                    {
                      "internalType": "bytes32",
                      "name": "digest",
                      "type": "bytes32"
                    },
                    {
                      "internalType": "uint8",
                      "name": "hashFunction",
                      "type": "uint8"
                    },
                    {
                      "internalType": "uint8",
                      "name": "size",
                      "type": "uint8"
                    }
                  ],
                  "internalType": "struct IPFSHash",
                  "name": "optionIPFSHash",
                  "type": "tuple"
                }
              ],
              "internalType": "struct QuestionOption[]",
              "name": "selectedOptionsIndexOptionString",
              "type": "tuple[]"
            },
            {
              "internalType": "bool",
              "name": "isMandatory",
              "type": "bool"
            },
            {
              "internalType": "bool[3]",
              "name": "answerTypeAllowed",
              "type": "bool[3]"
            },
            {
              "internalType": "uint8",
              "name": "privacyLevelRating",
              "type": "uint8"
            }
          ],
          "internalType": "struct QuestionInstanceStructForOrganisationSurveyView[]",
          "name": "questionsData",
          "type": "tuple[]"
        },
        {
          "components": [
            {
              "internalType": "enum FILTER_TYPE",
              "name": "filter_type",
              "type": "uint8"
            },
            {
              "internalType": "address[]",
              "name": "address_list",
              "type": "address[]"
            },
            {
              "internalType": "uint256",
              "name": "prev_response_value_questionId",
              "type": "uint256"
            },
            {
              "components": [
                {
                  "internalType": "bytes32",
                  "name": "digest",
                  "type": "bytes32"
                },
                {
                  "internalType": "uint8",
                  "name": "hashFunction",
                  "type": "uint8"
                },
                {
                  "internalType": "uint8",
                  "name": "size",
                  "type": "uint8"
                }
              ],
              "internalType": "struct IPFSHash",
              "name": "questionIPFSHash",
              "type": "tuple"
            },
            {
              "internalType": "enum PREV_RESPONSE_VALUE_MATCH_TYPE",
              "name": "prev_response_value_matchType",
              "type": "uint8"
            },
            {
              "components": [
                {
                  "internalType": "bytes32",
                  "name": "option",
                  "type": "bytes32"
                },
                {
                  "components": [
                    {
                      "internalType": "bytes32",
                      "name": "digest",
                      "type": "bytes32"
                    },
                    {
                      "internalType": "uint8",
                      "name": "hashFunction",
                      "type": "uint8"
                    },
                    {
                      "internalType": "uint8",
                      "name": "size",
                      "type": "uint8"
                    }
                  ],
                  "internalType": "struct IPFSHash",
                  "name": "optionIPFSHash",
                  "type": "tuple"
                }
              ],
              "internalType": "struct QuestionOption[]",
              "name": "prev_response_value_options_optionString",
              "type": "tuple[]"
            },
            {
              "internalType": "enum TOKENS",
              "name": "token_reserve_selectedToken",
              "type": "uint8"
            },
            {
              "internalType": "uint256",
              "name": "token_reserve_minAmount",
              "type": "uint256"
            },
            {
              "internalType": "enum CHAINS",
              "name": "token_reserve_selectedChain",
              "type": "uint8"
            },
            {
              "internalType": "address",
              "name": "token_reserve_contractAddress",
              "type": "address"
            },
            {
              "internalType": "enum CHAINS",
              "name": "nft_token_selectedchain",
              "type": "uint8"
            },
            {
              "internalType": "address",
              "name": "nft_token_nftContractAddress",
              "type": "address"
            },
            {
              "internalType": "uint256",
              "name": "survey_answered_id",
              "type": "uint256"
            },
            {
              "internalType": "bool",
              "name": "active",
              "type": "bool"
            }
          ],
          "internalType": "struct AudienceFilterStructForOrganisationSurveyView[]",
          "name": "audienceFiltersData",
          "type": "tuple[]"
        },
        {
          "internalType": "bytes32",
          "name": "surveyIDencrypted",
          "type": "bytes32"
        }
      ],
      "stateMutability": "view",
      "type": "function"
    },
    {
      "inputs": [
        {
          "internalType": "uint256",
          "name": "_questionId",
          "type": "uint256"
        }
      ],
      "name": "getQuestionOptions",
      "outputs": [
        {
          "components": [
            {
              "internalType": "bytes32",
              "name": "option",
              "type": "bytes32"
            },
            {
              "components": [
                {
                  "internalType": "bytes32",
                  "name": "digest",
                  "type": "bytes32"
                },
                {
                  "internalType": "uint8",
                  "name": "hashFunction",
                  "type": "uint8"
                },
                {
                  "internalType": "uint8",
                  "name": "size",
                  "type": "uint8"
                }
              ],
              "internalType": "struct IPFSHash",
              "name": "optionIPFSHash",
              "type": "tuple"
            }
          ],
          "internalType": "struct QuestionOption[]",
          "name": "optionsString",
          "type": "tuple[]"
        }
      ],
      "stateMutability": "view",
      "type": "function"
    },
    {
      "inputs": [
        {
          "internalType": "uint256",
          "name": "surveyId",
          "type": "uint256"
        },
        {
          "components": [
            {
              "internalType": "address",
              "name": "user",
              "type": "address"
            },
            {
              "internalType": "uint256",
              "name": "time",
              "type": "uint256"
            },
            {
              "components": [
                {
                  "internalType": "bytes32",
                  "name": "r",
                  "type": "bytes32"
                },
                {
                  "internalType": "bytes32",
                  "name": "s",
                  "type": "bytes32"
                },
                {
                  "internalType": "uint256",
                  "name": "v",
                  "type": "uint256"
                }
              ],
              "internalType": "struct SignatureRSV",
              "name": "rsv",
              "type": "tuple"
            }
          ],
          "internalType": "struct SignIn",
          "name": "auth",
          "type": "tuple"
        }
      ],
      "name": "getRespondantViewOfSurvey",
      "outputs": [
        {
          "internalType": "bytes32",
          "name": "surveyTitle",
          "type": "bytes32"
        },
        {
          "components": [
            {
              "internalType": "bytes32",
              "name": "digest",
              "type": "bytes32"
            },
            {
              "internalType": "uint8",
              "name": "hashFunction",
              "type": "uint8"
            },
            {
              "internalType": "uint8",
              "name": "size",
              "type": "uint8"
            }
          ],
          "internalType": "struct IPFSHash",
          "name": "surveyTitleIPFS",
          "type": "tuple"
        },
        {
          "components": [
            {
              "internalType": "bytes32",
              "name": "digest",
              "type": "bytes32"
            },
            {
              "internalType": "uint8",
              "name": "hashFunction",
              "type": "uint8"
            },
            {
              "internalType": "uint8",
              "name": "size",
              "type": "uint8"
            }
          ],
          "internalType": "struct IPFSHash",
          "name": "surveyIntroIPFS",
          "type": "tuple"
        },
        {
          "internalType": "bytes32",
          "name": "surveyNonce",
          "type": "bytes32"
        },
        {
          "internalType": "bytes32",
          "name": "orgUserName",
          "type": "bytes32"
        },
        {
          "components": [
            {
              "internalType": "uint256",
              "name": "questionId",
              "type": "uint256"
            },
            {
              "internalType": "enum QuestionType",
              "name": "qType",
              "type": "uint8"
            },
            {
              "components": [
                {
                  "internalType": "bytes32",
                  "name": "digest",
                  "type": "bytes32"
                },
                {
                  "internalType": "uint8",
                  "name": "hashFunction",
                  "type": "uint8"
                },
                {
                  "internalType": "uint8",
                  "name": "size",
                  "type": "uint8"
                }
              ],
              "internalType": "struct IPFSHash",
              "name": "questionIPFSHash",
              "type": "tuple"
            },
            {
              "components": [
                {
                  "internalType": "bytes32",
                  "name": "option",
                  "type": "bytes32"
                },
                {
                  "components": [
                    {
                      "internalType": "bytes32",
                      "name": "digest",
                      "type": "bytes32"
                    },
                    {
                      "internalType": "uint8",
                      "name": "hashFunction",
                      "type": "uint8"
                    },
                    {
                      "internalType": "uint8",
                      "name": "size",
                      "type": "uint8"
                    }
                  ],
                  "internalType": "struct IPFSHash",
                  "name": "optionIPFSHash",
                  "type": "tuple"
                }
              ],
              "internalType": "struct QuestionOption[]",
              "name": "selectedOptionsIndexOptionString",
              "type": "tuple[]"
            },
            {
              "internalType": "bool",
              "name": "isMandatory",
              "type": "bool"
            },
            {
              "internalType": "bool[3]",
              "name": "answerTypeAllowed",
              "type": "bool[3]"
            },
            {
              "internalType": "uint8",
              "name": "privacyLevelRating",
              "type": "uint8"
            }
          ],
          "internalType": "struct QuestionInstanceStructForOrganisationSurveyView[]",
          "name": "questionsData",
          "type": "tuple[]"
        }
      ],
      "stateMutability": "view",
      "type": "function"
    },
    {
      "inputs": [
        {
          "internalType": "uint256",
          "name": "surveyId",
          "type": "uint256"
        },
        {
          "components": [
            {
              "internalType": "address",
              "name": "user",
              "type": "address"
            },
            {
              "internalType": "uint256",
              "name": "time",
              "type": "uint256"
            },
            {
              "components": [
                {
                  "internalType": "bytes32",
                  "name": "r",
                  "type": "bytes32"
                },
                {
                  "internalType": "bytes32",
                  "name": "s",
                  "type": "bytes32"
                },
                {
                  "internalType": "uint256",
                  "name": "v",
                  "type": "uint256"
                }
              ],
              "internalType": "struct SignatureRSV",
              "name": "rsv",
              "type": "tuple"
            }
          ],
          "internalType": "struct SignIn",
          "name": "auth",
          "type": "tuple"
        },
        {
          "internalType": "bool",
          "name": "getAnsweredAt",
          "type": "bool"
        }
      ],
      "name": "getSurveyBasicInfo",
      "outputs": [
        {
          "internalType": "bytes32",
          "name": "surveyTitle",
          "type": "bytes32"
        },
        {
          "components": [
            {
              "internalType": "bytes32",
              "name": "digest",
              "type": "bytes32"
            },
            {
              "internalType": "uint8",
              "name": "hashFunction",
              "type": "uint8"
            },
            {
              "internalType": "uint8",
              "name": "size",
              "type": "uint8"
            }
          ],
          "internalType": "struct IPFSHash",
          "name": "surveyTitleIPFS",
          "type": "tuple"
        },
        {
          "components": [
            {
              "internalType": "bytes32",
              "name": "digest",
              "type": "bytes32"
            },
            {
              "internalType": "uint8",
              "name": "hashFunction",
              "type": "uint8"
            },
            {
              "internalType": "uint8",
              "name": "size",
              "type": "uint8"
            }
          ],
          "internalType": "struct IPFSHash",
          "name": "surveyIntroIPFS",
          "type": "tuple"
        },
        {
          "internalType": "uint256",
          "name": "createdBy",
          "type": "uint256"
        },
        {
          "internalType": "uint256",
          "name": "createdAt",
          "type": "uint256"
        },
        {
          "internalType": "uint256",
          "name": "answeredAt",
          "type": "uint256"
        },
        {
          "internalType": "uint256",
          "name": "validTill",
          "type": "uint256"
        }
      ],
      "stateMutability": "view",
      "type": "function"
    },
    {
      "inputs": [
        {
          "internalType": "uint256",
          "name": "surveyId",
          "type": "uint256"
        }
      ],
      "name": "getSurveyCreatedBy",
      "outputs": [
        {
          "internalType": "uint256",
          "name": "",
          "type": "uint256"
        }
      ],
      "stateMutability": "view",
      "type": "function"
    },
    {
      "inputs": [],
      "name": "getSurveysActiveStatus",
      "outputs": [
        {
          "internalType": "enum SurveyStatus[]",
          "name": "",
          "type": "uint8[]"
        },
        {
          "internalType": "bool[]",
          "name": "",
          "type": "bool[]"
        }
      ],
      "stateMutability": "view",
      "type": "function"
    },
    {
      "inputs": [
        {
          "components": [
            {
              "internalType": "address",
              "name": "user",
              "type": "address"
            },
            {
              "internalType": "uint256",
              "name": "time",
              "type": "uint256"
            },
            {
              "components": [
                {
                  "internalType": "bytes32",
                  "name": "r",
                  "type": "bytes32"
                },
                {
                  "internalType": "bytes32",
                  "name": "s",
                  "type": "bytes32"
                },
                {
                  "internalType": "uint256",
                  "name": "v",
                  "type": "uint256"
                }
              ],
              "internalType": "struct SignatureRSV",
              "name": "rsv",
              "type": "tuple"
            }
          ],
          "internalType": "struct SignIn",
          "name": "auth",
          "type": "tuple"
        },
        {
          "internalType": "address",
          "name": "profile_address",
          "type": "address"
        }
      ],
      "name": "isAuthenticated",
      "outputs": [
        {
          "internalType": "bool",
          "name": "",
          "type": "bool"
        }
      ],
      "stateMutability": "view",
      "type": "function"
    },
    {
      "inputs": [
        {
          "internalType": "uint256",
          "name": "surveyId",
          "type": "uint256"
        }
      ],
      "name": "revokeAccess",
      "outputs": [],
      "stateMutability": "payable",
      "type": "function"
    },
    {
      "inputs": [],
      "name": "surveyPrice",
      "outputs": [
        {
          "internalType": "uint256",
          "name": "",
          "type": "uint256"
        }
      ],
      "stateMutability": "view",
      "type": "function"
    },
    {
      "inputs": [],
      "name": "totalSurveys",
      "outputs": [
        {
          "internalType": "uint256",
          "name": "",
          "type": "uint256"
        }
      ],
      "stateMutability": "view",
      "type": "function"
    },
    {
      "inputs": [
        {
          "internalType": "uint256",
          "name": "surveyId",
          "type": "uint256"
        },
        {
          "components": [
            {
              "internalType": "address",
              "name": "user",
              "type": "address"
            },
            {
              "internalType": "uint256",
              "name": "time",
              "type": "uint256"
            },
            {
              "components": [
                {
                  "internalType": "bytes32",
                  "name": "r",
                  "type": "bytes32"
                },
                {
                  "internalType": "bytes32",
                  "name": "s",
                  "type": "bytes32"
                },
                {
                  "internalType": "uint256",
                  "name": "v",
                  "type": "uint256"
                }
              ],
              "internalType": "struct SignatureRSV",
              "name": "rsv",
              "type": "tuple"
            }
          ],
          "internalType": "struct SignIn",
          "name": "auth",
          "type": "tuple"
        }
      ],
      "name": "viewMySurveyResponse",
      "outputs": [
        {
          "components": [
            {
              "internalType": "uint256",
              "name": "surveyId",
              "type": "uint256"
            },
            {
              "internalType": "bytes32",
              "name": "surveyTitle",
              "type": "bytes32"
            },
            {
              "components": [
                {
                  "internalType": "bytes32",
                  "name": "digest",
                  "type": "bytes32"
                },
                {
                  "internalType": "uint8",
                  "name": "hashFunction",
                  "type": "uint8"
                },
                {
                  "internalType": "uint8",
                  "name": "size",
                  "type": "uint8"
                }
              ],
              "internalType": "struct IPFSHash",
              "name": "surveyTitleIPFS",
              "type": "tuple"
            },
            {
              "components": [
                {
                  "internalType": "bytes32",
                  "name": "digest",
                  "type": "bytes32"
                },
                {
                  "internalType": "uint8",
                  "name": "hashFunction",
                  "type": "uint8"
                },
                {
                  "internalType": "uint8",
                  "name": "size",
                  "type": "uint8"
                }
              ],
              "internalType": "struct IPFSHash",
              "name": "surveyIntroIPFS",
              "type": "tuple"
            },
            {
              "internalType": "uint256",
              "name": "createdBy",
              "type": "uint256"
            },
            {
              "internalType": "uint256",
              "name": "createdAt",
              "type": "uint256"
            },
            {
              "components": [
                {
                  "internalType": "bytes32",
                  "name": "answeredBy",
                  "type": "bytes32"
                },
                {
                  "internalType": "uint256[]",
                  "name": "optionIndexes",
                  "type": "uint256[]"
                },
                {
                  "components": [
                    {
                      "internalType": "bytes32",
                      "name": "digest",
                      "type": "bytes32"
                    },
                    {
                      "internalType": "uint8",
                      "name": "hashFunction",
                      "type": "uint8"
                    },
                    {
                      "internalType": "uint8",
                      "name": "size",
                      "type": "uint8"
                    }
                  ],
                  "internalType": "struct IPFSHash",
                  "name": "answerHashIPFS",
                  "type": "tuple"
                }
              ],
              "internalType": "struct AnswersOfAQuestionStruct[]",
              "name": "answers",
              "type": "tuple[]"
            },
            {
              "internalType": "uint256[]",
              "name": "answerIds",
              "type": "uint256[]"
            },
            {
              "components": [
                {
                  "internalType": "uint256",
                  "name": "questionId",
                  "type": "uint256"
                },
                {
                  "internalType": "enum QuestionType",
                  "name": "qType",
                  "type": "uint8"
                },
                {
                  "components": [
                    {
                      "internalType": "bytes32",
                      "name": "digest",
                      "type": "bytes32"
                    },
                    {
                      "internalType": "uint8",
                      "name": "hashFunction",
                      "type": "uint8"
                    },
                    {
                      "internalType": "uint8",
                      "name": "size",
                      "type": "uint8"
                    }
                  ],
                  "internalType": "struct IPFSHash",
                  "name": "questionIPFSHash",
                  "type": "tuple"
                },
                {
                  "components": [
                    {
                      "internalType": "bytes32",
                      "name": "option",
                      "type": "bytes32"
                    },
                    {
                      "components": [
                        {
                          "internalType": "bytes32",
                          "name": "digest",
                          "type": "bytes32"
                        },
                        {
                          "internalType": "uint8",
                          "name": "hashFunction",
                          "type": "uint8"
                        },
                        {
                          "internalType": "uint8",
                          "name": "size",
                          "type": "uint8"
                        }
                      ],
                      "internalType": "struct IPFSHash",
                      "name": "optionIPFSHash",
                      "type": "tuple"
                    }
                  ],
                  "internalType": "struct QuestionOption[]",
                  "name": "selectedOptionsIndexOptionString",
                  "type": "tuple[]"
                },
                {
                  "internalType": "bool",
                  "name": "isMandatory",
                  "type": "bool"
                },
                {
                  "internalType": "bool[3]",
                  "name": "answerTypeAllowed",
                  "type": "bool[3]"
                },
                {
                  "internalType": "uint8",
                  "name": "privacyLevelRating",
                  "type": "uint8"
                }
              ],
              "internalType": "struct QuestionInstanceStructForOrganisationSurveyView[]",
              "name": "questions",
              "type": "tuple[]"
            },
            {
              "internalType": "uint256[][]",
              "name": "optionIndexes",
              "type": "uint256[][]"
            },
            {
              "internalType": "enum AnswerType[]",
              "name": "answerType",
              "type": "uint8[]"
            },
            {
              "internalType": "bytes32",
              "name": "surveyNonce",
              "type": "bytes32"
            },
            {
              "components": [
                {
                  "internalType": "bytes32",
                  "name": "digest",
                  "type": "bytes32"
                },
                {
                  "internalType": "uint8",
                  "name": "hashFunction",
                  "type": "uint8"
                },
                {
                  "internalType": "uint8",
                  "name": "size",
                  "type": "uint8"
                }
              ],
              "internalType": "struct IPFSHash[]",
              "name": "answerHashIPFSs",
              "type": "tuple[]"
            }
          ],
          "internalType": "struct SurveyResponseViewForRespondantStruct",
          "name": "",
          "type": "tuple"
        }
      ],
      "stateMutability": "view",
      "type": "function"
    }
  ],
  "bytecode": "0x60806040523462000030576200001e62000018620000d3565b6200018e565b604051615ff3620002368239615ff390f35b600080fd5b634e487b7160e01b600052604160045260246000fd5b90601f01601f191681019081106001600160401b038211176200006d57604052565b62000035565b906200008a6200008260405190565b92836200004b565b565b6001600160a01b031690565b90565b6001600160a01b038116036200003057565b905051906200008a826200009b565b9060208282031262000030576200009891620000ad565b620000986200622980380380620000ea8162000073565b928339810190620000bc565b62000098906200008c906001600160a01b031682565b6200009890620000f6565b62000098906200010c565b906001600160a01b03905b9181191691161790565b906200014b62000098620001539262000117565b825462000122565b9055565b6200009862000098620000989290565b90600019906200012d565b906200018662000098620001539262000157565b825462000167565b620001a7620001af91620001a162000228565b62000117565b600c62000137565b620001e46064620001c08162000157565b90620001ce82600d62000172565b620001db82600e62000172565b50600f62000172565b6200008a620001fb67016345785d8a000062000157565b601062000172565b9060ff906200012d565b9062000220620000986200015392151590565b825462000203565b6200008a6000806200020d56fe6080604052600436101561001257600080fd5b60003560e01c806207156f146101d1578063034101ac146101cc57806313061fff146101c75780631444b2b4146101c257806317cfac6c146101bd5780632cb303bc146101b857806332c11862146101b3578063492e9486146101ae57806350e63069146101a9578063568a060b146101a457806357d69a101461019f5780635884908b1461019a5780635bfba09d146101955780636386280514610190578063648aa5eb1461018b5780636bc984e81461018657806375b238fc146101815780637d553e3f1461017c578063a0a8272e14610177578063b4dbce9514610172578063c7977be71461016d578063c7d480fb14610168578063ce1a7cea14610163578063dab73f391461015e578063e1b97d6914610159578063e524d42e14610154578063f01593a91461014f5763f77724be036101d6576119bb565b611948565b611907565b6118c0565b611892565b6117bd565b611785565b611663565b61163c565b611547565b611492565b61142f565b611408565b611383565b61136a565b6112d1565b61122c565b611201565b6110ee565b611020565b610f20565b61096f565b610944565b610907565b6108b0565b61081f565b6107ad565b610721565b600080fd5b805b036101d657565b905035906101f1826101db565b565b908160a09103126101d65790565b919060c0838203126101d6576102249061021b81856101e4565b936020016101f3565b90565b9052565b805182526101f19190604090819060208181015160ff16908501525b015160ff16910152565b0190565b9061027561026e610264845190565b8084529260200190565b9260200190565b9060005b8181106102865750505090565b9091926102a361029c6001928651815260200190565b9460200190565b929101610279565b8051825290610224906040806102d160a084015b60208701518582036020870152610255565b94015191019061022b565b90610224916102ab565b906102fc6102f2835190565b8083529160200190565b908161030e6020830284019460200190565b926000915b83831061032257505050505090565b9091929394602061034561033e838560019503875289516102dc565b9760200190565b9301930191939290610313565b634e487b7160e01b600052602160045260246000fd5b6004111561037257565b610352565b906101f182610368565b61022490610377565b61022790610381565b805182526101f1919060209081015191019061022b565b9061025181608093610393565b906103c661026e610264845190565b9060005b8181106103d75750505090565b9091926103ea61029c60019286516103aa565b9291016103ca565b6104026103fe60039390565b9190565b6000915b8383106104135750505050565b61042861026e60019284511515815260200190565b92019190610406565b80518252906102249061014060c061047d61016084016104596020880151602087019061038a565b61046b6040880151604087019061022b565b606087015185820360a08701526103b7565b60808601511515848301529461024760a082015160e08601906103f2565b9061022491610431565b906104b16102f2835190565b90816104c36020830284019460200190565b926000915b8383106104d757505050505090565b909192939460206104f361033e8385600195038752895161049b565b93019301919392906104c8565b9061022491610255565b906105166102f2835190565b90816105286020830284019460200190565b926000915b83831061053c57505050505090565b9091929394602061055861033e83856001950387528951610500565b930193019193929061052d565b6003111561037257565b906101f182610565565b6102249061056f565b61022790610579565b9061025181602093610582565b906105a761026e610264845190565b9060005b8181106105b85750505090565b9091926105cb61029c600192865161058b565b9291016105ab565b906102518160609361022b565b906105ef61026e610264845190565b9060005b8181106106005750505090565b90919261061361029c60019286516105d3565b9291016105f3565b80518252610224916101806106ed6106d96106c56106b36106a0610220870161064960208a015160208a0152565b61065b60408a015160408a019061022b565b61066d60608a015160a08a019061022b565b61067d60808a01516101008a0152565b61068d60a08a01516101208a0152565b60c08901518882036101408a01526102e6565b60e0880151878203610160890152610255565b610100870151868203868801526104a5565b6101208601518582036101a087015261050a565b6101408501518482036101c0860152610598565b926106ff6101608201516101e0850152565b0151906102008184039101526105e0565b60208082526102249291019061061b565b346101d65761074961073d610737366004610201565b90615a12565b60405191829182610710565b0390f35b906020828203126101d657610224916101e4565b9061077061026e610264845190565b9060005b8181106107815750505090565b90919261079461029c60019286516103aa565b929101610774565b602080825261022492910190610761565b346101d6576107496107c86107c336600461074d565b612362565b6040519182918261079c565b6001600160a01b031690565b6001600160a01b0381166101dd565b905035906101f1826107e0565b919060c0838203126101d6576102249061081681856101f3565b9360a0016107ef565b346101d65761074961083b6108353660046107fc565b90611b14565b60405191829182901515815260200190565b9060a0828203126101d657610224916101f3565b9061087061026e610264845190565b9060005b8181106108815750505090565b90919261089761029c6001928651815260200190565b929101610874565b602080825261022492910190610861565b346101d6576107496108cb6108c636600461084d565b6154dc565b6040519182918261089f565b60009103126101d657565b610224916008021c5b60ff1690565b9061022491546108e2565b6102246000806108f1565b346101d6576109173660046108d7565b61074961083b6108fc565b610224916008021c81565b906102249154610922565b6102246000601061092d565b346101d6576109543660046108d7565b61074961095f610938565b6040519182918290815260200190565b346101d65761097f3660046108d7565b61074961095f615df7565b80518252906102249060c060806109a360e084016102bf565b60408087015115159085015294610247606082015160608601906103f2565b906102249161098a565b906109d86102f2835190565b90816109ea6020830284019460200190565b926000915b8383106109fe57505050505090565b90919293946020610a1a61033e838560019503875289516109c2565b93019301919392906109ef565b6005111561037257565b906101f182610a27565b61022490610a31565b61022790610a3b565b90610a5c61026e610264845190565b9060005b818110610a6d5750505090565b909192610a8c61029c60019286516001600160a01b0316815260200190565b929101610a60565b6002111561037257565b906101f182610a94565b61022490610a9e565b61022790610aa8565b906102249061018080610b25610af26101a08501610ae060008901516000880190610a44565b60208801518682036020880152610a4d565b610b0160408801516040870152565b610b1360608801516060870190610ab1565b60808701518582036080870152610255565b94610b3860a082015160a0860190610582565b610b4760c082015160c0860152565b610b5960e082015160e0860190610582565b610100818101516001600160a01b031690850152610b81610120820151610120860190610582565b610140818101516001600160a01b031690850152610ba6610160820151610160860152565b01511515910152565b9061022491610aba565b90610bc56102f2835190565b9081610bd76020830284019460200190565b926000915b838310610beb57505050505090565b90919293946020610c0761033e83856001950387528951610baf565b9301930191939290610bdc565b80518252610224916101e0610d15610c8d6102808401610c3960208701516020870152565b610c4b6040870151604087019061022b565b610c5d606087015160a087019061022b565b60808601511515610100860152610c7a60a0870151610120870152565b60c08601518582036101408701526109cc565b610c9d60e0860151610160860152565b610cae610100860151610180860152565b610cbf6101208601516101a0860152565b610cd06101408601516101c0860152565b610cdf61016086015184860152565b6101808501511515610200850152610d016101a086015161022086019061038a565b6101c0850151848203610240860152610255565b92015190610260818403910152610bb9565b90610d336102f2835190565b9081610d456020830284019460200190565b926000915b838310610d5957505050505090565b90919293946020610d7561033e8385600195038752895161049b565b9301930191939290610d4a565b90610224906101e06101a0610def610daa6102008501610ae060008901516000880190610a44565b610db960408801516040870152565b610dcb6060880151606087019061022b565b610ddd608088015160c0870190610ab1565b60a087015185820360e08701526103b7565b94610e0360c0820151610100860190610582565b610e1360e0820151610120860152565b610e27610100820151610140860190610582565b6101208101516001600160a01b0316610160850152610e50610140820151610180860190610582565b6101608101516001600160a01b031684830152610ba66101808201516101c0860152565b9061022491610d82565b90610e8a6102f2835190565b9081610e9c6020830284019460200190565b926000915b838310610eb057505050505090565b90919293946020610ecc61033e83856001950387528951610e74565b9301930191939290610ea1565b9493916101f193610f0d610f1b92610eff60609560808b01908b820360008d0152610c14565b9089820360208b0152610d27565b908782036040890152610e7e565b940152565b346101d657610749610f3c610f36366004610201565b90613505565b90610f4994929460405190565b94859485610ed9565b805182526101f191906101209060e090610f7160208201516020860152565b610f836040820151604086019061022b565b6060810151151560a0850152610f9e608082015160c0860152565b610fac60a082015183860152565b610fbc60c0820151610100860152565b015191019061038a565b906102518161014093610f52565b90610fe361026e610264845190565b9060005b818110610ff45750505090565b90919261100761029c6001928651610fc6565b929101610fe7565b602080825261022492910190610fd4565b346101d65761074961103c611036366004610201565b90612bae565b6040519182918261100f565b600411156101d657565b905035906101f182611048565b909182601f830112156101d6578135916001600160401b0383116101d65760200192602083028401116101d657565b9060a0828203126101d6576110a381836101e4565b926110b18260208501611052565b926040810135916001600160401b0383116101d6576110d58461022494840161105f565b9390946110e581606086016101e4565b936080016101e4565b346101d65761110d61110136600461108e565b949390939291926153ce565b604051005b9190610100838203126101d65761112981846101e4565b9260208101356001600160401b0381116101d6578261114991830161105f565b92909360408301356001600160401b0381116101d6578261116b91850161105f565b92909360608101356001600160401b0381116101d6578261118d91830161105f565b92909360808301356001600160401b0381116101d657826111af91850161105f565b92909360a08101356001600160401b0381116101d657826111d191830161105f565b92909360c08301356001600160401b0381116101d6576111f68361022492860161105f565b93909460e0016107ef565b346101d65761110d611214366004611112565b9c9b909b9a919a999299989398979497969596614d3f565b346101d6576107496108cb61124236600461084d565b61552c565b8015156101dd565b905035906101f182611247565b909160e0828403126101d65761022461127584846101e4565b9361128381602086016101f3565b9360c00161124f565b90815261016081019796959094909390929091602086016112ac9161022b565b608085016112b99161022b565b60e08401526101008301526101208201526101400152565b346101d6576107496112ed6112e736600461125c565b91615609565b936112fd97959793919360405190565b9788978861128c565b909182601f830112156101d6578135916001600160401b0383116101d6576020019260a083028401116101d657565b916040838303126101d65782356001600160401b0381116101d65761135f83610224928601611306565b9390946020016101e4565b346101d65761110d61137d366004611335565b916121ca565b346101d65761074961095f61139936600461074d565b614b3e565b610224916008021c6001600160a01b031690565b90610224915461139e565b6102246000600c6113b2565b610224906107d4906001600160a01b031682565b610224906113c9565b610224906113dd565b610227906113e6565b6020810192916101f191906113ef565b346101d6576114183660046108d7565b6107496114236113bd565b604051918291826113f8565b346101d65761143f3660046108d7565b6107497fa49807205ce4d355092ef5a8a18f56e8913cf4a201fbe287825b095693c2177561095f565b916040838303126101d65782356001600160401b0381116101d65761135f8361022492860161105f565b346101d65761110d6114a5366004611468565b91611f97565b909160e0828403126101d6576102246114c484846101e4565b936114d281602086016101e4565b936040016101f3565b906114e76102f2835190565b90816114f96020830284019460200190565b926000915b83831061150d57505050505090565b9091929394602061152961033e838560019503875289516102dc565b93019301919392906114fe565b6020808252610224929101906114db565b346101d65761074961156361155d3660046114ab565b91614e90565b60405191829182611536565b60005b8381106115825750506000910152565b8181015183820152602001611572565b6115b36115bc602093610251936115a7815190565b80835293849260200190565b9586910161156f565b601f01601f191690565b9061022491611592565b906115dc6102f2835190565b90816115ee6020830284019460200190565b926000915b83831061160257505050505090565b9091929394602061161e61033e838560019503875289516115c6565b93019301919392906115f3565b6020808252610224929101906115d0565b346101d65761074961165761165236600461074d565b615fa1565b6040519182918261162b565b346101d6576116733660046108d7565b6107497f8b73c3c69bb8fe3d512ecc4cf759cc79239f7b179b0ffacaa9a75d522b39400f61095f565b634e487b7160e01b600052604160045260246000fd5b90601f01601f191681019081106001600160401b038211176116d357604052565b61169c565b906101f16116e560405190565b92836116b2565b6001600160401b0381116116d357602090601f01601f19160190565b9061171a611715836116ec565b6116d8565b918252565b6117296021611708565b7f5369676e496e286164647265737320757365722c75696e743235362074696d656020820152602960f81b604082015290565b61022461171f565b61022461175c565b610224611764565b602080825261022492910190611592565b346101d6576117953660046108d7565b6107496117a061176c565b60405191829182611774565b602080825261022492910190610e7e565b346101d6576107496117d96117d3366004610201565b90613f4e565b604051918291826117ac565b906102518160209361038a565b9061180161026e610264845190565b9060005b8181106118125750505090565b90919261182561029c60019286516117e5565b929101611805565b9061183c61026e610264845190565b9060005b81811061184d5750505090565b90919261186561029c60019286511515815260200190565b929101611840565b6040808252610224939192611884918401906117f2565b91602081840391015261182d565b346101d6576118a23660046108d7565b6118aa61540e565b906107496118b760405190565b9283928361186d565b61110d6118ce36600461074d565b615e23565b90816101e09103126101d65790565b906020828203126101d65781356001600160401b0381116101d65761022492016118d3565b346101d65761110d61191a3660046118e2565b612969565b61192a610224611764565b61193c611935825190565b9160200190565b2090565b61022461191f565b346101d6576119583660046108d7565b61074961095f611940565b92610224969461199e6119a5926119946119ad9699959961198a6101408a019b60008b0152565b602089019061022b565b608087019061022b565b60e0850152565b610100830152565b610120818403910152610d27565b346101d6576107496119d76119d1366004610201565b906142a8565b926119e796949692919260405190565b96879687611963565b909594926101f194611a22611a2992611a1b608096611a1460a088019c6000890152565b6020870152565b6040850152565b6060830152565b01906001600160a01b03169052565b35610224816101db565b6102246102246102249290565b634e487b7160e01b600052601160045260246000fd5b91908203918211611a7257565b611a4f565b35610224816107e0565b9081526001600160a01b0390911660208201526060810192916101f19160400152565b0152565b6020809392611ac561171a6102519461190160f01b815260020190565b01918252565b6108eb6102246102249290565b611aa46101f194611b01606094989795611af7608086019a6000870152565b60ff166020850152565b6040830152565b6040513d6000823e3d90fd5b90611ba47f8b73c3c69bb8fe3d512ecc4cf759cc79239f7b179b0ffacaa9a75d522b39400f7f1a7269e4dc8453fd670842087ab5e2c2fc4976430b8d8d6dcb3d1f00df9e8ab990611b987fc89efdaa54c0f20c7adf612882df0950f5a951637e0307cdcb4c672f298b8bc69446611b8a60405190565b9687956020870195866119f0565b908103825203826116b2565b611baf611935825190565b20906020810191611bbf83611a38565b611bdb6103fe61022442611bd562015180611a42565b90611a65565b10611cdb576020916040611b98611c4c600094611bf661191f565b611c2987870199611c0f611c098c611a77565b91611a38565b92611b98611c1c60405190565b9485938d85019384611a81565b611c34611935825190565b2090611c3f60405190565b9384928984019283611aa8565b611c57611935825190565b20910190611c9c611c72611c6d60408501611a38565b611acb565b92611c8986611c82878401611a38565b9201611a38565b90611c9360405190565b94859485611ad8565b838052039060015afa15611cd657611cd2611cc56107d4611cbf60005160001b90565b93611a77565b916001600160a01b031690565b1490565b611b08565b505050600090565b60ff81166101dd565b905035906101f182611ce3565b50610224906020810190611cec565b5061022490602081019061124f565b506102249060208101906101e4565b9035601e1936839003018112156101d65701602081359101916001600160401b0382116101d65760208202360383136101d657565b9037565b8183529091602001916001600160fb1b0381116101d657829160206102519202938491611d5b565b818352602090920191906000825b828210611da3575050505090565b90919293611dcc611dc5600192611dba8886611cf9565b60ff16815260200190565b9560200190565b93920190611d95565b61022491611ed8611ecc611eaf611e946101408501611dfe611df78880611cf9565b60ff168752565b611e17611e0e6020890189611d08565b15156020880152565b611e2e611e276040890189611d17565b6040880152565b611e48611e3e6060890189611cf9565b60ff166060880152565b611e62611e586080890189611cf9565b60ff166080880152565b611e79611e7260a0890189611d17565b60a0880152565b611e8660c0880188611d26565b9087830360c0890152611d5f565b611ea160e0870187611d26565b9086830360e0880152611d5f565b611ebd610100860186611d26565b90858303610100870152611d87565b92610120810190611d26565b91610120818503910152611d87565b9061022491611dd5565b903561013e1936839003018112156101d6570190565b818352916020019081611f1d6020830284019490565b92836000925b848410611f335750505050505090565b9091929394956020611f5f611f588385600195038852611f538b88611ef1565b611ee7565b9860200190565b940194019294939190611f23565b611a29611f8f6040936101f19698979560608501918583036000870152611f07565b966020830152565b600491611fc9611fd8926101f19563cd6ea11360e01b933392611fb960405190565b9788966020880190815201611f6d565b602082018103825203826116b2565b612030565b610224906107d4565b6102249054611fdd565b905051906101f1826107e0565b906020828203126101d65761022491611ff0565b3d1561202b576120203d611708565b903d6000602084013e565b606090565b612060906020612048612043600c611fe6565b6113e6565b632f03372c9061205760405190565b94859260e01b90565b825260049082905afa918215611cd65761209792600092839283926120af575b50602081019051915af4612092612011565b501590565b61209d57565b6040516318cecad560e01b8152600490fd5b6120d191925060203d81116120d8575b6120c981836116b2565b810190611ffd565b9038612080565b503d6120bf565b90608061214e6101f1936120fd6120f96000830183611d17565b8552565b61211461210d6020830183611d17565b6020860152565b61212b6121246040830183611d17565b6040860152565b61214561213b6060830183611cf9565b60ff166060860152565b82810190611cf9565b60ff16910152565b906102518160a0936120df565b818352602090920191906000825b82821061217f575050505090565b9091929361219f6121986001926121938890565b612156565b9560a00190565b93920190612171565b611a29611f8f6040936101f19698979560608501918583036000870152612163565b600491611fc9611fd8926101f19563076340a960e41b9333926121ec60405190565b97889660208801908152016121a8565b9061220690611a42565b600052602052604060002090565b6102249060081c6108eb565b6102249054612214565b610224906108eb565b610224905461222a565b6001600160401b0381116116d35760208091020190565b9061171a6117158361223d565b6102249081565b6102249054612261565b61022460606116d8565b906101f16122bc600161228d612272565b9461229e61229a82612268565b8752565b6122b66122ac838301612233565b60ff166020880152565b01612220565b60ff166040840152565b61022460406116d8565b906101f16122f460016122e16122c6565b946122ee61229a82612268565b0161227c565b6020840152565b610224906122d0565b9061230d825490565b61231681612254565b9261232a6020850191600052602060002090565b6000915b83831061233b5750505050565b6003602060019261234b856122fb565b81520192019201919061232e565b61022490612304565b906060916001612376816122b684826121fc565b1515811515146123f0576123948161238e84826121fc565b01612233565b6123a76123a16000610377565b91610377565b1480156123cf575b6123b7575050565b6102249293506005916123c9916121fc565b01612359565b506123de8161238e84826121fc565b6123ea6123a183610377565b146123af565b60405163835b998b60e01b8152600490fd5b61240e6103fe60039390565b806000925b848410612421575050505050565b61244561243e6001926124348686611d08565b1515815260200190565b9360200190565b93019291612413565b906102249060c061214e61248b60e0840161247061246c8880611d17565b8652565b61247d6020880188611d26565b908683036020880152611d5f565b946124a561249c6040830183611d08565b15156040860152565b612145606082016060860190612402565b906102249161244e565b903560de1936839003018112156101d6570190565b8183529160200190816124eb6020830284019490565b92836000925b8484106125015750505050505090565b9091929394956020612526611f5883856001950388526125218b886124c0565b6124b6565b9401940192949391906124f1565b600511156101d657565b905035906101f182612534565b5061022490602081019061253e565b506102249060208101906107ef565b818352602090920191906000825b828210612585575050505090565b909192936125ad611dc560019261259c888661255a565b6001600160a01b0316815260200190565b93920190612577565b600211156101d657565b905035906101f1826125b6565b506102249060208101906125c0565b600311156101d657565b905035906101f1826125dc565b506102249060208101906125e6565b90610224906101806127616126936126476101a0850161262c612625898061254b565b8790610a44565b6126396020890189611d26565b908783036020890152612569565b61265e6126576040890189611d17565b6040870152565b61267861266e60608901896125cd565b6060870190610ab1565b6126856080880188611d26565b908683036080880152611d5f565b946126ae6126a460a08301836125f3565b60a0860190610582565b6126c56126be60c0830183611d17565b60c0860152565b6126df6126d560e08301836125f3565b60e0860190610582565b6127016126f061010083018361255a565b6001600160a01b0316610100860152565b61271d6127126101208301836125f3565b610120860190610582565b61273f61272e61014083018361255a565b6001600160a01b0316610140860152565b612758612750610160830183611d17565b610160860152565b82810190611d08565b1515910152565b9061022491612602565b903561019e1936839003018112156101d6570190565b81835291602001908161279e6020830284019490565b92836000925b8484106127b45750505050505090565b90919293949560206127d9611f5883856001950388526127d48b88612772565b612768565b9401940192949391906127a4565b6102249161294961293d6101e083016128036120f98680611d17565b61281361210d6020870187611d17565b61282d6128236040870187611cf9565b60ff166040860152565b61283d61213b6060870187611cf9565b61285461284d6080870187611d17565b6080860152565b61286b61286460a0870187611d17565b60a0860152565b61288561287b60c0870187611cf9565b60ff1660c0860152565b61289f61289560e0870187611cf9565b60ff1660e0860152565b6128ba6128b0610100870187611d08565b1515610100860152565b6128d36128cb610120870187611d17565b610120860152565b6128ec6128e4610140870187611d17565b610140860152565b6129076128fd610160870187611d08565b1515610160860152565b612920612918610180870187611d17565b610180860152565b61292e6101a0860186611d26565b908583036101a08701526124d5565b926101c0810190611d26565b916101c0818503910152612788565b6020808252610224929101906127e7565b6004611fd86101f192611fc96372926a1760e11b9161298760405190565b9485936020850190815201612958565b156101d657565b6101dd81611fdd565b905051906101f18261299e565b906020828203126101d657610224916129a7565b905051906101f182611247565b906020828203126101d657610224916129c8565b6001600160a01b0390911681526040810192916101f19160200152565b90612a21612a15610264845490565b92600052602060002090565b9060005b818110612a325750505090565b909192612a56612a4f600192612a4787612268565b815260200190565b9460010190565b929101612a25565b9061022491612a06565b906101f1612a8292612a7960405190565b93848092612a5e565b03836116b2565b61022490612a68565b6102246101006116d8565b612aa5612272565b906000825260208080840160005b8152016000905250565b905250565b610224612a9d565b612ad2612a92565b906000825260208080808080808089016000815201612aef612ac2565b8152016000815201600081520160008152016000612ab3565b610224612aca565b60005b828110612b1f57505050565b602090612b2a612b08565b8184015201612b13565b906101f1612b4a612b4484612254565b9361223d565b601f190160208401612b10565b6000198114611a725760010190565b634e487b7160e01b600052603260045260246000fd5b90612b85825190565b811015612b96576020809102010190565b612b66565b6102249061227c565b9061022790610377565b90612bd59060605b506020612bc6612043600c611fe6565b63685cc9cd9061205760405190565b825260049082905afa8015611cd657612bfe612c0391612c2194600091612ec3575b5083611b14565b612997565b6020612c12612043600c611fe6565b63a3974b219061205760405190565b825260049082905afa908115611cd657612c476020928594600091612e96575b506113e6565b612c75612c5b600063560693329401611a77565b92612c80612c6860405190565b9687958694859460e01b90565b8452600484016129e9565b03915afa8015611cd657612c9a91600091612e6a57501590565b612e5857612cac612cb19160046121fc565b612a89565b612cc1612cbc825190565b612b34565b90600090612cce82611a42565b612cd9610224835190565b811015612e5257600383612ced8385612b7c565b51612cf890836121fc565b01612d0290612268565b90612d0d8385612b7c565b51612d1890826121fc565b600101612d2490612268565b90612d2f8486612b7c565b51612d3a90826121fc565b600201612d478587612b7c565b51612d5290836121fc565b600601612d5e90612233565b612d688688612b7c565b51612d7390846121fc565b600b01612d7f90612268565b90612d8a8789612b7c565b51612d9590856121fc565b600c01612da190612268565b92612dac888a612b7c565b51612db790866121fc565b600d01612dc390612268565b94612dce898b612b7c565b51612dd8916121fc565b600e01612de490612220565b95612ded612a92565b97612df8908c8a0152565b6020880152612e0690612b9b565b604087015215156060860152608085015260a084015260c0830152612e2e9060e08301612ba4565b612e388286612b7c565b52612e438185612b7c565b50612e4d90612b57565b612cce565b50505090565b6040516365f4c25160e01b8152600490fd5b612e8b915060203d8111612e8f575b612e8381836116b2565b8101906129d5565b1590565b503d612e79565b612eb69150843d8111612ebc575b612eae81836116b2565b8101906129b4565b38612c41565b503d612ea4565b612edb915060203d81116120d8576120c981836116b2565b38612bf7565b6102246102006116d8565b612ef4612ee1565b90600082526020820160008152602001612f0c612ac2565b8152602001612f19612ac2565b8152602001600081526020016000815260200160608152602001600081526020016000815260200160008152602001600081526020016000815260200160008152602001600081526020016060815260200160609052565b610224612eec565b6102249060101c6108eb565b60206001612fde612fa4612fa08396612f9c600390565b5090565b9490565b612fbc8484816000945498612fc281612fbc8c61222a565b15159052565b01930192612fd381612fbc8a612214565b019384920195612f79565b50505050565b9061025181606093612f85565b906101f1612a829261300260405190565b93848092612fe4565b61022460a06116d8565b906101f1613077600461302661300b565b9461303361229a82612268565b61304961304260018301612a68565b6020880152565b61306161305860028301612233565b15156040880152565b61238e61307060038301612ff1565b6060880152565b60ff166080840152565b61022490613015565b90613093825490565b61309c81612254565b926130b06020850191600052602060002090565b6000915b8383106130c15750505050565b600560206001926130d185613081565b8152019201920191906130b4565b9061022790610a31565b906130f8612a15610264845490565b9060005b8181106131095750505090565b90919261311e612a4f60019261259c87611fe6565b9291016130fc565b90610224916130e9565b906101f1612a829261314160405190565b93848092613126565b9061022790610a9e565b906102279061056f565b6102249060081c6107d4565b610224905461315e565b6102249060a81c6108eb565b6102249054613174565b6102246101a06116d8565b906101f16132bb600a6131a661318a565b946131b96131b382612233565b876130df565b6131c861304260018301613130565b6131d7611e2760028301612268565b6131ef6131e660038301612233565b6060880161314a565b6132056131fe60048301612a68565b6080880152565b61321d61321460058301612233565b60a08801613154565b61323361322c60068301612268565b60c0880152565b61324b61324260078301612233565b60e08801613154565b61326b61325a6007830161316a565b6001600160a01b0316610100880152565b61328461327a60078301613180565b6101208801613154565b6132a461329360088301611fe6565b6001600160a01b0316610140880152565b61238e6132b360098301612268565b610160880152565b1515610180840152565b61022490613195565b906132d7825490565b6132e081612254565b926132f46020850191600052602060002090565b6000915b8383106133055750505050565b600b6020600192613315856132c5565b8152019201920191906132f8565b906101f161345d6010613334612ee1565b9461334161229a82612268565b61335061304260018301612268565b61335f611e276002830161227c565b61336e6130706004830161227c565b61338661337d60068301612233565b15156080880152565b613395611e7260078301612268565b6133a461322c6008830161308a565b6133ba6133b360098301612268565b60e0880152565b6133d16133c9600a8301612268565b610100880152565b6133e86133e0600b8301612268565b610120880152565b6133ff6133f7600c8301612268565b610140880152565b61340e6132b3600d8301612268565b61342761341d600e8301612233565b1515610180880152565b613440613436600e8301612220565b6101a08801612ba4565b61345761344f600f8301612a68565b6101c0880152565b016132ce565b6101e0840152565b61022490613323565b9092919261347e611715826116ec565b938185526020850190828401116101d6576101f19261156f565b9080601f830112156101d65781516102249260200161346e565b906020828203126101d65781516001600160401b0381116101d6576102249201613498565b61022790611a42565b929160206134fd6101f19360408701908782036000890152611592565b9401906134d7565b919061350f612f71565b5061353a6020613522612043600c611fe6565b63685cc9cd9061353160405190565b93849260e01b90565b825260049082905afa908115611cd65761356091612bfe91600091612ec3575083611b14565b6135816020613572612043600c611fe6565b63a3974b219061353160405190565b825260049082905afa8015611cd6576135a1916000916136fb57506113e6565b9060206135b5600063560693329301611a77565b600393612c756135d060096135ca8a896121fc565b01612268565b946135dd612c6860405190565b03915afa8015611cd6576135f791600091612e6a57501590565b612e58576136088361360d926121fc565b613465565b61361f61361984613870565b93613b95565b916136416020613632612043600c611fe6565b635e70f3069061353160405190565b825260049082905afa8015611cd657613661916000916136fb57506113e6565b8251637f145dde916000919061368d61367960405190565b6020818101949094529283526040836116b2565b604051651cd958dc995d60d21b946136a8916136b390612c68565b8452600484016134e0565b03915afa908115611cd6576000916136da575b506136d2611935825190565b209193929190565b6136f5913d8091833e6136ed81836116b2565b8101906134b2565b386136c6565b612eb6915060203d8111612ebc57612eae81836116b2565b61022460e06116d8565b6001600160401b0381116116d35760200290565b6117156102249161371d565b369037565b906101f161375861375284613731565b9361371d565b8361373d565b6102246003613742565b613770613713565b906000825260208080808080808801600081520161378c612ac2565b81520160608152016000815201612ab361375e565b610224613768565b60005b8281106137b857505050565b6020906137c36137a1565b81840152016137ac565b906101f16137dd612b4484612254565b601f1901602084016137a9565b6137f26122c6565b90600082526020808301612abd612ac2565b6102246137ea565b60005b82811061381b57505050565b602090613826613804565b818401520161380f565b906101f1613840612b4484612254565b601f19016020840161380c565b8054821015612b9657613867600391600052602060002090565b91020190600090565b9060c0613882613608600394856121fc565b0161389461388f82515190565b6137cd565b926000916138a183611a42565b6138ad61022483515190565b811015612fde5783818351906138c291612b7c565b5101516001806138d283826121fc565b016138dc90612233565b856138e784846121fc565b016138f284846121fc565b6005018587519061390291612b7c565b516040015115158688519061391691612b7c565b5160600151918789519061392991612b7c565b516080015160ff169361393a613713565b95613945898e890152565b6139529060208801612ba4565b61395b90612b9b565b604086015261396990612359565b60608501521515608084015260a083015260ff1660c082015261398c848a612b7c565b526139978389612b7c565b50806139a383826121fc565b016139ad90612233565b6139b687610377565b906139c090610377565b148015613ab3575b6139dd575b50506139d890612b57565b6138a1565b6139fc6139f760206139f0868851612b7c565b5101515190565b613830565b9181613a0788611a42565b905b613a2c575b505050906139d8916060613a22838a612b7c565b51015290386139cd565b85613a4061022460206139f0898551612b7c565b821015613aad5781613a8c613a86613aa793613a80613a7c89976020613a748e6005613a6c8e8e6121fc565b019651612b7c565b510151612b7c565b5190565b9061384d565b506122fb565b613a968288612b7c565b52613aa18187612b7c565b50612b57565b90613a09565b50613a0e565b50613ac28161238e84826121fc565b613ace6123a183610377565b146139c8565b6102246101c06116d8565b60209081808080808080808080808080613af7613ad4565b9e8f600081520160608152016000815201613b10612ac2565b81520160008152016060815201600081520160008152016000612aef565b610224613adf565b60005b828110613b4557505050565b602090613b50613b2e565b8184015201613b39565b906101f1613b6a612b4484612254565b601f190160208401613b36565b6102249051610a31565b6102249051610a9e565b610224905161056f565b906101e0613ba8613608600394856121fc565b01613bba613bb582515190565b613b5a565b92600091613bc783611a42565b613bd361022483515190565b811015612fde578381835190613be891612b7c565b5101613bf390613b77565b81835190613c0091612b7c565b51602001519085848480825190613c1691612b7c565b5160400151946001958983855190613c2d91612b7c565b5160400151613c3c90896121fc565b0183855190613c4a91612b7c565b51606001613c5790613b81565b84865190613c6491612b7c565b5160400151613c73908a6121fc565b60050185875190613c8391612b7c565b5160a001613c9090613b8b565b9086885190613c9e91612b7c565b5160c001519287895190613cb191612b7c565b5160e001613cbe90613b8b565b94888a5190613ccc91612b7c565b5161010001516001600160a01b031696898b5190613ce991612b7c565b5161012001613cf790613b8b565b988a8c5190613d0591612b7c565b5161014001516001600160a01b03169a808d5190613d2291612b7c565b5161016001519c5190613d3491612b7c565b51610180015115159c613d45613ad4565b9e8f91820190613d54916130df565b6020015260408d0152613d6690612b9b565b60608c0152613d789060808c0161314a565b613d8190612359565b60a08a0152613d939060c08a01613154565b60e0880152613da6906101008801613154565b6001600160a01b0316610120860152613dc3906101408601613154565b6001600160a01b031661016084015261018083015215156101a0820152613dea8389612b7c565b52613df58288612b7c565b51508482845190613e0591612b7c565b5101613e1090613b77565b613e1982610a31565b90613e2390610a31565b14613e38575b50613e3390612b57565b613bc7565b613e5b8161238e613e556040613e4f878951612b7c565b51015190565b826121fc565b613e676123a187610377565b148015613f24575b15613e2957613e876139f760806139f0858751612b7c565b9080613e9287611a42565b905b613eb5575b505090613e339160a0613eac838a612b7c565b51015290613e29565b613ec861022460806139f0878951612b7c565b811015613f1f57613f1981613f04613a8688613a80613a7c88976080613a748d6005613a6c8d613efe6040613e4f868d51612b7c565b906121fc565b613f0e8287612b7c565b52613aa18186612b7c565b90613e94565b613e99565b50613f3c8161238e613e556040613e4f878951612b7c565b613f486123a183610377565b14613e6f565b90613f5a906060612bb6565b825260049082905afa8015611cd6576000612e8b92613f8a612bfe613f9094613f96978591612ec3575083611b14565b01611a77565b83614446565b614275576101e0613fac613608600393846121fc565b0190613fba613bb583515190565b906000613fc681611a42565b93845b613fd561022483515190565b81101561426c57613ff283613feb838551612b7c565b5101613b77565b614005613fff6002610a31565b91610a31565b14801561424a575b614020575b61401b90612b57565b613fc9565b94828683519061402f91612b7c565b510161403a90613b77565b8383888082519061404a91612b7c565b51602001518183519061405c91612b7c565b516040015160018a8486519061407191612b7c565b516040015161408090836121fc565b01908486519061408f91612b7c565b5160600161409c90613b81565b90858751906140aa91612b7c565b51604001516140b8916121fc565b600501858751906140c891612b7c565b5160a0016140d590613b8b565b90868851906140e391612b7c565b5160c0015192878951906140f691612b7c565b5160e00161410390613b8b565b94888a519061411191612b7c565b5161010001516001600160a01b031696898b519061412e91612b7c565b516101200161413c90613b8b565b988a8c519061414a91612b7c565b5161014001516001600160a01b03169a808d519061416791612b7c565b5161016001519c519061417991612b7c565b51610180015115159c61418a613ad4565b9e8f91820190614199916130df565b6020015260408d01526141ab90612b9b565b60608c01526141bd9060808c0161314a565b6141c690612359565b60a08a01526141d89060c08a01613154565b60e08801526141eb906101008801613154565b6001600160a01b0316610120860152614208906101408601613154565b6001600160a01b031661016084015261018083015215156101a082015261422f8287612b7c565b5261423a8186612b7c565b5061424490612b57565b94614012565b5061425a83613feb838551612b7c565b614266613fff86610a31565b1461400d565b50505050905090565b604051637e0819f760e01b8152600490fd5b905051906101f1826101db565b906020828203126101d65761022491614287565b906142ca9060006142b7612ac2565b506142c0612ac2565b5050612bb6606090565b825260049082905afa8015611cd6576000612e8b92613f8a612bfe613f90946142fa978591612ec3575083611b14565b6142755761430c6136088260036121fc565b61435961431a602083015190565b60408301519460608401519461433160a086015190565b946020614341612043600c611fe6565b63a3974b219061435060405190565b97889260e01b90565b825260049082905afa908115611cd6576143806020926143b897600091612e9657506113e6565b6143aa61439360e063271204a294015190565b9261439d60405190565b9889948593849360e01b90565b835260048301526024820190565b03915afa938415611cd6576000946143de575b506143d590613870565b91959493929190565b6143d59194506144049060203d811161440b575b6143fc81836116b2565b810190614294565b93906143cb565b503d6143f2565b8054821015612b9657613867600191600052602060002090565b8054821015612b9657613867600b91600052602060002090565b6144586020613572612043600c611fe6565b825260049082905afa8015611cd65761447e60209161448d93600091614b2757506113e6565b63b47c7d5d9061353160405190565b82526001600160a01b038616600483015260249082905afa908115611cd657600091614b09575b5060036144c660006135ca85846121fc565b926000936144d66103fe86611a42565b14614b01576144ea600e6122b683856121fc565b6144f66123a186610377565b03614b015761450484611a42565b600861451a61022461451685846121fc565b5490565b82101561455c57600c6135ca61454892613efe6145428661453d896002956121fc565b614412565b9061092d565b841461426c5761455790612b57565b614504565b50509091614574601061456f84866121fc565b015490565b6145806103fe86611a42565b14614af75761458e84611a42565b6145a0610224601061456f86886121fc565b81101561472b576145c8856145c18360106145bb888a6121fc565b0161442c565b5001612233565b6145d4613fff87610a31565b14614698575b6145ee856145c18360106145bb888a6121fc565b6145fb613fff6004610a31565b1461460f575b61460a90612b57565b61458e565b929394614620612cac8360056121fc565b9561462a81611a42565b614635610224895190565b81101561468d578661466d6103fe61022460096146668b60108f8d614660613a7c8c6145bb94612b7c565b996121fc565b5001612268565b146146805761467b90612b57565b61462a565b5050505050505050600190565b509095509392614601565b929094936146a581611a42565b6146c361022460016146bd8860106145bb8a8a6121fc565b50015490565b811015614721576146f06146ea8260016146e38960106145bb8b8b6121fc565b5001614412565b906113b2565b6147026001600160a01b038816611cc5565b146147155761471090612b57565b6146a5565b50505050505050600190565b50939490926145da565b50600194508493928492919061474085611a42565b965b614751575b5050505050905090565b614763610224601061456f86856121fc565b871015614af2578561477f866145c18a60106145bb89886121fc565b61478b613fff89610a31565b146147c0575b846147b8575b5083156147ae576147a88697612b57565b96614742565b5050505091505090565b935038614797565b50846147d0612cac8460056121fc565b87806147db89611a42565b905b6147ea575b505050614791565b838b86896147f9610224885190565b851015614ae9576103fe61022486614666613a7c9660106145bb61482d976146608f6135ca613e5560029e8f9a8b94612b7c565b14614844575b505061483e90612b57565b816147dd565b868d8a8d61486e614868614862866145c18760106145bb89856121fc565b92610a9e565b91610a9e565b14614a07575b829160106145bb6145c193614888966121fc565b61489461486886610a9e565b146148ab575b506148a6578338614833565b6147e2565b9050828c6148b88c611a42565b915b6148d4575b50505083806148ce573861489a565b506147e2565b61022460046146bd6148f59360106145bb8f9c9f8e9f9b98999a9c9e6121fc565b8210156149f9576149058b611a42565b905b61493d575b508a908861492d5761491d90612b57565b8c829498979593929996996148ba565b819397969492508c9895986148bf565b6149676102246006879e9f9d9c9b9a9694959897614961613a7c61456f928d612b7c565b8a6121fc565b8110156149e857866149b46103fe6102248f8f60066149ae8d613efe613a7c8f968f8f614542908f996146e360049160106145bb6145429f6149a8986121fc565b9b612b7c565b01614412565b146149d4576149c38d91612b57565b909b94959291939798999a9c614907565b50919550959697999891928980979061490c565b9b9a9394919092969798999b61490c565b92969593918c9895986148bf565b5091925050838b614a1781611a42565b915b614a2a575b5050908686928a614874565b614a54610224600661456f614a4e9b9e9b613a7c8c9e9f9b999a809d999899612b7c565b896121fc565b831015614ad757614a9e6103fe6102246145428660068f8f978f8f614a92614542614a989460048f6146e39060106145bb613a7c996149ae9c6121fc565b9a612b7c565b8c6121fc565b14614abf5750614aad90612b57565b8c908b839599989694939a979a614a19565b9598509296959094909385935091906148888b614a1e565b81925099969998979593929498614a1e565b505050506147e2565b614747565b5050505050600190565b505050905090565b614b21915060203d811161440b576143fc81836116b2565b386144b4565b612eb69150833d8111612ebc57612eae81836116b2565b614b5f6020614b50612043600c611fe6565b63999166769061353160405190565b825260049082905afa8015611cd65761022492614b946135ca92600994600091614b9b575b50614b8e33611cc5565b14612997565b60036121fc565b614bb3915060203d81116120d8576120c981836116b2565b38614b84565b818352602090920191906000825b828210614bd5575050505090565b90919293614bec611dc5600192611dba8886611cf9565b93920190614bc7565b906102249291611d5f565b818352916020019081614c166020830284019490565b92836000925b848410614c2c5750505050505090565b9091929394956020614c52611f588385600195038852614c4c8b88611d26565b90614bf5565b940194019294939190614c1c565b818352602090920191906000825b828210614c7c575050505090565b90919293614c98611dc5600192614c9388866125f3565b61058b565b93920190614c6e565b9e9d9b98918f9396614d21986101f19f9a93614d139760e09f99614d2f9f9b89614ce991614d0598614cdc614cf79760006101008601950152565b8c830360208e0152611d5f565b9189830360408b0152611d5f565b918683036060880152614bb9565b926080818503910152614bb9565b918b830360a08d0152614c00565b9188830360c08a0152614c60565b9401906001600160a01b03169052565b9a9794919b9895929c999693909c614d5f6020614b50612043600c611fe6565b825260049082905afa8015611cd657614d8791600091614dd2575b506001600160a01b031690565b3314614d9290612997565b604051633846ac0d60e01b9d909e8f9e8f6020019081526004019d614db69e614ca1565b602082018103825203614dc990826116b2565b6101f190612030565b614dea915060203d81116120d8576120c981836116b2565b38614d7a565b8054821015612b9657613867600591600052602060002090565b906101f1614e1a612b4484612254565b601f19016020840161373d565b614e2f612272565b90600082526020808084016060815201612abd612ac2565b610224614e27565b60005b828110614e5e57505050565b602090614e69614e47565b8184015201614e52565b906101f1614e83612b4484612254565b601f190160208401614e4f565b9291606090614ea76020613522612043600c611fe6565b825260049082905afa908115611cd657614ecd91612bfe91600091612ec3575083611b14565b614edf6020613572612043600c611fe6565b825260049082905afa908115611cd657602091614f0391600091614b2757506113e6565b635606933292614f1290611a77565b90612c75614f2660096135ca8b60036121fc565b94614f33612c6860405190565b03915afa8015611cd657614f4d91600091612e6a57501590565b612e5857614f766000614666614f6282611a42565b946008614f708960036121fc565b01614df0565b90825b6008614f8b61022461451689846121fc565b821015614fd657614fac906135ca613e556145428561453d8c6002966121fc565b8314614fc1575b614fbc90612b57565b614f79565b92614fce614fbc91612b57565b939050614fb3565b50509091614fe390614e0a565b614fed6000611a42565b9283805b60086150036102246145168b846121fc565b82101561507457889061502560026135ca613e556145428761453d88886121fc565b851461503c575b505061503790612b57565b614ff1565b966150656150586145428561453d61506a96615037989d6121fc565b6150628389612b7c565b52565b612b57565b959050873861502c565b5050959493508294865b615091610224600861456f8560036121fc565b811015615289576150ae6000614666836008614f708760036121fc565b83146150c2576150bd90612b57565b61507e565b8192939495965061238e6150ed60016150e681946008614f706150f49860036121fc565b5001612a89565b94826121fc565b93615105615100855190565b614e73565b965b615112610224865190565b811015615281576151e990615139600861238e615132613a7c858b612b7c565b60026121fc565b61514c615146600161056f565b9161056f565b036152345761515b6000611a42565b8582886151686000610377565b6151718c610377565b14801561521a575b156151ee576151cf60036151bd615132613a7c866151b76151d4996151b260066151ac615132613a7c611b019e8e612b7c565b01612a89565b61529e565b96612b7c565b019161210d6151ca612272565b968752565b612b9b565b6151de828b612b7c565b52613aa1818a612b7c565b615107565b6151d492506151cf60036151bd615132613a7c866151b760066151ac615132613a7c611b019c8c612b7c565b506152256001610377565b61522e8c610377565b14615179565b615249600c6135ca615132613a7c858b612b7c565b61527061525560405190565b602080820193845290928391611b9890896102518285611ac5565b61527b611935825190565b2061515b565b505050505050565b5090600161238e6150f4929794959697613e55565b9091906152b16152ac825190565b614e0a565b906000906152be82611a42565b935b6152cb610224835190565b851015615345576152df613a7c8684612b7c565b926152e981611a42565b6152f4610224895190565b81101561533857615308613a7c828a612b7c565b851461531c5761531790612b57565b6152e9565b8691945061506590615062615332949888612b7c565b936152c0565b5092509361533290612b57565b94505050905090565b818352602090920191906000825b82821061536a575050505090565b90919293615381611dc560019261259c888661255a565b9392019061535c565b91611aa4916101f1969897956080956153b96153c6946153af60a089019560008a0152565b602088019061038a565b858303604087015261534e565b966060830152565b9194600494611fd8946101f197611fc99463568a060b60e01b966153f160405190565b998a9860208a019081520161538a565b91908201809211611a7257565b615418600e612268565b9061542b6152ac606493611bd585611a42565b6154446152ac61543b600e612268565b611bd586611a42565b9261544f6000611a42565b61545a610224845190565b8110156154cc576154c7906150656154b6600661238e60036154a4615495600e6122b661548f6154898d611a42565b8b615401565b856121fc565b61549f888c612b7c565b612ba4565b613efe6154b089611a42565b87615401565b6154c08389612b7c565b9015159052565b61544f565b50509190565b90612206906113e6565b6154ee6020613522612043600c611fe6565b825260049082905afa918215611cd65761551a612bfe61022494612cac94600091612ec3575083611b14565b600a9061552690611a77565b906154d2565b615537906060612bb6565b825260049082905afa8015611cd657612bfe612c039161555f94600091612ec3575083611b14565b825260049082905afa908115611cd6576155866020926155c894600091612e9657506113e6565b6155b161559a600063b47c7d5d9401611a77565b926155a460405190565b9586948593849360e01b90565b83526001600160a01b031660048301526024820190565b03915afa908115611cd65761022491612cac916000916155eb575b5060096121fc565b615603915060203d811161440b576143fc81836116b2565b386155e3565b9061565092615616600090565b61561e612ac2565b50615627612ac2565b50506020615638612043600c611fe6565b63685cc9cd9061564760405190565b96879260e01b90565b825260049082905afa8015611cd657612bfe6156799161569796600091615909575b5084611b14565b6020615688612043600c611fe6565b63a3974b219061564760405190565b825260049082905afa8015611cd6576156bd6020916156cf96600091614b2757506113e6565b63b47c7d5d906155b161439386611a77565b03915afa938415611cd6576000946158e9575b506003916156f5600661238e86866121fc565b615805575b5061570a60016135ca85856121fc565b93615720600261571a86866121fc565b01612b9b565b95615730600461571a87876121fc565b9561574060096135ca88886121fc565b95615759600b6135ca83614660600a6135ca838d6121fc565b9360009061576682611a42565b809761577a575b5050505096959493929190565b9998979699959493955b600961579661022461451685846121fc565b8210156157f4576145428261453d856157ae946121fc565b84146157c2576157bd90612b57565b615784565b50506157e99293949596979850600b91613efe6145426135ca9361453d60029460086121fc565b925b3880808061576d565b5050505050909195929394956157eb565b939160009391849561581686611a42565b600a87830161583361022461451661582d84611a77565b856154d2565b8310156158d8578261453d61584e9361552661454294611a77565b85146158625761585d90612b57565b615816565b5050909192939450615875600195611a42565b600961588761022461451688846121fc565b8210156158c9576145428261453d8861589f946121fc565b84146158b3576158ae90612b57565b615875565b5090919293506158c36001612997565b386156fa565b5050909192936158c390612997565b505050509091929361587590611a42565b61590291945060203d811161440b576143fc81836116b2565b92386156e2565b615921915060203d81116120d8576120c981836116b2565b38615672565b60209081808080808080808080808061593e61318a565b9d8e60008152016000815201615952612ac2565b81520161595d612ac2565b815201600081520160008152016060815201606081520160608152016060815201606081520160008152016060905250565b610224615927565b60005b8281106159a657505050565b60608282015260200161599a565b906101f16159c4612b4484612254565b601f190160208401615997565b60005b8281106159e057505050565b6020906159eb612ac2565b81840152016159d4565b906101f1615a05612b4484612254565b601f1901602084016159d1565b615a2f9291615a1f61598f565b506020615638612043600c611fe6565b825260049082905afa8015611cd657612bfe61567991615a5796600091612ec3575083611b14565b825260049082905afa908115611cd657615a7e602092615aa996600091612e9657506113e6565b6155b1615a92600063b47c7d5d9401611a77565b92615a9c60405190565b9788948593849360e01b90565b03915afa928315611cd657600093615dd7575b506003615ad16152ac600861456f85856121fc565b91600091615ade83611a42565b615af0610224600861456f86866121fc565b811015615b17578061506561505886614666615b12956008614f708a8a6121fc565b615ade565b5091939294612cac615b2a9160056121fc565b91615b3d6152ac600861456f85856121fc565b93615b4786611a42565b955b615b54610224865190565b871015615c1457615b6481611a42565b615b6f6102248a5190565b811015615c07578789615ba26103fe610224613a7c86615b9c8d6135ca613e55613a7c60029b8c94612b7c565b95612b7c565b149081615be7575b50615bbd57615bb890612b57565b615b64565b96615065615bdf92949398615062615bd8613a7c858b612b7c565b918a612b7c565b959091615b49565b615bff91506135ca600991613efe613a7c8d8c612b7c565b851438615baa565b50919095615bdf90612b57565b9650925092909350615c2461598f565b93615c2f8187870152565b615c41611a1460016135ca84886121fc565b6002615c4d82866121fc565b01615c5b6040870191612b9b565b90526004615c6982866121fc565b01615c776060870191612b9b565b9052615c92615c8b60096135ca84886121fc565b6080870152565b615cab615ca4600a6135ca84886121fc565b60a0870152565b615cb6615100835190565b60c08601528160e0860152615cca81613870565b610100860152615ce0615cdb835190565b6159b4565b926101208601938452615d0e6132b360076135ca615cff6152ac885190565b956101408b01968752896121fc565b615d2f615d21615d1c855190565b6159f5565b976101808801988952611a42565b615d3a610224855190565b811015615dcd5780613aa18188615dbc615d80615daf615d9f600861238e61548f8f8f9c615dc89d615d9982613a7c94615d89600660029d8e613efe613a7c878a612b7c565b01915191612a89565b615d938383612b7c565b52612b7c565b50612b7c565b615daa868c51612b7c565b613154565b613efe613a7c858c612b7c565b01615d898c5191612b9b565b615d2f565b5095505050505090565b615df091935060203d811161440b576143fc81836116b2565b9138615abc565b610224615e04600e612268565b611bd56064611a42565b9081526040810192916101f191602090611a29565b6004611fd86101f192611fc963500bf8a560e11b913390615e4360405190565b9586946020860190815201615e0e565b634e487b7160e01b600052602260045260246000fd5b9060016002830492168015615e89575b6020831014615e8457565b615e53565b91607f1691615e79565b80546000939291615eb0615ea683615e69565b8085529360200190565b9160018116908115615f025750600114615ec957505050565b615edc9192939450600052602060002090565b916000925b818410615eee5750500190565b805484840152602090930192600101615ee1565b92949550505060ff1916825215156020020190565b9061022491615e93565b906101f1612a8292615f3260405190565b93848092615f17565b61022490615f21565b90615f4d825490565b615f5681612254565b92615f6a6020850191600052602060002090565b6000915b838310615f7b5750505050565b600160208192615f8a85615f3b565b815201920192019190615f6e565b61022490615f44565b615fb861022491615fb0606090565b50600b6121fc565b615f9856fea26469706673582212201cb3421d62ef9954179d121286ba15bdda73c3067bd1a15825ab32b17572e15664736f6c63430008150033",
  "linkReferences": {},
  "deployedLinkReferences": {}
}