{
  "_format": "hh-sol-artifact-1",
  "contractName": "Vault",
  "sourceName": "contracts/Vault.sol",
  "abi": [
    {
      "inputs": [
        {
          "internalType": "address",
          "name": "_contractStore",
          "type": "address"
        }
      ],
      "stateMutability": "payable",
      "type": "constructor"
    },
    {
      "inputs": [],
      "name": "amount_to_send_to_gasless",
      "outputs": [
        {
          "internalType": "uint256",
          "name": "",
          "type": "uint256"
        }
      ],
      "stateMutability": "view",
      "type": "function"
    },
    {
      "inputs": [],
      "name": "contractStore",
      "outputs": [
        {
          "internalType": "contract ContractStore",
          "name": "",
          "type": "address"
        }
      ],
      "stateMutability": "view",
      "type": "function"
    },
    {
      "inputs": [
        {
          "internalType": "uint256",
          "name": "organisation_id",
          "type": "uint256"
        },
        {
          "internalType": "uint256",
          "name": "amount",
          "type": "uint256"
        }
      ],
      "name": "deductFrom",
      "outputs": [],
      "stateMutability": "nonpayable",
      "type": "function"
    },
    {
      "inputs": [],
      "name": "deposit",
      "outputs": [],
      "stateMutability": "payable",
      "type": "function"
    },
    {
      "inputs": [
        {
          "internalType": "uint256",
          "name": "organisation_id",
          "type": "uint256"
        }
      ],
      "name": "depositToOrganisation",
      "outputs": [],
      "stateMutability": "payable",
      "type": "function"
    },
    {
      "inputs": [
        {
          "internalType": "uint256",
          "name": "organisation_id",
          "type": "uint256"
        }
      ],
      "name": "getBalanceOfOrganisation",
      "outputs": [
        {
          "internalType": "uint256",
          "name": "",
          "type": "uint256"
        }
      ],
      "stateMutability": "view",
      "type": "function"
    },
    {
      "inputs": [
        {
          "internalType": "address",
          "name": "transferFundsTo",
          "type": "address"
        }
      ],
      "name": "requestFunds",
      "outputs": [],
      "stateMutability": "nonpayable",
      "type": "function"
    },
    {
      "inputs": [
        {
          "internalType": "uint256",
          "name": "organisation_id",
          "type": "uint256"
        },
        {
          "internalType": "address",
          "name": "receipient",
          "type": "address"
        },
        {
          "internalType": "uint256",
          "name": "amount",
          "type": "uint256"
        }
      ],
      "name": "transferFrom",
      "outputs": [],
      "stateMutability": "nonpayable",
      "type": "function"
    }
  ],
  "bytecode": "0x6080601f61093638819003918201601f19168301916001600160401b038311848410176100805780849260209460405283398101031261007b57516001600160a01b0381169081900361007b57600080546001600160a01b031916919091179055670de0b6b3a764000060025560405161089f90816100978239f35b600080fd5b634e487b7160e01b600052604160045260246000fdfe6080604081815260048036101561001557600080fd5b600092833560e01c9081630f485c021461043a5750838163544c7cf914610379575080636bc984e81461035157806377a85af31461020a578063b2714364146100e7578063d0e30db0146100ca578063db4d44e1146100a75763fa61ecca1461007d57600080fd5b346100a35760203660031901126100a35760209282913581526001845220549051908152f35b8280fd5b5050346100c657816003193601126100c6576020906002549051908152f35b5080fd5b83806003193601126100e4576100e134151561061e565b80f35b80fd5b509060208060031936011261020657823561010334151561061e565b8454835163a3974b2160e01b81526001600160a01b0391849082908890829086165afa9081156101fc5790849188916101cf575b50602486518094819362a314e960e11b8352878b840152165afa9081156101c557600193929161016e918891610198575b506106ee565b855252822080549134830180931161018557505580f35b634e487b7160e01b845260119052602483fd5b6101b89150843d86116101be575b6101b0818361067a565b8101906106d6565b38610168565b503d6101a6565b84513d88823e3d90fd5b6101ef9150823d84116101f5575b6101e7818361067a565b8101906106b2565b38610137565b503d6101dd565b85513d89823e3d90fd5b8380fd5b5090346100a357806003193601126100a35782548151634cc8b33b60e11b8152602435936020928135926001600160a01b039182169085818581855afa90811561034757916102688488938796958d9161032a575b50163314610808565b875163a3974b2160e01b815294859182905afa9283156103205791849186938a956102fc575b50906024918851958694859362a314e960e11b8552840152165afa9081156101c557916102c96102f7959492600194899161019857506106ee565b8087528282526102de8685892054101561073a565b6102ea86471015610799565b86525283209182546107e5565b905580f35b60249291955061031890853d87116101f5576101e7818361067a565b94909161028e565b86513d8a823e3d90fd5b6103419150853d87116101f5576101e7818361067a565b3861025f565b87513d8b823e3d90fd5b5050346100c657816003193601126100c657905490516001600160a01b039091168152602090f35b919050346100c65760203660031901126100c65780356001600160a01b038181169182900361020657602081855416865194858092634cc8b33b60e11b82525afa918215610430578493849384936103da9285926104105750163314610808565b47906103eb60025480931015610799565b828215610407575bf1156103fd575080f35b51903d90823e3d90fd5b506108fc6103f3565b61042991925060203d81116101f5576101e7818361067a565b903861025f565b85513d86823e3d90fd5b84848492346100a35760603660031901126100a3576001600160a01b03938035906024358681169081900361061a5760443590878754169763fbcb54ef60e01b8652602095868186818d5afa908115610610579082918a916105f3575b5016330361059c578386899a899a99519283809263a3974b2160e01b82525afa94851561059257879287928a9761056e575b50906024918b51978894859362a314e960e11b8552840152165afa801561056457869586956105026001938897889161054757506106ee565b808652828252610517858b882054101561073a565b61052385471015610799565b8552528683206105348382546107e5565b905582821561040757f1156103fd575080f35b61055e9150843d86116101be576101b0818361067a565b8d610168565b87513d88823e3d90fd5b60249291975061058a90853d87116101f5576101e7818361067a565b9690916104c9565b89513d8a823e3d90fd5b865162461bcd60e51b8152808501879052602b60248201527f4f6e6c792073757276657920636f6e74726163742063616e2063616c6c20746860448201526a34b990333ab731ba34b7b760a91b6064820152608490fd5b61060a9150883d8a116101f5576101e7818361067a565b8b610497565b88513d8b823e3d90fd5b8580fd5b1561062557565b60405162461bcd60e51b815260206004820152602760248201527f4465706f73697420616d6f756e742073686f756c6420626520677265617465726044820152660207468616e20360cc1b6064820152608490fd5b90601f8019910116810190811067ffffffffffffffff82111761069c57604052565b634e487b7160e01b600052604160045260246000fd5b908160209103126106d157516001600160a01b03811681036106d15790565b600080fd5b908160209103126106d1575180151581036106d15790565b156106f557565b60405162461bcd60e51b815260206004820152601c60248201527f4f7267616e69736174696f6e204944206973206e6f742076616c6964000000006044820152606490fd5b1561074157565b60405162461bcd60e51b815260206004820152602a60248201527f496e73756666696369656e742062616c616e636520696e206f7267616e6973616044820152691d1a5bdb881d985d5b1d60b21b6064820152608490fd5b156107a057565b60405162461bcd60e51b815260206004820152601d60248201527f496e73756666696369656e742062616c616e636520696e207661756c740000006044820152606490fd5b919082039182116107f257565b634e487b7160e01b600052601160045260246000fd5b1561080f57565b60405162461bcd60e51b815260206004820152602c60248201527f4f6e6c79206761736c65737320636f6e74726163742063616e2063616c6c207460448201526b3434b990333ab731ba34b7b760a11b6064820152608490fdfea2646970667358221220529c3cacdcffdb4101455b1dc46c5b7405f92109e7c4346fbea7b904a4fbdd4f64736f6c63430008150033",
  "linkReferences": {},
  "deployedLinkReferences": {}
}